:020000040800F2
:100000000028002009220008992100089F210008EB
:10001000A5210008AB210008B12100080000000064
:10002000000000000000000000000000B7210008F0
:10003000C321000800000000CF210008DB210008D8
:1000400051220008512200085122000851220008C4
:1000500051220008512200085122000851220008B4
:1000600051220008512200085122000851220008A4
:100070005122000851220008512200085122000894
:100080005122000851220008512200085122000884
:100090005122000851220008512200085122000874
:1000A0005122000851220008512200085122000864
:1000B000E921000851220008000000005122000838
:1000C000512200080000000000000000512200083A
:1000D000000000005122000851220008000000002A
:1000E000512200085122000851220008000000009F
:1000F0000000000000000000000000000000000000
:0C01000000000000000000005FF808F1A3
:10010C0010B5054C237833B9044B13B10448AFF345
:10011C0000800123237010BD3C0000200000000073
:10012C006838000808B5034B1BB103490348AFF30B
:10013C00008008BD00000000400000206838000866
:10014C0080F0004002E000BF81F0004142001FBF80
:10015C005FEA410392EA030F7FEA226C7FEA236C89
:10016C006AD04FEA1262D2EB1363C1BFD21841407E
:10017C0048404140B8BF5B42192B88BF704710F014
:10018C00004F40F4000020F07F4018BF404211F0B7
:10019C00004F41F4000121F07F4118BF494292EA1F
:1001AC00030F3FD0A2F1010241FA03FC10EB0C004B
:1001BC00C3F1200301FA03F100F0004302D54942D8
:1001CC0060EB4000B0F5000F13D3B0F1807F06D385
:1001DC0040084FEA310102F10102FE2A51D2B1F17D
:1001EC00004F40EBC25008BF20F0010040EA030072
:1001FC007047490040EB0000013A28BFB0F5000FF2
:10020C00EDD2B0FA80FCACF1080CB2EB0C0200FAA7
:10021C000CF0AABF00EBC25052421843BCBFD040F6
:10022C001843704792F0000F81F4000106BF80F470
:10023C0000000132013BB5E74FEA41037FEA226C33
:10024C0018BF7FEA236C21D092EA030F04D092F0FE
:10025C00000F08BF0846704790EA010F1CBF002032
:10026C00704712F07F4F04D1400028BF40F000408F
:10027C00704712F100723CBF00F50000704700F0AF
:10028C00004343F0FE4040F4000070477FEA2262D6
:10029C0016BF08467FEA23630146420206BF5FEAA7
:1002AC00412390EA010F40F4800070474FF00003A7
:1002BC0004E000BF10F0004348BF40425FEA000C6E
:1002CC0008BF704743F0964301464FF000001CE016
:1002DC0050EA010208BF70474FF000030AE000BF6C
:1002EC0050EA010208BF704711F0004302D54042AA
:1002FC0061EB41015FEA010C02BF8446014600201C
:10030C0043F0B64308BFA3F18053A3F50003BCFA36
:10031C008CF2083AA3EBC25310DB01FA02FC6344E3
:10032C0000FA02FCC2F12002BCF1004F20FA02F2EA
:10033C0043EB020008BF20F00100704702F12002DD
:10034C0001FA02FCC2F1200250EA4C0021FA02F23E
:10035C0043EB020008BF20EADC7070474FF0FF0C43
:10036C001CEAD0521EBF1CEAD15392EA0C0F93EA3E
:10037C000C0F6FD01A4480EA010C400218BF5FEAE0
:10038C0041211ED04FF0006343EA501043EA511153
:10039C00A0FB01310CF00040B1F5000F3EBF49004D
:1003AC0041EAD3715B0040EA010062F17F02FD2A51
:1003BC001DD8B3F1004F40EBC25008BF20F0010034
:1003CC00704790F0000F0CF0004C08BF49024CEA4B
:1003DC00502040EA51207F3AC2BFD2F1FF0340EADD
:1003EC00C250704740F400004FF00003013A5DDC4E
:1003FC0012F1190FDCBF00F000407047C2F100028F
:10040C00410021FA02F1C2F1200200FA02FC5FEA7B
:10041C00310040F1000053EA4C0308BF20EADC70C5
:10042C00704792F0000F00F0004C02BF400010F437
:10043C00000F013AF9D040EA0C0093F0000F01F0E4
:10044C00004C02BF490011F4000F013BF9D041EA06
:10045C000C018FE70CEAD15392EA0C0F18BF93EA08
:10046C000C0F0AD030F0004C18BF31F0004CD8D132
:10047C0080EA010000F00040704790F0000F17BFB9
:10048C0090F0004F084691F0000F91F0004F14D0FF
:10049C0092EA0C0F01D142020FD193EA0C0F03D157
:1004AC004B0218BF084608D180EA010000F000405A
:1004BC0040F0FE4040F40000704740F0FE4040F435
:1004CC00400070474FF0FF0C1CEAD0521EBF1CEAD4
:1004DC00D15392EA0C0F93EA0C0F69D0A2EB0302F2
:1004EC0080EA010C49024FEA402037D04FF080538C
:1004FC0043EA111143EA10130CF000408B4238BF51
:10050C005B0042F17D024FF4000C8B4224BF5B1A5E
:10051C0040EA0C00B3EB510F24BFA3EB510340EAAC
:10052C005C00B3EB910F24BFA3EB910340EA9C005A
:10053C00B3EBD10F24BFA3EBD10340EADC001B01CA
:10054C0018BF5FEA1C1CE0D1FD2A3FF650AF8B426E
:10055C0040EBC25008BF20F0010070470CF0004C7B
:10056C004CEA50207F32C2BFD2F1FF0340EAC250A6
:10057C00704740F400004FF00003013A37E792F067
:10058C00000F00F0004C02BF400010F4000F013AC5
:10059C00F9D040EA0C0093F0000F01F0004C02BFC0
:1005AC00490011F4000F013BF9D041EA0C0195E729
:1005BC000CEAD15392EA0C0F08D142027FF47DAFC2
:1005CC0093EA0C0F7FF470AF084676E793EA0C0FB2
:1005DC0004D14B023FF44CAF08466EE730F0004CB0
:1005EC0018BF31F0004CCAD130F000427FF45CAF40
:1005FC0031F000437FF43CAF5FE700BF4FF0FF3CAE
:10060C0006E000BF4FF0010C02E000BF4FF0010C00
:10061C004DF804CD4FEA40024FEA41037FEA226CC9
:10062C0018BF7FEA236C11D001B052EA530C18BFEB
:10063C0090EA010F58BFB2EB030088BFC81738BF50
:10064C006FEAE17018BF40F0010070477FEA226C3E
:10065C0002D15FEA402C05D17FEA236CE4D15FEA3A
:10066C00412CE1D05DF8040B704700BF844608466E
:10067C006146FFE70FB5FFF7C9FF002848BF10F12F
:10068C00000F0FBD4DF808EDFFF7F4FF0CBF012074
:10069C0000205DF808FB00BF4DF808EDFFF7EAFFFE
:1006AC0034BF012000205DF808FB00BF4DF808EDB9
:1006BC00FFF7E0FF94BF012000205DF808FB00BFAE
:1006CC004DF808EDFFF7D2FF94BF012000205DF834
:1006DC0008FB00BF4DF808EDFFF7C8FF34BF012041
:1006EC0000205DF808FB00BF4FEA4002B2F1FE4F5C
:1006FC000FD34FF09E03B3EB12620DD94FEA0023D8
:10070C0043F0004310F0004F23FA02F018BF4042B0
:10071C0070474FF00000704712F1610F01D1420297
:10072C0005D110F0004008BF6FF0004070474FF04B
:10073C000000704780B400AF034B01221A6000BF69
:10074C00BD4680BC704700BF5800002080B400AF8D
:10075C00034B01221A6000BFBD4680BC704700BF2E
:10076C005C00002080B400AF064B1B68012B04D149
:10077C00044B00221A60012300E000231846BD46FA
:10078C0080BC70475C00002080B400AF064B1B6837
:10079C00012B04D1044B00221A60012300E000233A
:1007AC001846BD4680BC70475800002080B500AF8D
:1007BC00224B1B68224A1360224B1B681F4A136092
:1007CC004FF40051204802F029F803461A461D4BFD
:1007DC001A601B4B1A68194B1B689A422BD1174B8A
:1007EC001A68184B1B689A4225D1184B1A68154B7E
:1007FC001B689A420DD0134B1B68144A1360114BA3
:10080C001B68002B17D1FFF795FF114BC8221A60FC
:10081C0011E00F4B1B68013B0D4A13600C4B1B681E
:10082C00002B08D1074B1B68002B04D1FFF782FF6C
:10083C00074BC8221A6000BF80BD00BF0400002017
:10084C000000002008000020000801400C000020DF
:10085C002000002080B500AF2E4B1B682E4A136081
:10086C002E4B1B682B4A13604FF480412C4801F02F
:10087C00D5FF03461A46294B1A60274B1A68254B9D
:10088C001B689A4243D1234B1A68244B1B689A422B
:10089C003DD1244B1A68214B1B689A4219D01F4B2F
:1008AC001B68204A13601D4B1B68002B2FD1FFF7D0
:1008BC004DFF1D4B1B6801331B4A13601A4B1B6801
:1008CC00642B02D1184B00221A60184BC8221A60F4
:1008DC001DE0164B1B68013B144A1360134B1B683D
:1008EC00002B14D10D4B1B68002B10D1FFF72EFFE2
:1008FC000D4B1B6801330C4A13600B4B1B68642BAC
:10090C0002D1094B00221A60084BC8221A6000BFA2
:10091C0080BD00BF14000020100000201800002033
:10092C00000801401C000020640000202000002072
:10093C0080B500AF714B1B68013B032B00F2D580D7
:10094C0001A252F823F000BF65090008AD090008A8
:10095C002B0A0008810A000801F0DEFA674B02221C
:10096C001A60674B1B6867491846FFF7F7FC03468C
:10097C001846FFF7B9FE0346184601F0E3FA624B3E
:10098C001B6860491846FFF7E9FC03461846FFF759
:10099C00ABFE0346184601F0E9FA01F0E1F9ABE0D1
:1009AC0001F086F9594B1B68012B0FD101F0EEF9C0
:1009BC00574B1B6853491846FFF7D0FC03461846A3
:1009CC00FFF792FE0346184601F0D0FA514B1B6814
:1009DC00012B14D1494B03221A604B4B1B6849491C
:1009EC001846FFF7BBFC03461846FFF77DFE03468F
:1009FC00184601F0A7FA00F091F800F0ADF8FFF7F7
:100A0C00C3FE0346012B72D1434B00221A603B4BB1
:100A1C000E221A604FF47A7001F094FA67E001F03C
:100A2C005DF901F087F93B4B1B68012B12D1334B5D
:100A3C0004221A60364B1B6832491846FFF78EFCAD
:100A4C0003461846FFF750FE0346184601F07AFAA3
:100A5C0000F064F8FFF798FE0346012B49D12E4BAA
:100A6C0000221A60254B0F221A604FF47A7001F0A5
:100A7C0069FA3EE001F048F901F05CF9254B1B687E
:100A8C00012B22D11D4B02221A601D4B1B681D49E4
:100A9C001846FFF763FC03461846FFF725FE03468E
:100AAC00184601F04FFA184B1B6816491846FFF709
:100ABC0055FC03461846FFF717FE0346184601F08F
:100ACC0055FA01F04DF900F029F8FFF75DFE0346E9
:100ADC00012B10D1104B00221A60084B10221A6007
:100AEC004FF47A7001F02EFA05E000BF04E000BF6D
:100AFC0002E000BF00E000BF00BF80BD600000202E
:100B0C00240000200000C842280000209000002093
:100B1C002C000020880000206400002080B400AF6E
:100B2C00074B1B68074A1360074B1B68074A136087
:100B3C00074B1B68074A136000BFBD4680BC70475B
:100B4C0024000020700000202800002074000020E9
:100B5C002C0000207800002080B400AF074B1B68ED
:100B6C00074A1360074B1B68074A1360074B1B6847
:100B7C00074A136000BFBD4680BC704724000020AC
:100B8C007C00002028000020800000202C00002089
:100B9C008400002098B500AF8B4B1B68013B032BE6
:100BAC0000F2088101A252F823F000BFC90B000823
:100BBC00D50B00087B0C00081F0D0008834B01228D
:100BCC001A60FFF7ABFFFCE0804B1B68012B1BD1BD
:100BDC007F4B1B68002B17D17D4B1C687D4B1B6812
:100BEC007D491846FFF76EFC03461846FFF77CFD5F
:100BFC0003461946204600F0ABFE754B01221A60E5
:100C0C00322001F0C7F9D7E0704B1B68012B40F084
:100C1C00D3806F4B1B68012B40F0CE806C4B1C6853
:100C2C006C4B1B681846FFF75FFD01466B4B83FB53
:100C3C0001239A10CB17D21A13469B0013445B0066
:100C4C00CA1A1146204600F083FE624B1B684FF017
:100C5C007E511846FFF778FA03461A465D4B1A6028
:100C6C005B4B00221A60322001F094F9A4E0574B40
:100C7C001B68012B1BD1564B1B68002B17D1544BF7
:100C8C001C68574B1B6854491846FFF71BFC03465E
:100C9C001846FFF729FD03461946204600F058FE7A
:100CAC004B4B01221A60322001F074F986E0474B5D
:100CBC001B68012B40F08280454B1B68012B7DD1BA
:100CCC00434B1C68464B1B681846FFF70DFD01464D
:100CDC00424B83FB01239A10CB17D21A13469B006D
:100CEC0013445B00CA1A1146204600F031FE3C4BFF
:100CFC001B684FF07E511846FFF726FA03461A463A
:100D0C00374B1A60324B00221A60322001F042F944
:100D1C0054E02E4B1B68012B1BD12D4B1B68002B59
:100D2C0017D12B4B1C682F4B1B682B491846FFF710
:100D3C00C9FB03461846FFF7D7FC03461946204665
:100D4C0000F006FE224B01221A60322001F022F93B
:100D5C0036E01E4B1B68012B32D11D4B1B68012B3F
:100D6C002ED11B4B1C681F4B1B681846FFF7BCFC95
:100D7C0001461A4B83FB01239A10CB17D21A134648
:100D8C009B0013445B00CA1A1146204600F0E0FD9C
:100D9C00144B1B684FF07E511846FFF7D5F90346EC
:100DAC001A46104B1A600A4B00221A60322001F0CE
:100DBC00F1F805E000BF04E000BF02E000BF00E076
:100DCC0000BF00BF98BD00BF60000020980000204D
:100DDC0068000020700000200000204167666666F5
:100DEC00740000207800002098B500AF9D4B1B6864
:100DFC00013B032B00F2778101A252F823F000BFD4
:100E0C001D0E0008290E00088B0F00083110000879
:100E1C00954B01221A60FFF79FFE6BE1934B1B6809
:100E2C004FF000011846FFF737FC0346002B52D059
:100E3C008D4B1B68012B1BD18D4B1B68002B17D1C5
:100E4C008B4B1C688B4B1B688B491846FFF73AFB86
:100E5C0003461846FFF748FC03461946204600F0A7
:100E6C007FFB834B01221A60322001F0A7F885E04A
:100E7C007D4B1B68012B40F038817D4B1B68012B8F
:100E8C0040F033817A4B1C687A4B1B681846FFF78D
:100E9C002BFC0146794B83FB01239A10CB17D21AFA
:100EAC0013469B0013445B00CA1A1146204600F0FF
:100EBC0057FB704B1B684FF07E511846FFF744F9F7
:100ECC0003461A466B4B1A60694B00221A6032209B
:100EDC0001F074F809E1644B1B68012B1BD1644BC6
:100EEC001B68002B17D1624B1C68604B1B68624956
:100EFC001846FFF7E7FA03461846FFF7F5FB0346DB
:100F0C001946204600F02CFB594B01221A60322066
:100F1C0001F054F832E0544B1B68012B40F0E58093
:100F2C00534B1B68012B40F0E080514B1C684F4B1E
:100F3C001B681846FFF7D8FB0146504B83FB012377
:100F4C009A10CB17D21A13469B0013445B00CA1A93
:100F5C001146204600F004FB444B1B684FF07E51B9
:100F6C001846FFF7F1F803461A46404B1A60404BFF
:100F7C0000221A60322001F021F8B6E0B5E03A4BBD
:100F8C001B68012B1BD13A4B1B68002B17D1384B1C
:100F9C001C683B4B1B6838491846FFF793FA03460D
:100FAC001846FFF7A1FB03461946204600F0D8FA75
:100FBC002F4B01221A60322001F000F897E02A4BE7
:100FCC001B68012B40F09380294B1B68012B40F0D0
:100FDC008E80274B1C682A4B1B681846FFF784FB36
:100FEC000146264B83FB01239A10CB17D21A1346CA
:100FFC009B0013445B00CA1A1146204600F0B0FA5D
:10100C001F4B1B684FF07E511846FFF79DF80346A7
:10101C001A461B4B1A60164B00221A60322000F045
:10102C00CDFF64E0104B1B68012B2BD1104B1B68C0
:10103C00002B27D10E4B1C68114B1B680E49184610
:10104C00FFF740FA03461846FFF74EFB03461946D6
:10105C00204600F085FA064B01221A60322000F07F
:10106C00ADFF46E060000020A000002080000020C2
:10107C006C0000208400002000002041676666663A
:10108C007C0000201C4B1B68012B32D11B4B1B68B6
:10109C00012B2ED1194B1C68194B1B681846FFF7F6
:1010AC0023FB0146174B83FB01239A10CB17D21A53
:1010BC0013469B0013445B00CA1A1146204600F0ED
:1010CC004FFA0F4B1B684FF07E511846FFF73CF858
:1010DC0003461A460A4B1A60084B00221A6032204B
:1010EC0000F06CFF05E000BF04E000BF02E000BFB1
:1010FC0000E000BF00BF98BDA00000206C000020E5
:10110C007C0000206766666680B500AF714B1B687B
:10111C00102B00F09280102B00F3D3800E2B02D0FA
:10112C000F2B46D0CDE000F0C3FD00F003FE6A4B60
:10113C001B68012B12D1674B02221A60FFF7EEFCE1
:10114C00664B1B6866491846FFF708F903461846B4
:10115C00FFF7CAFA0346184600F0F4FEFFF714FB3B
:10116C000346012B09D15F4B00221A60594B0F2209
:10117C001A604FF4FA7000F0E5FEFFF7F3FA03463D
:10118C00012B40F0A080574B1B68184600F014FE52
:10119C00C82000F0D7FE504B1B68012B40F0938009
:1011AC004C4B02221A60FFF7B9FC4E4B00221A601E
:1011BC0089E000F093FD00F0D3FD474B1B68012B39
:1011CC0012D1444B03221A60FFF7A8FC464B1B6854
:1011DC0043491846FFF7C2F803461846FFF784FA4E
:1011EC000346184600F0AEFEFFF7CEFA0346012B7D
:1011FC0009D13C4B00221A60364B10221A604FF476
:10120C00FA7000F09FFEFFF7ADFA0346012B5CD19C
:10121C00344B1B68184600F045FEC82000F092FEC7
:10122C002D4B1B68012B50D12A4B02221A60FFF761
:10123C0075FC2C4B00221A6047E000F065FD00F0B5
:10124C00A5FD254B1B68012B12D1224B04221A60E1
:10125C00FFF764FC254B1B6821491846FFF77EF805
:10126C0003461846FFF740FA0346184600F06AFE9C
:10127C00FFF78AFA0346012B09D11A4B00221A6098
:10128C00144B0E221A604FF4FA7000F05BFEFFF75D
:10129C0069FA0346012B1AD1124B1B68184600F051
:1012AC00C5FDC82000F04EFE0B4B1B68012B0ED168
:1012BC00084B02221A60FFF731FC0A4B00221A601D
:1012CC0005E000BF04E000BF02E000BF00E000BF8B
:1012DC0000BF80BD6000002088000020240000209A
:1012EC000000C84264000020280000202C000020D0
:1012FC0080B500AF00F0A8FF00F018F800F09EF8E1
:10130C0000F050F8074801F0E5FE074B01221A6087
:10131C00FFF740FCFFF768FDFFF70AFBFFF7F4FE51
:10132C00F6E700BFB80000206000002080B590B048
:10133C0000AF07F1180328220021184602F086FAA4
:10134C003B1D00221A605A609A60DA601A6102230F
:10135C00BB610123BB621023FB6200237B6307F19B
:10136C001803184601F08AFA0346002B01D000F04E
:10137C00F1F80F237B600023BB600023FB6000238C
:10138C003B6100237B613B1D0021184601F0F6FCFC
:10139C000346002B01D000F0DDF800BF4037BD46FE
:1013AC0080BD000080B586B000AF07F108030022B5
:1013BC001A605A609A60DA603B4600221A605A60E2
:1013CC001D4B4FF080421A601B4B41F63F725A6026
:1013DC00194B00229A60184B0922DA60164B002236
:1013EC001A61154B00229A61134801F023FE034643
:1013FC00002B01D000F0AEF84FF48053BB6007F126
:10140C00080319460C4801F0B9FF0346002B01D024
:10141C0000F0A0F800233B6000237B603B4619469C
:10142C00054802F085F90346002B01D000F092F834
:10143C0000BF1837BD4680BDB800002080B588B00D
:10144C0000AF07F1100300221A605A609A60DA604C
:10145C00354B9B69344A43F010039361324B9B69C3
:10146C0003F01003FB60FB682F4B9B692E4A43F083
:10147C00040393612C4B9B6903F00403BB60BB68B2
:10148C00294B9B69284A43F008039361264B9B69BF
:10149C0003F008037B607B68002241F6F871234857
:1014AC0001F0D3F900224FF67F61214801F0CDF90C
:1014BC004FF400533B6100237B610123BB6107F1B7
:1014CC00100319461B4801F02FF841F6F8733B61E5
:1014DC0001237B610023BB610223FB6107F1100335
:1014EC001946124801F020F84FF67F633B61012347
:1014FC007B610023BB610223FB6107F110031946DA
:10150C000B4801F011F84FF4C0433B6100237B61A1
:10151C000123BB6107F110031946044801F004F8DC
:10152C0000BF2037BD4680BD0010024000080140BE
:10153C00000C01400010014080B582B000AF786013
:10154C0000F050FDFFF732F9FFF784F900BF0837C0
:10155C00BD4680BD80B400AF72B600BFFEE7000090
:10156C0080B582B000AF786039607B68002B0BD1FE
:10157C0000224FF48061C54801F067F901224FF455
:10158C008051C24801F061F97B68012B0BD101221B
:10159C004FF48061BD4801F058F900224FF480519E
:1015AC00BA4801F052F93B68092B00F2C98101A23B
:1015BC0052F823F0E91500083F16000895160008AC
:1015CC00EB1600084117000897170008ED170008E4
:1015DC0043180008A1180008F718000800224FF45F
:1015EC000071AB4801F031F900224FF48061A8483A
:1015FC0001F02BF900224FF40061A54801F025F908
:10160C0000224FF48051A24801F01FF900224FF440
:10161C0000519F4801F019F900224FF480419C4879
:10162C0001F013F901224FF40041994801F00DF932
:10163C0087E101224FF40071954801F006F9002270
:10164C004FF48061924801F000F900224FF40061E0
:10165C008F4801F0FAF801224FF480518C4801F0C8
:10166C00F4F801224FF40051894801F0EEF8012200
:10167C004FF48041864801F0E8F801224FF4004114
:10168C00834801F0E2F85CE100224FF400718048DD
:10169C0001F0DBF800224FF480617D4801F0D5F8B1
:1016AC0001224FF400617A4801F0CFF800224FF488
:1016BC008051774801F0C9F800224FF4005174486A
:1016CC0001F0C3F801224FF48041714801F0BDF8DC
:1016DC0000224FF400416E4801F0B7F831E10022CE
:1016EC004FF400716A4801F0B0F800224FF48061A9
:1016FC00674801F0AAF800224FF40061644801F039
:10170C00A4F800224FF48051614801F09EF80122A8
:10171C004FF400515E4801F098F801224FF48041DB
:10172C005B4801F092F800224FF40041584801F058
:10173C008CF806E101224FF40071554801F085F850
:10174C0000224FF48061524801F07FF800224FF4E0
:10175C0000614F4801F079F801224FF480514C4858
:10176C0001F073F801224FF40051494801F06DF873
:10177C0000224FF48041464801F067F800224FF4F4
:10178C000041434801F061F8DBE000224FF40071A6
:10179C003F4801F05AF801224FF480613C4801F0B7
:1017AC0054F800224FF40061394801F04EF8002241
:1017BC004FF48051364801F048F801224FF40051A3
:1017CC00334801F042F800224FF48041304801F0D8
:1017DC003CF800224FF400412D4801F036F8B0E0FF
:1017EC0000224FF400712A4801F02FF801224FF427
:1017FC008061274801F029F800224FF40061244849
:10180C0001F023F800224FF48051214801F01DF81B
:10181C0000224FF400511E4801F017F800224FF43B
:10182C0080411B4801F011F800224FF40041184888
:10183C0001F00BF885E000224FF40071144801F020
:10184C0004F800224FF48061114800F0FEFF0022E2
:10185C004FF400610E4800F0F8FF01224FF4805164
:10186C000B4800F0F2FF01224FF40051084800F041
:10187C00ECFF01224FF48041054800F0E6FF012205
:10188C004FF40041024800F0E0FF5AE0000801402C
:10189C00000C014000224FF400712C4800F0D5FFE1
:1018AC0000224FF48061294800F0CFFF00224FF452
:1018BC000061264800F0C9FF00224FF480512348F4
:1018CC0000F0C3FF00224FF40051204800F0BDFF90
:1018DC0000224FF480411D4800F0B7FF00224FF466
:1018EC0000411A4800F0B1FF2BE000224FF40071C8
:1018FC00164800F0AAFF00224FF48061134800F054
:10190C00A4FF00224FF40061104800F09EFF00225B
:10191C004FF480510D4800F098FF01224FF4005114
:10192C000A4800F092FF00224FF48041074800F073
:10193C008CFF00224FF40041044800F086FF00E0C9
:10194C0000BF00BF0837BD4680BD00BF000C014082
:10195C0080B582B000AF786039607B68002B0BD10A
:10196C0000224FF40071D04800F06FFF01224FF4B9
:10197C000061CD4800F069FF7B68012B0BD101227F
:10198C004FF40071C84800F060FF00224FF4006172
:10199C00C54800F05AFF3B68092B00F27F8101A279
:1019AC0052F823F0D9190008211A0008691A000806
:1019BC00B11A0008F91A0008411B0008891B00081D
:1019CC00D11B0008191C0008611C00080022012111
:1019DC00B64800F03AFF00220221B44800F035FF6F
:1019EC0000220421B14800F030FF00220821AF484A
:1019FC0000F02BFF00221021AC4800F026FF002243
:101A0C002021AA4800F021FF01224021A74800F024
:101A1C001CFF44E101220121A44800F016FF002222
:101A2C000221A24800F011FF002204219F4800F07F
:101A3C000CFF012208219D4800F007FF0122102114
:101A4C009A4800F002FF01222021984800F0FDFE88
:101A5C0001224021954800F0F8FE20E100220121EE
:101A6C00924800F0F2FE00220221904800F0EDFEB8
:101A7C00012204218D4800F0E8FE002208218B4849
:101A8C0000F0E3FE00221021884800F0DEFE012267
:101A9C002021864800F0D9FE00224021834800F026
:101AAC00D4FEFCE000220121804800F0CEFE002292
:101ABC0002217E4800F0C9FE002204217B4800F080
:101ACC00C4FE00220821794800F0BFFE012210213B
:101ADC00764800F0BAFE01222021744800F0B5FED1
:101AEC0000224021714800F0B0FED8E00122012113
:101AFC006E4800F0AAFE002202216C4800F0A5FE00
:101B0C0000220421694800F0A0FE01220821674848
:101B1C0000F09BFE01221021644800F096FE00228A
:101B2C002021624800F091FE002240215F4800F025
:101B3C008CFEB4E0002201215C4800F086FE0122FC
:101B4C0002215A4800F081FE00220421574800F07F
:101B5C007CFE00220821554800F077FE012210215E
:101B6C00524800F072FE00222021504800F06DFE19
:101B7C00002240214D4800F068FE90E00022012137
:101B8C004A4800F062FE01220221484800F05DFE46
:101B9C0000220421454800F058FE00220821434849
:101BAC0000F053FE00221021404800F04EFE0022AF
:101BBC0020213E4800F049FE002240213B4800F025
:101BCC0044FE6CE000220121384800F03EFE002269
:101BDC000221364800F039FE00220421334800F07F
:101BEC0034FE01220821314800F02FFE0122102181
:101BFC002E4800F02AFE012220212C4800F025FE60
:101C0C0001224021294800F020FE48E00022012159
:101C1C00264800F01AFE00220221244800F015FE8E
:101C2C0000220421214800F010FE002208211F4848
:101C3C0000F00BFE002210211C4800F006FE0022D2
:101C4C0020211A4800F001FE00224021174800F024
:101C5C00FCFD24E000220121144800F0F6FD0022D6
:101C6C000221124800F0F1FD002204210F4800F07F
:101C7C00ECFD002208210D4800F0E7FD01221021A7
:101C8C000A4800F0E2FD00222021084800F0DDFDAA
:101C9C0000224021054800F0D8FD00E000BF00BF45
:101CAC000837BD4680BD00BF00080140000C014054
:101CBC0080B500AF01222021074800F0C6FD0022AC
:101CCC008021054800F0C1FD00224021024800F0AF
:101CDC00BCFD00BF80BD00BF0008014080B500AF57
:101CEC0000222021074800F0B0FD01228021054888
:101CFC0000F0ABFD00224021024800F0A6FD00BF21
:101D0C0080BD00BF0008014080B500AF002220213B
:101D1C00074800F09AFD00228021054800F095FD4F
:101D2C0001224021024800F090FD00BF80BD00BFA1
:101D3C000008014080B500AF01220821074800F0DF
:101D4C0084FD00224FF48071044800F07EFD0022D7
:101D5C001021024800F079FD00BF80BD0008014051
:101D6C0080B500AF00220821074800F06EFD01226B
:101D7C004FF48071044800F068FD002210210248E5
:101D8C0000F063FD00BF80BD0008014080B500AFCE
:101D9C0000220821074800F058FD00224FF4807102
:101DAC00044800F052FD01221021024800F04DFDC4
:101DBC0000BF80BD0008014080B582B000AF7860E4
:101DCC007868FEF777FA034613491846FEF77AFB54
:101DDC00034619461846FEF7B9F903461A460F4B47
:101DEC001A607868FEF766FA03460B491846FEF748
:101DFC0069FB03460A491846FEF7B0FA03461A4631
:101E0C00084B1A607868FEF755FA0346064A1360C9
:101E1C0000BF0837BD4680BD0000A0402C0000204C
:101E2C0000004040280000202400002080B582B033
:101E3C0000AF78607868FEF73DFA03464FF08041BA
:101E4C001846FEF73FFB034611491846FEF786FA83
:101E5C0003461A460F4B1A607868FEF72BFA0346B6
:101E6C004FF080411846FEF72DFB03460A491846F1
:101E7C00FEF774FA03461A46084B1A607868FEF7A8
:101E8C0019FA0346064A136000BF0837BD4680BDE9
:101E9C000000A0402400002000004040280000204A
:101EAC002C00002080B582B000AF78607868FEF717
:101EBC0001FA034613491846FEF704FB0346124980
:101ECC001846FEF74BFA03461A46104B1A60786810
:101EDC00FEF7F0F903460B491846FEF7F3FA0346F2
:101EEC0019461846FEF732F903461A46084B1A6093
:101EFC007868FEF7DFF90346064A136000BF08371F
:101F0C00BD4680BD000040400000A04024000020E1
:101F1C002C0000202800002080B500AF00222021DA
:101F2C00074800F092FC00228021054800F08DFC4F
:101F3C0000224021024800F088FC00BF80BD00BF99
:101F4C000008014080B483B000AF7860054A7B681C
:101F5C001360054B00221A6000BF0C37BD4680BCD5
:101F6C00704700BF8C0000208800002080B483B034
:101F7C0000AF7860054A7B681360054B00221A603D
:101F8C0000BF0C37BD4680BC704700BF94000020DA
:101F9C009000002080B483B000AF7860054A7B6865
:101FAC001360054B00221A6000BF0C37BD4680BC85
:101FBC00704700BF9C0000209800002080B483B0C4
:101FCC0000AF7860054A7B681360054B00221A60ED
:101FDC0000BF0C37BD4680BC704700BFA40000207A
:101FEC00A000002080B400AF314B1B68002B0BDD30
:101FFC002F4B1B68013B2E4A13602D4B1B68002B8B
:10200C0002DC2C4B01221A602B4B1B68002B0BDDC6
:10201C00294B1B68013B284A1360274B1B68002B7C
:10202C0002DC264B01221A60254B1B68002B0BDDB2
:10203C00234B1B68013B224A1360214B1B68002B6E
:10204C0002DC204B01221A601F4B1B68002B0BDD9E
:10205C001D4B1B68013B1C4A13601B4B1B68002B60
:10206C0002DC1A4B01221A60194B1B68002B0BDD8A
:10207C00174B1B68013B164A1360154B1B68002B52
:10208C0002DC144B01221A60134B1B68002B0BDD76
:10209C00114B1B68013B104A13600F4B1B68002B44
:1020AC0002DC0E4B01221A6000BFBD4680BC70479B
:1020BC008C0000208800002094000020900000205C
:1020CC009C00002098000020A4000020A00000200C
:1020DC00AC000020A8000020B4000020B0000020BC
:1020EC0080B485B000AF154B9B69144A43F00103D3
:1020FC009361124B9B6903F00103BB60BB680F4BF0
:10210C00DB690E4A43F08053D3610C4BDB6903F05F
:10211C0080537B607B680A4B5B68FB60FB6823F039
:10212C00E063FB60FB6843F08063FB60044AFB6880
:10213C00536000BF1437BD4680BC7047001002408E
:10214C000000014080B584B000AF78607B681B68EC
:10215C00B3F1804F13D10C4BDB690B4A43F00103F5
:10216C00D361094BDB6903F00103FB60FB680022C0
:10217C0000211C2000F0A1F91C2000F0BAF900BFCE
:10218C001037BD4680BD00BF0010024080B400AFC8
:10219C00FEE780B400AFFEE780B400AFFEE780B48A
:1021AC0000AFFEE780B400AFFEE780B400AF00BF25
:1021BC00BD4680BC704780B400AF00BFBD4680BC3C
:1021CC00704780B400AF00BFBD4680BC704780B57F
:1021DC0000AF00F07FF800BF80BD000080B500AFFD
:1021EC00024800F0C3FF00BF80BD00BFB800002054
:1021FC0080B400AF00BFBD4680BC7047FFF7F8FF4E
:10220C000B480C490C4A002302E0D458C450043348
:10221C00C4188C42F9D3094A094C002301E013601D
:10222C000432A242FBD301F0EDFAFFF761F87047DC
:10223C00000000203C000020AC3800083C000020CE
:10224C0004010020FEE7000080B500AF084B1B68BE
:10225C00074A43F010031360032000F023F90F200A
:10226C0000F008F8FFF73CFF0023184680BD00BFC4
:10227C000020024080B582B000AF7860124B1A6823
:10228C00124B1B7819464FF47A73B3FBF1F3B2FB84
:10229C00F3F3184600F03BF90346002B01D0012361
:1022AC000EE07B680F2B0AD8002279684FF0FF30C4
:1022BC0000F003F9064A7B681360002300E0012359
:1022CC0018460837BD4680BD30000020380000207D
:1022DC003400002080B400AF054B1B781A46054B28
:1022EC001B681344034A136000BFBD4680BC704793
:1022FC00380000200001002080B400AF024B1B68A6
:10230C001846BD4680BC70470001002080B485B0E3
:10231C0000AF78607B6803F00703FB600C4BDB6855
:10232C00BB60BA684FF6FF031340BB60FB681A0230
:10233C00BB68134343F0BF6343F40033BB60044AF0
:10234C00BB68D36000BF1437BD4680BC704700BF6C
:10235C0000ED00E080B400AF044BDB681B0A03F017
:10236C0007031846BD4680BC704700BF00ED00E077
:10237C0080B483B000AF0346FB7197F90730002B94
:10238C000BDBFB7903F01F02064997F907305B0959
:10239C00012000FA02F241F8232000BF0C37BD46A1
:1023AC0080BC704700E100E080B483B000AF03460E
:1023BC003960FB7197F90730002B0ADB3B68DAB206
:1023CC000C4997F907301201D2B20B4483F8002361
:1023DC000AE03B68DAB20849FB7903F00F03043BCF
:1023EC001201D2B20B441A7600BF0C37BD4680BC2A
:1023FC00704700BF00E100E000ED00E080B489B060
:10240C0000AFF860B9607A60FB6803F00703FB610A
:10241C00FB69C3F10703042B28BF0423BB61FB69D1
:10242C000433062B02D9FB69033B00E000237B61DC
:10243C004FF0FF32BB6902FA03F3DA43BB681A4070
:10244C007B699A404FF0FF317B6901FA03F3D94362
:10245C007B680B40134318462437BD4680BC70473D
:10246C0080B582B000AF78607B68013BB3F1807FB0
:10247C0001D301230FE00A4A7B68013B53600F2113
:10248C004FF0FF30FFF790FF054B00229A60044B92
:10249C0007221A60002318460837BD4680BD00BFCE
:1024AC0010E000E080B582B000AF78607868FFF78C
:1024BC002DFF00BF0837BD4680BD80B586B000AF8C
:1024CC000346B9607A60FB7300237B61FFF742FF20
:1024DC0078617A68B9687869FFF790FF024697F9D6
:1024EC000F3011461846FFF75FFF00BF1837BD4687
:1024FC0080BD80B582B000AF0346FB7197F9073001
:10250C001846FFF735FF00BF0837BD4680BD80B5C4
:10251C0082B000AF78607868FFF7A2FF03461846D8
:10252C000837BD4680BD000080B48BB000AF78602A
:10253C00396000237B6200233B6248E101227B6A05
:10254C0002FA03F3FB613B681B68FA691340BB6139
:10255C00BA69FB699A4240F037813B685B68A34AD1
:10256C0093425ED0A14A934275D8A14A934258D067
:10257C009F4A93426FD89F4A934252D09D4A9342AE
:10258C0069D89D4A93424CD09B4A934263D89B4A4C
:10259C00934246D0994A93425DD8122B2AD8122BDB
:1025AC0059D801A252F823F02F260008092600085A
:1025BC001B2600085D260008632600086326000819
:1025CC0063260008632600086326000863260008BB
:1025DC0063260008632600086326000863260008AB
:1025EC0063260008632600086326000811260008ED
:1025FC0025260008824A934213D02CE03B68DB6806
:10260C003B6229E03B68DB6804333B6224E03B68B7
:10261C00DB6808333B621FE03B68DB680C333B62D2
:10262C001AE03B689B68002B02D104233B6213E049
:10263C003B689B68012B05D108233B627B68FA69D8
:10264C001A6109E008233B627B68FA695A6103E06E
:10265C0000233B6200E000BFBB69FF2B01D87B6805
:10266C0001E07B6804337B61BB69FF2B02D87B6A7A
:10267C009B0002E07B6A083B9B003B617B691A680C
:10268C000F213B6901FA03F3DB431A40396A3B69BA
:10269C0001FA03F31A437B691A603B685B6803F029
:1026AC008053002B00F09080564B9B69554A43F0A9
:1026BC0001039361534B9B6903F00103BB60BB683F
:1026CC00514A7B6A9B08023352F82330FB607B6AC9
:1026DC0003F003039B000F2202FA03F3DB43FA68B7
:1026EC001340FB607B68494A93420DD07B68484A93
:1026FC00934207D07B68474A934201D1022304E0FE
:10270C00032302E0012300E000237A6A02F00302B3
:10271C0092009340FA681343FB603B497B6A9B0829
:10272C000233FA6841F823203B685B6803F480139A
:10273C00002B06D0384B9A683749BB6913438B6022
:10274C0006E0354B9A68BB69DB43334913408B6019
:10275C003B685B6803F40013002B06D02E4BDA6841
:10276C002D49BB691343CB6006E02B4BDA68BB6980
:10277C00DB4329491340CB603B685B6803F40033AF
:10278C00002B06D0244B5A682349BB6913434B607A
:10279C0006E0214B5A68BB69DB431F4913404B6071
:1027AC003B685B6803F48033002B06D01A4B1A6825
:1027BC001949BB6913430B6006E0174B1A68BB69D8
:1027CC00DB43154913400B607B6A01337B623B682A
:1027DC001A687B6A22FA03F3002B7FF4AFAE00BFBA
:1027EC0000BF2C37BD4680BC704700BF00003210C4
:1027FC000000311000002210000021100000121007
:10280C0000001110001002400000014000080140BF
:10281C00000C0140001001400004014080B485B060
:10282C0000AF78600B467B807B689A687B8813408E
:10283C00002B02D00123FB7301E00023FB73FB7B15
:10284C0018461437BD4680BC704780B483B000AFC7
:10285C0078600B467B8013467B707B78002B03D013
:10286C007A887B681A6103E07B881A047B681A619A
:10287C0000BF0C37BD4680BC7047000080B586B0E9
:10288C0000AF78607B68002B01D101236CE27B6880
:10289C001B6803F00103002B00F08780924B5B68F0
:1028AC0003F00C03042B0CD08F4B5B6803F00C0370
:1028BC00082B12D18C4B5B6803F48033B3F5803F4B
:1028CC000BD1894B1B6803F40033002B6CD07B6855
:1028DC005B68002B68D1012346E27B685B68B3F52B
:1028EC00803F06D1804B1B687F4A43F480331360D2
:1028FC002EE07B685B68002B0CD17B4B1B687A4A03
:10290C0023F480331360784B1B68774A23F48023BD
:10291C0013601DE07B685B68B3F5A02F0CD1724B84
:10292C001B68714A43F4802313606F4B1B686E4A1B
:10293C0043F4803313600BE06B4B1B686A4A23F43F
:10294C0080331360684B1B68674A23F48023136041
:10295C007B685B68002B13D0FFF7CEFC386108E076
:10296C00FFF7CAFC02463B69D31A642B01D9032337
:10297C00FAE15D4B1B6803F40033002BF0D014E03C
:10298C00FFF7BAFC386108E0FFF7B6FC02463B697A
:10299C00D31A642B01D90323E6E1534B1B6803F4D0
:1029AC000033002BF0D100E000BF7B681B6803F004
:1029BC000203002B63D04C4B5B6803F00C03002B21
:1029CC000BD0494B5B6803F00C03082B1CD1464B16
:1029DC005B6803F48033002B16D1434B1B6803F068
:1029EC000203002B05D07B681B69012B01D001234E
:1029FC00BAE13D4B1B6823F0F8027B685B69DB0096
:102A0C00394913430B603AE07B681B69002B20D0DB
:102A1C00364B01221A60FFF76FFC386108E0FFF7B4
:102A2C006BFC02463B69D31A022B01D903239BE1B1
:102A3C002D4B1B6803F00203002BF0D02A4B1B68B4
:102A4C0023F0F8027B685B69DB00274913430B60BA
:102A5C0015E0264B00221A60FFF74EFC386108E0A7
:102A6C00FFF74AFC02463B69D31A022B01D9032318
:102A7C007AE11D4B1B6803F00203002BF0D17B683D
:102A8C001B6803F00803002B3AD07B689B69002B72
:102A9C0019D0174B01221A60FFF72EFC386108E0A1
:102AAC00FFF72AFC02463B69D31A022B01D90323F8
:102ABC005AE10D4B5B6A03F00203002BF0D00120AE
:102ACC0000F09AFA1CE00A4B00221A60FFF714FC83
:102ADC0038610FE0FFF710FC02463B69D31A022B5A
:102AEC0008D9032340E100BF00100240000042421D
:102AFC00800442429E4B5B6A03F00203002BE9D137
:102B0C007B681B6803F00403002B00F0A6800023F5
:102B1C00FB75974BDB6903F08053002B0DD1944B65
:102B2C00DB69934A43F08053D361914BDB6903F02B
:102B3C008053BB60BB680123FB758E4B1B6803F491
:102B4C008073002B18D18B4B1B688A4A43F480731B
:102B5C001360FFF7D1FB386108E0FFF7CDFB0246AD
:102B6C003B69D31A642B01D90323FDE0814B1B680D
:102B7C0003F48073002BF0D07B68DB68012B06D14B
:102B8C007B4B1B6A7A4A43F0010313622DE07B688E
:102B9C00DB68002B0CD1764B1B6A754A23F00103C2
:102BAC001362734B1B6A724A23F0040313621CE01A
:102BBC007B68DB68052B0CD16D4B1B6A6C4A43F0B0
:102BCC00040313626A4B1B6A694A43F001031362E4
:102BDC000BE0674B1B6A664A23F001031362644BDC
:102BEC001B6A634A23F0040313627B68DB68002BC7
:102BFC0015D0FFF781FB38610AE0FFF77DFB024639
:102C0C003B69D31A41F28832934201D90323ABE0DA
:102C1C00574B1B6A03F00203002BEED014E0FFF7B6
:102C2C006BFB38610AE0FFF767FB02463B69D31A7E
:102C3C0041F28832934201D9032395E04C4B1B6A35
:102C4C0003F00203002BEED1FB7D012B05D1484B89
:102C5C00DB69474A23F08053D3617B68DB69002B27
:102C6C0000F08180424B5B6803F00C03082B61D0B1
:102C7C007B68DB69022B46D13F4B00221A60FFF7C1
:102C8C003BFB386108E0FFF737FB02463B69D31A80
:102C9C00022B01D9032367E0354B1B6803F000734B
:102CAC00002BF0D17B681B6AB3F5803F08D1304B09
:102CBC005B6823F400327B689B682D4913434B609F
:102CCC002B4B5B6823F474127B68196A7B685B6A14
:102CDC000B43274913434B60274B01221A60FFF724
:102CEC000BFB386108E0FFF707FB02463B69D31A80
:102CFC00022B01D9032337E01D4B1B6803F0007333
:102D0C00002BF0D02FE01C4B00221A60FFF7F4FAD6
:102D1C00386108E0FFF7F0FA02463B69D31A022B40
:102D2C0001D9032320E0124B1B6803F00073002B26
:102D3C00F0D118E07B68DB69012B01D1012313E092
:102D4C000B4B5B68FB60FB6803F480327B681B6A8F
:102D5C009A4206D1FB6803F470127B685B6A9A4254
:102D6C0001D0012300E0002318461837BD4680BD72
:102D7C0000100240007000406000424280B584B0F8
:102D8C0000AF786039607B68002B01D10123D0E063
:102D9C006A4B1B6803F007033A689A4210D9674BD9
:102DAC001B6823F0070265493B6813430B60634BB8
:102DBC001B6803F007033A689A4201D00123B8E07C
:102DCC007B681B6803F00203002B20D07B681B6818
:102DDC0003F00403002B05D0594B5B68584A43F4AD
:102DEC00E06353607B681B6803F00803002B05D07D
:102DFC00534B5B68524A43F460535360504B5B68CF
:102E0C0023F0F0027B689B684D4913434B607B6851
:102E1C001B6803F00103002B40D07B685B68012B1F
:102E2C0007D1474B1B6803F40033002B15D101234A
:102E3C007FE07B685B68022B07D1414B1B6803F07A
:102E4C000073002B09D1012373E03D4B1B6803F089
:102E5C000203002B01D101236BE0394B5B6823F09B
:102E6C0003027B685B68364913434B60FFF744FAF7
:102E7C00F8600AE0FFF740FA0246FB68D31A41F209
:102E8C008832934201D9032353E02D4B5B6803F046
:102E9C000C027B685B689B009A42EBD1274B1B684A
:102EAC0003F007033A689A4210D2244B1B6823F0B4
:102EBC00070222493B6813430B60204B1B6803F04D
:102ECC0007033A689A4201D0012332E07B681B6801
:102EDC0003F00403002B08D0194B5B6823F4E06269
:102EEC007B68DB68164913434B607B681B6803F0F7
:102EFC000803002B09D0124B5B6823F460527B68EB
:102F0C001B69DB000E4913434B6000F021F80246AD
:102F1C000B4B5B681B0903F00F030A49CB5C22FACD
:102F2C0003F3094A1360094B1B681846FFF7A2F913
:102F3C00002318461037BD4680BD00BF002002405C
:102F4C0000100240803800083000002034000020BF
:102F5C0080B487B000AF0023FB600023BB6000236C
:102F6C007B6100237B6000233B611E4B5B68FB6035
:102F7C00FB6803F00C03042B02D0082B03D027E0D2
:102F8C00194B3B6127E0FB689B0C03F00F03174ABE
:102F9C00D35C7B60FB6803F48033002B10D0114BA7
:102FAC005B685B0C03F00103114AD35CBB607B686C
:102FBC000D4A02FB03F2BB68B2FBF3F37B6104E046
:102FCC007B680C4A02FB03F37B617B693B6102E08B
:102FDC00054B3B6100BF3B6918461C37BD4680BCA6
:102FEC00704700BF0010024000127A0090380008B1
:102FFC00A038000800093D0080B485B000AF7860AF
:10300C000A4B1B680A4AA2FB03235B0A7A6802FB81
:10301C0003F3FB6000BFFB685A1EFA60002BF9D16A
:10302C0000BF00BF1437BD4680BC70473000002085
:10303C00D34D621080B582B000AF78607B68002BF6
:10304C0001D1012341E07B6893F83D30DBB2002BCA
:10305C0006D17B68002283F83C207868FFF772F871
:10306C007B68022283F83D207B681A687B680433F6
:10307C001946104600F06EFA7B68012283F8462050
:10308C007B68012283F83E207B68012283F83F2075
:10309C007B68012283F840207B68012283F8412061
:1030AC007B68012283F842207B68012283F843204D
:1030BC007B68012283F844207B68012283F8452039
:1030CC007B68012283F83D20002318460837BD4653
:1030DC0080BD000080B485B000AF78607B6893F849
:1030EC003D30DBB2012B01D0012335E07B6802229D
:1030FC0083F83D207B681B68DA687B681B6842F0AC
:10310C000102DA607B681B68164A934209D07B681F
:10311C001B68B3F1804F04D07B681B68124A934242
:10312C0011D17B681B689B6803F00703FB60FB688D
:10313C00062B10D07B681B681A687B681B6842F0F2
:10314C0001021A6007E07B681B681A687B681B68C1
:10315C0042F001021A60002318461437BD4680BCA9
:10316C00704700BF002C01400004004080B582B0C5
:10317C0000AF78607B681B681B6903F00203022BAD
:10318C0022D17B681B68DB6803F00203022B1BD186
:10319C007B681B686FF002021A617B6801221A7748
:1031AC007B681B689B6903F00303002B03D07868D2
:1031BC0000F0B4F905E0786800F0A7F9786800F041
:1031CC00B6F97B6800221A777B681B681B6903F0D1
:1031DC000403042B22D17B681B68DB6803F0040317
:1031EC00042B1BD17B681B686FF004021A617B688F
:1031FC0002221A777B681B689B6903F44073002BCF
:10320C0003D0786800F08AF905E0786800F07DF961
:10321C00786800F08CF97B6800221A777B681B6851
:10322C001B6903F00803082B22D17B681B68DB6841
:10323C0003F00803082B1BD17B681B686FF0080296
:10324C001A617B6804221A777B681B68DB6903F0C0
:10325C000303002B03D0786800F060F905E0786870
:10326C0000F053F9786800F062F97B6800221A7755
:10327C007B681B681B6903F01003102B22D17B6841
:10328C001B68DB6803F01003102B1BD17B681B68D9
:10329C006FF010021A617B6808221A777B681B6832
:1032AC00DB6903F44073002B03D0786800F036F927
:1032BC0005E0786800F029F9786800F038F97B6847
:1032CC0000221A777B681B681B6903F00103012B32
:1032DC000ED17B681B68DB6803F00103012B07D15F
:1032EC007B681B686FF001021A617868FEF724F99D
:1032FC007B681B681B6903F08003802B0ED17B68F5
:10330C001B68DB6803F08003802B07D17B681B688C
:10331C006FF080021A61786800F06BFA7B681B68AA
:10332C001B6903F04003402B0ED17B681B68DB68E4
:10333C0003F04003402B07D17B681B686FF0400201
:10334C001A61786800F0FCF87B681B681B6903F055
:10335C002003202B0ED17B681B68DB6803F0200355
:10336C00202B07D17B681B686FF020021A617868EC
:10337C0000F036FA00BF0837BD4680BD80B584B07A
:10338C0000AF786039600023FB737B6893F83C30A6
:10339C00012B01D10223B4E07B68012283F83C208D
:1033AC007B68022283F83D207B681B689B68BB60AE
:1033BC00BB6823F07703BB60BB6823F47F43BB601F
:1033CC007B681B68BA689A603B681B68B3F5005F42
:1033DC003ED0B3F5005F00F28780B3F5805F00F05C
:1033EC008680B3F5805F7FD8702B1AD0702B7BD87A
:1033FC00602B50D0602B77D8502B3CD0502B73D8EF
:10340C00402B58D0402B6FD8302B64D0302B6BD83E
:10341C00202B60D0202B67D8002B5CD0102B5AD0DF
:10342C0062E07B6818683B6899683B685A683B683F
:10343C00DB6800F05EF97B681B689B68BB60BB684F
:10344C0043F07703BB607B681B68BA689A604FE0F7
:10345C007B6818683B6899683B685A683B68DB680E
:10346C0000F047F97B681B689A687B681B6842F41C
:10347C0080429A603CE07B6818683B6859683B68FE
:10348C00DB681A4600F0BEF87B681B6850211846B2
:10349C0000F015F92CE07B6818683B6859683B68AC
:1034AC00DB681A4600F0DCF87B681B686021184664
:1034BC0000F005F91CE07B6818683B6859683B68AC
:1034CC00DB681A4600F09EF87B681B6840211846A2
:1034DC0000F0F5F80CE07B681A683B681B6819462D
:1034EC00104600F0ECF803E00123FB7300E000BF92
:1034FC007B68012283F83D207B68002283F83C2006
:10350C00FB7B18461037BD4680BD80B483B000AF3E
:10351C00786000BF0C37BD4680BC704780B483B068
:10352C0000AF786000BF0C37BD4680BC704780B4DC
:10353C0083B000AF786000BF0C37BD4680BC7047CD
:10354C0080B483B000AF786000BF0C37BD4680BC40
:10355C007047000080B485B000AF786039607B683C
:10356C001B68FB607B68254A934207D07B68B3F1EC
:10357C00804F03D07B68224A934208D1FB6823F02A
:10358C007003FB603B685B68FA681343FB607B6805
:10359C001A4A934207D07B68B3F1804F03D07B6803
:1035AC00174A934208D1FB6823F44073FB603B68D5
:1035BC00DB68FA681343FB60FB6823F080023B680E
:1035CC005B691343FB607B68FA681A603B689A6816
:1035DC007B68DA623B681A687B689A627B68074A88
:1035EC00934203D13B681A697B681A637B6801229A
:1035FC005A6100BF1437BD4680BC7047002C014097
:10360C000004004080B487B000AFF860B9607A6005
:10361C00FB681B6A7B61FB681B6A23F00102FB6879
:10362C001A62FB689B693B613B6923F0F0033B61C9
:10363C007B681B013A6913433B617B6923F00A03E6
:10364C007B617A69BB6813437B61FB683A699A6159
:10365C00FB687A691A6200BF1C37BD4680BC704794
:10366C0080B487B000AFF860B9607A60FB681B6A01
:10367C007B61FB681B6A23F01002FB681A62FB6813
:10368C009B693B613B6923F470433B617B681B0383
:10369C003A6913433B617B6923F0A0037B61BB68F0
:1036AC001B017A6913437B61FB683A699A61FB6879
:1036BC007A691A6200BF1C37BD4680BC704780B463
:1036CC0085B000AF786039607B689B68FB60FB68F5
:1036DC0023F07003FB603A68FB68134343F0070365
:1036EC00FB607B68FA689A6000BF1437BD4680BCEB
:1036FC00704780B487B000AFF860B9607A603B6007
:10370C00FB689B687B617B6923F47F437B613B682F
:10371C001A027B681A43BB6813437A6913437B61B3
:10372C00FB687A699A6000BF1C37BD4680BC704745
:10373C0080B485B000AF786039607B6893F83C301A
:10374C00012B01D1022341E07B68012283F83C204C
:10375C007B68022283F83D207B681B685B68FB60FA
:10376C007B681B689B68BB60FB6823F07003FB6085
:10377C003B681B68FA681343FB607B681B68FA683C
:10378C005A607B681B68144A934209D07B681B689B
:10379C00B3F1804F04D07B681B68104A93420CD164
:1037AC00BB6823F08003BB603B685B68BA6813435B
:1037BC00BB607B681B68BA689A607B68012283F8DF
:1037CC003D207B68002283F83C20002318461437E8
:1037DC00BD4680BC704700BF002C01400004004077
:1037EC0080B483B000AF786000BF0C37BD4680BC9E
:1037FC00704780B483B000AF786000BF0C37BD4613
:10380C0080BC704770B500260C4D0D4C641BA41089
:10381C00A64209D100F022F800260A4D0A4C641B7E
:10382C00A410A64205D170BD55F8043B984701364B
:10383C00EEE755F8043B98470136F2E7A438000848
:10384C00A4380008A4380008A8380008034602442D
:10385C00934200D1704703F8011BF9E7F8B500BF9C
:10386C00F8BC08BC9E467047F8B500BFF8BC08BC55
:04387C009E467047AD
:103880000000000000000000010203040607080910
:1038900002030405060708090A0B0C0D0E0F101091
:0438A0000102000021
:0438A40031010008E6
:0438A8000D01000806
:1038AC000100000001000000010000000100000008
:1038BC0001000000010000000100000001000000F8
:1038CC00C80000000000A040000040400000004084
:0C38DC000024F4001000000001000000B7
:0400000508002209C4
:00000001FF
