:020000040800F2
:10000000002800207D2400080D2400081324000887
:10001000192400081F2400082524000800000000FF
:100020000000000000000000000000002B24000879
:100030003724000800000000432400084F24000873
:10004000C5240008C5240008C5240008C5240008EC
:10005000C5240008C5240008C5240008C5240008DC
:10006000C5240008C5240008C5240008C5240008CC
:10007000C5240008C5240008C5240008C5240008BC
:10008000C5240008C5240008C5240008C5240008AC
:10009000C5240008C5240008C5240008C52400089C
:1000A000C5240008C5240008C5240008C52400088C
:1000B0005D240008C524000800000000C5240008D5
:1000C000C52400080000000000000000C52400084E
:1000D00000000000C5240008C5240008000000003E
:1000E000C5240008C5240008C5240008000000003D
:1000F0000000000000000000000000000000000000
:0C01000000000000000000005FF808F1A3
:10010C0010B5054C237833B9044B13B10448AFF345
:10011C0000800123237010BD40000020000000006F
:10012C00DC3A000808B5034B1BB103490348AFF395
:10013C00008008BD0000000044000020DC3A0008EC
:10014C0080F0004002E000BF81F0004142001FBF80
:10015C005FEA410392EA030F7FEA226C7FEA236C89
:10016C006AD04FEA1262D2EB1363C1BFD21841407E
:10017C0048404140B8BF5B42192B88BF704710F014
:10018C00004F40F4000020F07F4018BF404211F0B7
:10019C00004F41F4000121F07F4118BF494292EA1F
:1001AC00030F3FD0A2F1010241FA03FC10EB0C004B
:1001BC00C3F1200301FA03F100F0004302D54942D8
:1001CC0060EB4000B0F5000F13D3B0F1807F06D385
:1001DC0040084FEA310102F10102FE2A51D2B1F17D
:1001EC00004F40EBC25008BF20F0010040EA030072
:1001FC007047490040EB0000013A28BFB0F5000FF2
:10020C00EDD2B0FA80FCACF1080CB2EB0C0200FAA7
:10021C000CF0AABF00EBC25052421843BCBFD040F6
:10022C001843704792F0000F81F4000106BF80F470
:10023C0000000132013BB5E74FEA41037FEA226C33
:10024C0018BF7FEA236C21D092EA030F04D092F0FE
:10025C00000F08BF0846704790EA010F1CBF002032
:10026C00704712F07F4F04D1400028BF40F000408F
:10027C00704712F100723CBF00F50000704700F0AF
:10028C00004343F0FE4040F4000070477FEA2262D6
:10029C0016BF08467FEA23630146420206BF5FEAA7
:1002AC00412390EA010F40F4800070474FF00003A7
:1002BC0004E000BF10F0004348BF40425FEA000C6E
:1002CC0008BF704743F0964301464FF000001CE016
:1002DC0050EA010208BF70474FF000030AE000BF6C
:1002EC0050EA010208BF704711F0004302D54042AA
:1002FC0061EB41015FEA010C02BF8446014600201C
:10030C0043F0B64308BFA3F18053A3F50003BCFA36
:10031C008CF2083AA3EBC25310DB01FA02FC6344E3
:10032C0000FA02FCC2F12002BCF1004F20FA02F2EA
:10033C0043EB020008BF20F00100704702F12002DD
:10034C0001FA02FCC2F1200250EA4C0021FA02F23E
:10035C0043EB020008BF20EADC7070474FF0FF0C43
:10036C001CEAD0521EBF1CEAD15392EA0C0F93EA3E
:10037C000C0F6FD01A4480EA010C400218BF5FEAE0
:10038C0041211ED04FF0006343EA501043EA511153
:10039C00A0FB01310CF00040B1F5000F3EBF49004D
:1003AC0041EAD3715B0040EA010062F17F02FD2A51
:1003BC001DD8B3F1004F40EBC25008BF20F0010034
:1003CC00704790F0000F0CF0004C08BF49024CEA4B
:1003DC00502040EA51207F3AC2BFD2F1FF0340EADD
:1003EC00C250704740F400004FF00003013A5DDC4E
:1003FC0012F1190FDCBF00F000407047C2F100028F
:10040C00410021FA02F1C2F1200200FA02FC5FEA7B
:10041C00310040F1000053EA4C0308BF20EADC70C5
:10042C00704792F0000F00F0004C02BF400010F437
:10043C00000F013AF9D040EA0C0093F0000F01F0E4
:10044C00004C02BF490011F4000F013BF9D041EA06
:10045C000C018FE70CEAD15392EA0C0F18BF93EA08
:10046C000C0F0AD030F0004C18BF31F0004CD8D132
:10047C0080EA010000F00040704790F0000F17BFB9
:10048C0090F0004F084691F0000F91F0004F14D0FF
:10049C0092EA0C0F01D142020FD193EA0C0F03D157
:1004AC004B0218BF084608D180EA010000F000405A
:1004BC0040F0FE4040F40000704740F0FE4040F435
:1004CC00400070474FF0FF0C1CEAD0521EBF1CEAD4
:1004DC00D15392EA0C0F93EA0C0F69D0A2EB0302F2
:1004EC0080EA010C49024FEA402037D04FF080538C
:1004FC0043EA111143EA10130CF000408B4238BF51
:10050C005B0042F17D024FF4000C8B4224BF5B1A5E
:10051C0040EA0C00B3EB510F24BFA3EB510340EAAC
:10052C005C00B3EB910F24BFA3EB910340EA9C005A
:10053C00B3EBD10F24BFA3EBD10340EADC001B01CA
:10054C0018BF5FEA1C1CE0D1FD2A3FF650AF8B426E
:10055C0040EBC25008BF20F0010070470CF0004C7B
:10056C004CEA50207F32C2BFD2F1FF0340EAC250A6
:10057C00704740F400004FF00003013A37E792F067
:10058C00000F00F0004C02BF400010F4000F013AC5
:10059C00F9D040EA0C0093F0000F01F0004C02BFC0
:1005AC00490011F4000F013BF9D041EA0C0195E729
:1005BC000CEAD15392EA0C0F08D142027FF47DAFC2
:1005CC0093EA0C0F7FF470AF084676E793EA0C0FB2
:1005DC0004D14B023FF44CAF08466EE730F0004CB0
:1005EC0018BF31F0004CCAD130F000427FF45CAF40
:1005FC0031F000437FF43CAF5FE700BF4FF0FF3CAE
:10060C0006E000BF4FF0010C02E000BF4FF0010C00
:10061C004DF804CD4FEA40024FEA41037FEA226CC9
:10062C0018BF7FEA236C11D001B052EA530C18BFEB
:10063C0090EA010F58BFB2EB030088BFC81738BF50
:10064C006FEAE17018BF40F0010070477FEA226C3E
:10065C0002D15FEA402C05D17FEA236CE4D15FEA3A
:10066C00412CE1D05DF8040B704700BF844608466E
:10067C006146FFE70FB5FFF7C9FF002848BF10F12F
:10068C00000F0FBD4DF808EDFFF7F4FF0CBF012074
:10069C0000205DF808FB00BF4DF808EDFFF7EAFFFE
:1006AC0034BF012000205DF808FB00BF4DF808EDB9
:1006BC00FFF7E0FF94BF012000205DF808FB00BFAE
:1006CC004DF808EDFFF7D2FF94BF012000205DF834
:1006DC0008FB00BF4DF808EDFFF7C8FF34BF012041
:1006EC0000205DF808FB00BF4FEA4002B2F1FE4F5C
:1006FC000FD34FF09E03B3EB12620DD94FEA0023D8
:10070C0043F0004310F0004F23FA02F018BF4042B0
:10071C0070474FF00000704712F1610F01D1420297
:10072C0005D110F0004008BF6FF0004070474FF04B
:10073C000000704780B400AF034B01221A6000BF69
:10074C00BD4680BC704700BF5C00002080B400AF89
:10075C00034B01221A6000BFBD4680BC704700BF2E
:10076C006000002080B400AF064B1B68012B04D145
:10077C00044B00221A60012300E000231846BD46FA
:10078C0080BC70476000002080B400AF064B1B6833
:10079C00012B04D1044B00221A60012300E000233A
:1007AC001846BD4680BC70475C00002080B500AF89
:1007BC00224B1B68224A1360224B1B681F4A136092
:1007CC004FF40051204802F063F903461A461D4BC2
:1007DC001A601B4B1A68194B1B689A422BD1174B8A
:1007EC001A68184B1B689A4225D1184B1A68154B7E
:1007FC001B689A420DD0134B1B68144A1360114BA3
:10080C001B68002B17D1FFF795FF114BC8221A60FC
:10081C0011E00F4B1B68013B0D4A13600C4B1B681E
:10082C00002B08D1074B1B68002B04D1FFF782FF6C
:10083C00074BC8221A6000BF80BD00BF0400002017
:10084C000000002008000020000801400C000020DF
:10085C002000002080B500AF2E4B1B682E4A136081
:10086C002E4B1B682B4A13604FF480412C4802F02E
:10087C000FF903461A46294B1A60274B1A68254B69
:10088C001B689A4243D1234B1A68244B1B689A422B
:10089C003DD1244B1A68214B1B689A4219D01F4B2F
:1008AC001B68204A13601D4B1B68002B2FD1FFF7D0
:1008BC004DFF1D4B1B6801331B4A13601A4B1B6801
:1008CC00642B02D1184B00221A60184BC8221A60F4
:1008DC001DE0164B1B68013B144A1360134B1B683D
:1008EC00002B14D10D4B1B68002B10D1FFF72EFFE2
:1008FC000D4B1B6801330C4A13600B4B1B68642BAC
:10090C0002D1094B00221A60084BC8221A6000BFA2
:10091C0080BD00BF14000020100000201800002033
:10092C00000801401C00002068000020200000206E
:10093C0080B500AF714B1B68013B032B00F2D580D7
:10094C0001A252F823F000BF65090008AD090008A8
:10095C002B0A0008810A000801F01EFB674B0222DB
:10096C001A60674B1B6867491846FFF7F7FC03468C
:10097C001846FFF7B9FE0346184601F009FC624B16
:10098C001B6860491846FFF7E9FC03461846FFF759
:10099C00ABFE0346184601F00FFC01F021FAABE068
:1009AC0001F0C6F9594B1B68012B0FD101F02EFA3F
:1009BC00574B1B6853491846FFF7D0FC03461846A3
:1009CC00FFF792FE0346184601F0F6FB514B1B68ED
:1009DC00012B14D1494B03221A604B4B1B6849491C
:1009EC001846FFF7BBFC03461846FFF77DFE03468F
:1009FC00184601F0CDFB00F091F800F0ADF8FFF7D0
:100A0C00C3FE0346012B72D1434B00221A603B4BB1
:100A1C000D221A604FF47A7001F0BAFB67E001F016
:100A2C009DF901F0C7F93B4B1B68012B12D1334BDD
:100A3C0004221A60364B1B6832491846FFF78EFCAD
:100A4C0003461846FFF750FE0346184601F0A0FB7C
:100A5C0000F064F8FFF798FE0346012B49D12E4BAA
:100A6C0000221A60254B0D221A604FF47A7001F0A7
:100A7C008FFB3EE001F088F901F09CF9254B1B68D7
:100A8C00012B22D11D4B02221A601D4B1B681D49E4
:100A9C001846FFF763FC03461846FFF725FE03468E
:100AAC00184601F075FB184B1B6816491846FFF7E2
:100ABC0055FC03461846FFF717FE0346184601F08F
:100ACC007BFB01F08DF900F029F8FFF75DFE034682
:100ADC00012B10D1104B00221A60084B0D221A600A
:100AEC004FF47A7001F054FB05E000BF04E000BF46
:100AFC0002E000BF00E000BF00BF80BD640000202A
:100B0C00240000200000C84228000020940000208F
:100B1C002C0000208C0000206800002080B400AF66
:100B2C00074B1B68074A1360074B1B68074A136087
:100B3C00074B1B68074A136000BFBD4680BC70475B
:100B4C0024000020740000202800002078000020E1
:100B5C002C0000207C00002080B400AF074B1B68E9
:100B6C00074A1360074B1B68074A1360074B1B6847
:100B7C00074A136000BFBD4680BC704724000020AC
:100B8C008000002028000020840000202C00002081
:100B9C008800002098B500AF8B4B1B68013B032BE2
:100BAC0000F2088101A252F823F000BFC90B000823
:100BBC00D50B00087B0C00081F0D0008834B01228D
:100BCC001A60FFF7ABFFFCE0804B1B68012B1BD1BD
:100BDC007F4B1B68002B17D17D4B1C687D4B1B6812
:100BEC007D491846FFF76EFC03461846FFF77CFD5F
:100BFC0003461946204600F0EBFE754B01221A60A5
:100C0C00322001F0EDFAD7E0704B1B68012B40F05D
:100C1C00D3806F4B1B68012B40F0CE806C4B1C6853
:100C2C006C4B1B681846FFF75FFD01466B4B83FB53
:100C3C0001239A10CB17D21A13469B0013445B0066
:100C4C00CA1A1146204600F0C3FE624B1B684FF0D7
:100C5C007E511846FFF778FA03461A465D4B1A6028
:100C6C005B4B00221A60322001F0BAFAA4E0574B19
:100C7C001B68012B1BD1564B1B68002B17D1544BF7
:100C8C001C68574B1B6854491846FFF71BFC03465E
:100C9C001846FFF729FD03461946204600F098FE3A
:100CAC004B4B01221A60322001F09AFA86E0474B36
:100CBC001B68012B40F08280454B1B68012B7DD1BA
:100CCC00434B1C68464B1B681846FFF70DFD01464D
:100CDC00424B83FB01239A10CB17D21A13469B006D
:100CEC0013445B00CA1A1146204600F071FE3C4BBF
:100CFC001B684FF07E511846FFF726FA03461A463A
:100D0C00374B1A60324B00221A60322001F068FA1D
:100D1C0054E02E4B1B68012B1BD12D4B1B68002B59
:100D2C0017D12B4B1C682F4B1B682B491846FFF710
:100D3C00C9FB03461846FFF7D7FC03461946204665
:100D4C0000F046FE224B01221A60322001F048FAD4
:100D5C0036E01E4B1B68012B32D11D4B1B68012B3F
:100D6C002ED11B4B1C681F4B1B681846FFF7BCFC95
:100D7C0001461A4B83FB01239A10CB17D21A134648
:100D8C009B0013445B00CA1A1146204600F020FE5B
:100D9C00144B1B684FF07E511846FFF7D5F90346EC
:100DAC001A46104B1A600A4B00221A60322001F0CE
:100DBC0017FA05E000BF04E000BF02E000BF00E04E
:100DCC0000BF00BF98BD00BF640000209C00002045
:100DDC006C000020740000200000204167666666ED
:100DEC00780000207C00002098B500AF9D4B1B685C
:100DFC00013B032B00F2778101A252F823F000BFD4
:100E0C001D0E0008290E00088B0F00083110000879
:100E1C00954B01221A60FFF79FFE6BE1934B1B6809
:100E2C004FF000011846FFF737FC0346002B52D059
:100E3C008D4B1B68012B1BD18D4B1B68002B17D1C5
:100E4C008B4B1C688B4B1B688B491846FFF73AFB86
:100E5C0003461846FFF748FC03461946204600F0A7
:100E6C00BFFB834B01221A60322001F0CDF985E0E3
:100E7C007D4B1B68012B40F038817D4B1B68012B8F
:100E8C0040F033817A4B1C687A4B1B681846FFF78D
:100E9C002BFC0146794B83FB01239A10CB17D21AFA
:100EAC0013469B0013445B00CA1A1146204600F0FF
:100EBC0097FB704B1B684FF07E511846FFF744F9B7
:100ECC0003461A466B4B1A60694B00221A6032209B
:100EDC0001F09AF909E1644B1B68012B1BD1644B9F
:100EEC001B68002B17D1624B1C68604B1B68624956
:100EFC001846FFF7E7FA03461846FFF7F5FB0346DB
:100F0C001946204600F06CFB594B01221A60322026
:100F1C0001F07AF932E0544B1B68012B40F0E5806C
:100F2C00534B1B68012B40F0E080514B1C684F4B1E
:100F3C001B681846FFF7D8FB0146504B83FB012377
:100F4C009A10CB17D21A13469B0013445B00CA1A93
:100F5C001146204600F044FB444B1B684FF07E5179
:100F6C001846FFF7F1F803461A46404B1A60404BFF
:100F7C0000221A60322001F047F9B6E0B5E03A4B96
:100F8C001B68012B1BD13A4B1B68002B17D1384B1C
:100F9C001C683B4B1B6838491846FFF793FA03460D
:100FAC001846FFF7A1FB03461946204600F018FB34
:100FBC002F4B01221A60322001F026F997E02A4BC0
:100FCC001B68012B40F09380294B1B68012B40F0D0
:100FDC008E80274B1C682A4B1B681846FFF784FB36
:100FEC000146264B83FB01239A10CB17D21A1346CA
:100FFC009B0013445B00CA1A1146204600F0F0FA1D
:10100C001F4B1B684FF07E511846FFF79DF80346A7
:10101C001A461B4B1A60164B00221A60322001F044
:10102C00F3F864E0104B1B68012B2BD1104B1B68A1
:10103C00002B27D10E4B1C68114B1B680E49184610
:10104C00FFF740FA03461846FFF74EFB03461946D6
:10105C00204600F0C5FA064B01221A60322001F03E
:10106C00D3F846E064000020A40000208400002097
:10107C007000002088000020000020416766666632
:10108C00800000201C4B1B68012B32D11B4B1B68B2
:10109C00012B2ED1194B1C68194B1B681846FFF7F6
:1010AC0023FB0146174B83FB01239A10CB17D21A53
:1010BC0013469B0013445B00CA1A1146204600F0ED
:1010CC008FFA0F4B1B684FF07E511846FFF73CF818
:1010DC0003461A460A4B1A60084B00221A6032204B
:1010EC0001F092F805E000BF04E000BF02E000BF91
:1010FC0000E000BF00BF98BDA400002070000020DD
:10110C00800000206766666680B500AF914B1B6857
:10111C000D3B032B00F2128101A252F823F000BF09
:10112C003D1100089B1100082D120008BB1200088D
:10113C0000F032FF00F046FF012000F059FFFFF7EE
:10114C0023FB0346012B09D1834B00221A60814BF0
:10115C000E221A604FF4FA7001F01AF87F4B1B68DC
:10116C00012B40F0ED807B4B02221A60FFF7D6FC7E
:10117C007B4B1B687B491846FFF7F0F80346184673
:10118C00FFF7B2FA0346184601F002F8D8E000F077
:10119C00CFFD00F00FFE022000F02AFF6F4B1B6802
:1011AC00012B12D16B4B02221A60FFF7B7FC6C4B70
:1011BC001B686C491846FFF7D1F803461846FFF731
:1011CC0093FA0346184600F0E3FFFFF7DDFA0346F7
:1011DC00012B09D1604B00221A605E4B0F221A6062
:1011EC004FF4FA7000F0D4FFFFF7BCFA0346012B62
:1011FC0040F0A880584B1B68184600F01DFEC82014
:10120C0000F0C6FF554B1B68012B40F09B80514BE7
:10121C0002221A60FFF782FC4F4B00221A6091E009
:10122C0000F09CFD00F0DCFD032000F0E1FE4B4BD8
:10123C001B68012B12D1474B03221A60FFF76EFC7F
:10124C00494B1B6847491846FFF788F80346184670
:10125C00FFF74AFA0346184600F09AFFFFF794FA94
:10126C000346012B09D13C4B00221A60394B10224A
:10127C001A604FF4FA7000F08BFFFFF773FA034615
:10128C00012B61D1344B1B68184600F04BFEC82073
:10129C0000F07EFF314B1B68012B55D12D4B0222E8
:1012AC001A60FFF73BFC2C4B00221A604CE000F05C
:1012BC006BFD00F0ABFD042000F09AFE274B1B6881
:1012CC00012B12D1234B04221A60FFF727FC274B6A
:1012DC001B6824491846FFF741F803461846FFF7E8
:1012EC0003FA0346184600F053FFFFF74DFA034686
:1012FC00012B09D1184B00221A60164B0D221A60D3
:10130C004FF4FA7000F044FFFFF72CFA0346012B60
:10131C001CD1114B1B68184600F0C8FDC82000F00A
:10132C0037FF0E4B1B68012B10D10A4B02221A609F
:10133C00FFF7F4FB084B00221A6007E000BF06E041
:10134C0000BF04E000BF02E000BF00E000BF00BF30
:10135C0080BD00BF64000020680000208C000020CD
:10136C00240000200000C842280000202C0000208F
:10137C0080B500AF01F0A2F800F018F800F09EF86C
:10138C0000F050F8074801F0DFFF074B01221A600C
:10139C00FFF700FCFFF728FDFFF7CAFAFFF7B4FED2
:1013AC00F6E700BFB80000206400002080B590B0C4
:1013BC0000AF07F1180328220021184602F080FB29
:1013CC003B1D00221A605A609A60DA601A6102238F
:1013DC00BB610123BB621023FB6200237B6307F11B
:1013EC001803184601F084FB0346002B01D000F0D3
:1013FC00F1F80F237B600023BB600023FB6000230C
:10140C003B6100237B613B1D0021184601F0F0FD80
:10141C000346002B01D000F0DDF800BF4037BD467D
:10142C0080BD000080B586B000AF07F10803002234
:10143C001A605A609A60DA603B4600221A605A6061
:10144C001D4B4FF080421A601B4B41F63F725A60A5
:10145C00194B00229A60184B0922DA60164B0022B5
:10146C001A61154B00229A61134801F01DFF0346C7
:10147C00002B01D000F0AEF84FF48053BB6007F1A5
:10148C00080319460C4802F0B3F80346002B01D0B0
:10149C0000F0A0F800233B6000237B603B4619461C
:1014AC00054802F07FFA0346002B01D000F092F8B9
:1014BC0000BF1837BD4680BDB800002080B588B08D
:1014CC0000AF07F1100300221A605A609A60DA60CC
:1014DC00354B9B69344A43F010039361324B9B6943
:1014EC0003F01003FB60FB682F4B9B692E4A43F003
:1014FC00040393612C4B9B6903F00403BB60BB6832
:10150C00294B9B69284A43F008039361264B9B693E
:10151C0003F008037B607B68002241F6F8712348D6
:10152C0001F0CDFA00224FF67F61214801F0C7FA95
:10153C004FF400533B6100237B610123BB6107F136
:10154C00100319461B4801F029F941F6F8733B6169
:10155C0001237B610023BB610223FB6107F11003B4
:10156C001946124801F01AF94FF67F633B610123CB
:10157C007B610023BB610223FB6107F11003194659
:10158C000B4801F00BF94FF4C0433B6100237B6126
:10159C000123BB6107F110031946044801F0FEF862
:1015AC0000BF2037BD4680BD00100240000801403E
:1015BC00000C01400010014080B582B000AF786093
:1015CC0000F04AFEFFF7F2F8FFF744F900BF0837C6
:1015DC00BD4680BD80B400AF72B600BFFEE7000010
:1015EC0080B582B000AF786039607B68002B0BD17E
:1015FC0000224FF48061C54801F061FA01224FF4DA
:10160C008051C24801F05BFA7B68012B0BD101229F
:10161C004FF48061BD4801F052FA00224FF4805122
:10162C00BA4801F04CFA3B68092B00F2C98101A2BF
:10163C0052F823F069160008BF16000815170008A9
:10164C006B170008C1170008171800086D18000860
:10165C00C3180008211900087719000800224FF45C
:10166C000071AB4801F02BFA00224FF48061A848BE
:10167C0001F025FA00224FF40061A54801F01FFA91
:10168C0000224FF48051A24801F019FA00224FF4C5
:10169C0000519F4801F013FA00224FF480419C48FE
:1016AC0001F00DFA01224FF40041994801F007FABC
:1016BC0087E101224FF40071954801F000FA0022F5
:1016CC004FF48061924801F0FAF900224FF4006166
:1016DC008F4801F0F4F901224FF480518C4801F04D
:1016EC00EEF901224FF40051894801F0E8F901228A
:1016FC004FF48041864801F0E2F901224FF4004199
:10170C00834801F0DCF95CE100224FF40071804861
:10171C0001F0D5F900224FF480617D4801F0CFF93A
:10172C0001224FF400617A4801F0C9F900224FF40C
:10173C008051774801F0C3F900224FF400517448EE
:10174C0001F0BDF901224FF48041714801F0B7F965
:10175C0000224FF400416E4801F0B1F931E1002252
:10176C004FF400716A4801F0AAF900224FF480612D
:10177C00674801F0A4F900224FF40061644801F0BD
:10178C009EF900224FF48051614801F098F9012232
:10179C004FF400515E4801F092F901224FF4804160
:1017AC005B4801F08CF900224FF40041584801F0DD
:1017BC0086F906E101224FF40071554801F07FF9DA
:1017CC0000224FF48061524801F079F900224FF465
:1017DC0000614F4801F073F901224FF480514C48DD
:1017EC0001F06DF901224FF40051494801F067F9FD
:1017FC0000224FF48041464801F061F900224FF479
:10180C000041434801F05BF9DBE000224FF400712A
:10181C003F4801F054F901224FF480613C4801F03B
:10182C004EF900224FF40061394801F048F90022CA
:10183C004FF48051364801F042F901224FF4005127
:10184C00334801F03CF900224FF48041304801F05C
:10185C0036F900224FF400412D4801F030F9B0E088
:10186C0000224FF400712A4801F029F901224FF4AB
:10187C008061274801F023F900224FF400612448CD
:10188C0001F01DF900224FF48051214801F017F9A5
:10189C0000224FF400511E4801F011F900224FF4C0
:1018AC0080411B4801F00BF900224FF4004118480D
:1018BC0001F005F985E000224FF40071144801F0A5
:1018CC00FEF800224FF48061114801F0F8F8002274
:1018DC004FF400610E4801F0F2F801224FF48051F0
:1018EC000B4801F0ECF801224FF40051084801F0CC
:1018FC00E6F801224FF48041054801F0E0F801229E
:10190C004FF40041024801F0DAF85AE000080140B7
:10191C00000C014000224FF400712C4801F0CFF86C
:10192C0000224FF48061294801F0C9F800224FF4DD
:10193C000061264801F0C3F800224FF4805123487F
:10194C0001F0BDF800224FF40051204801F0B7F827
:10195C0000224FF480411D4801F0B1F800224FF4F1
:10196C0000411A4801F0ABF82BE000224FF4007153
:10197C00164801F0A4F800224FF48061134801F0DE
:10198C009EF800224FF40061104801F098F80022F4
:10199C004FF480510D4801F092F801224FF40051A0
:1019AC000A4801F08CF800224FF48041074801F0FE
:1019BC0086F800224FF40041044801F080F800E062
:1019CC0000BF00BF0837BD4680BD00BF000C014002
:1019DC0080B582B000AF786039607B68002B0BD18A
:1019EC0000224FF40071D04801F069F801224FF445
:1019FC000061CD4801F063F87B68012B0BD101220B
:101A0C004FF40071C84801F05AF800224FF40061FD
:101A1C00C54801F054F83B68092B00F27F8101A204
:101A2C0052F823F0591A0008A11A0008E91A000804
:101A3C00311B0008791B0008C11B0008091C000899
:101A4C00511C0008991C0008E11C0008002201210F
:101A5C00B64801F034F800220221B44801F02FF806
:101A6C0000220421B14801F02AF800220821AF48D5
:101A7C0001F025F800221021AC4801F020F80022DA
:101A8C002021AA4801F01BF801224021A74801F0AF
:101A9C0016F844E101220121A44801F010F80022BB
:101AAC000221A24801F00BF8002204219F4801F00A
:101ABC0006F8012208219D4801F001F801221021AD
:101ACC009A4800F0FCFF01222021984800F0F7FF13
:101ADC0001224021954800F0F2FF20E10022012173
:101AEC00924800F0ECFF00220221904800F0E7FF42
:101AFC00012204218D4800F0E2FF002208218B48CE
:101B0C0000F0DDFF00221021884800F0D8FF0122F0
:101B1C002021864800F0D3FF00224021834800F0AA
:101B2C00CEFFFCE000220121804800F0C8FF00221B
:101B3C0002217E4800F0C3FF002204217B4800F004
:101B4C00BEFF00220821794800F0B9FF01221021C4
:101B5C00764800F0B4FF01222021744800F0AFFF5A
:101B6C0000224021714800F0AAFFD8E00122012197
:101B7C006E4800F0A4FF002202216C4800F09FFF89
:101B8C0000220421694800F09AFF012208216748CD
:101B9C0000F095FF01221021644800F090FF002214
:101BAC002021624800F08BFF002240215F4800F0AA
:101BBC0086FFB4E0002201215C4800F080FF012286
:101BCC0002215A4800F07BFF00220421574800F004
:101BDC0076FF00220821554800F071FF01221021E8
:101BEC00524800F06CFF00222021504800F067FFA3
:101BFC00002240214D4800F062FF90E000220121BC
:101C0C004A4800F05CFF01220221484800F057FFCF
:101C1C0000220421454800F052FF002208214348CD
:101C2C0000F04DFF00221021404800F048FF002238
:101C3C0020213E4800F043FF002240213B4800F0A9
:101C4C003EFF6CE000220121384800F038FF0022F2
:101C5C000221364800F033FF00220421334800F003
:101C6C002EFF01220821314800F029FF012210210A
:101C7C002E4800F024FF012220212C4800F01FFFE9
:101C8C0001224021294800F01AFF48E000220121DE
:101C9C00264800F014FF00220221244800F00FFF18
:101CAC0000220421214800F00AFF002208211F48CD
:101CBC0000F005FF002210211C4800F000FF00225C
:101CCC0020211A4800F0FBFE00224021174800F0AA
:101CDC00F6FE24E000220121144800F0F0FE002260
:101CEC000221124800F0EBFE002204210F4800F004
:101CFC00E6FE002208210D4800F0E1FE0122102131
:101D0C000A4800F0DCFE00222021084800F0D7FE33
:101D1C0000224021054800F0D2FE00E000BF00BFC9
:101D2C000837BD4680BD00BF00080140000C0140D3
:101D3C0080B500AF01222021074800F0C0FE002230
:101D4C008021054800F0BBFE00224021024800F033
:101D5C00B6FE00BF80BD00BF0008014080B500AFDB
:101D6C0000222021074800F0AAFE0122802105480C
:101D7C0000F0A5FE00224021024800F0A0FE00BFAA
:101D8C0080BD00BF0008014080B500AF00222021BB
:101D9C00074800F094FE00228021054800F08FFED9
:101DAC0001224021024800F08AFE00BF80BD00BF26
:101DBC000008014080B500AF01220821074800F05F
:101DCC007EFE00224FF48071044800F078FE002261
:101DDC001021024800F073FE00BF80BD00080140D6
:101DEC0080B500AF00220821074800F068FE0122F0
:101DFC004FF48071044800F062FE0022102102486A
:101E0C0000F05DFE00BF80BD0008014080B500AF52
:101E1C0000220821074800F052FE00224FF4807186
:101E2C00044800F04CFE01221021024800F047FE4D
:101E3C0000BF80BD0008014080B582B000AF786063
:101E4C007868FEF737FA034613491846FEF73AFB53
:101E5C00034619461846FEF779F903461A460F4B06
:101E6C001A607868FEF726FA03460B491846FEF707
:101E7C0029FB03460A491846FEF770FA03461A4630
:101E8C00084B1A607868FEF715FA0346064A136089
:101E9C0000BF0837BD4680BD0000A0402C000020CC
:101EAC0000004040280000202400002080B582B0B3
:101EBC0000AF78607868FEF7FDF903464FF080417B
:101ECC001846FEF7FFFA034611491846FEF746FA84
:101EDC0003461A460F4B1A607868FEF7EBF9034677
:101EEC004FF080411846FEF7EDFA03460A491846B2
:101EFC00FEF734FA03461A46084B1A607868FEF768
:101F0C00D9F90346064A136000BF0837BD4680BDA9
:101F1C000000A040240000200000404028000020C9
:101F2C002C00002080B582B000AF78607868FEF796
:101F3C00C1F9034613491846FEF7C4FA0346124981
:101F4C001846FEF70BFA03461A46104B1A607868CF
:101F5C00FEF7B0F903460B491846FEF7B3FA0346F1
:101F6C0019461846FEF7F2F803461A46084B1A6053
:101F7C007868FEF79FF90346064A136000BF0837DE
:101F8C00BD4680BD000040400000A0402400002061
:101F9C002C0000202800002080B500AF002220215A
:101FAC00074800F08CFD00228021054800F087FDD9
:101FBC0000224021024800F082FD00BF80BD00BF1E
:101FCC000008014080B500AF00220821074800F04E
:101FDC0076FD00224FF48071044800F070FD002261
:101FEC001021024800F06BFD00BF80BD00080140CD
:101FFC0080B582B000AF78607B68013B032B00F2A8
:10200C00B58001A252F823F0252000087D2000089D
:10201C00D1200008252100085B4B1B68012B10D137
:10202C005A4B1B68002B0CD1584B1B6800211846CF
:10203C00FFF7CEFC554B01221A60322000F0F8F865
:10204C0096E0514B1B68012B40F092804F4B1B6864
:10205C00012B40F08D804D4B1B6801211846FFF77A
:10206C00B7FC4A4B00221A60322000F0E1F87FE006
:10207C00454B1B68012B10D1444B1B68002B0CD11A
:10208C00424B1B6800211846FFF7A2FC3F4B012274
:10209C001A60322000F0CCF86CE03B4B1B68012B33
:1020AC0068D13A4B1B68012B64D1384B1B68022159
:1020BC001846FFF78DFC354B00221A60322000F0D9
:1020CC00B7F857E0304B1B68012B10D12F4B1B6816
:1020DC00002B0CD12D4B1B6800211846FFF778FC08
:1020EC002A4B01221A60322000F0A2F844E0264B61
:1020FC001B68012B40D1254B1B68012B3CD1234B7A
:10210C001B6803211846FFF763FC204B00221A6062
:10211C00322000F08DF82FE01B4B1B68012B10D1E7
:10212C001A4B1B68002B0CD1184B1B68002118464E
:10213C00FFF74EFC154B01221A60322000F078F8A4
:10214C001CE0114B1B68012B18D1104B1B68012B89
:10215C0014D10E4B1B6804211846FFF739FC0B4BAE
:10216C0000221A60322000F063F807E000BF06E09E
:10217C0000BF04E000BF02E000BF00E000BF00BFF2
:10218C000837BD4680BD00BF300000206C00002029
:10219C0080B483B000AF7860054A7B681360054B50
:1021AC0000221A6000BF0C37BD4680BC704700BFD0
:1021BC00900000208C00002080B483B000AF7860C9
:1021CC00054A7B681360054B00221A6000BF0C3770
:1021DC00BD4680BC704700BF9800002094000020D2
:1021EC0080B483B000AF7860054A7B681360054B00
:1021FC0000221A6000BF0C37BD4680BC704700BF80
:10220C00A00000209C00002080B483B000AF786058
:10221C00054A7B681360054B00221A6000BF0C371F
:10222C00BD4680BC704700BFA8000020A400002061
:10223C0080B483B000AF7860054A7B681360054BAF
:10224C0000221A6000BF0C37BD4680BC704700BF2F
:10225C00AC0000203000002080B400AF314B1B6874
:10226C00002B0BDD2F4B1B68013B2E4A13602D4BB3
:10227C001B68002B02DC2C4B01221A602B4B1B68B9
:10228C00002B0BDD294B1B68013B284A1360274BA5
:10229C001B68002B02DC264B01221A60254B1B68A5
:1022AC00002B0BDD234B1B68013B224A1360214B97
:1022BC001B68002B02DC204B01221A601F4B1B6891
:1022CC00002B0BDD1D4B1B68013B1C4A13601B4B89
:1022DC001B68002B02DC1A4B01221A60194B1B687D
:1022EC00002B0BDD174B1B68013B164A1360154B7B
:1022FC001B68002B02DC144B01221A60134B1B6869
:10230C00002B0BDD114B1B68013B104A13600F4B6C
:10231C001B68002B02DC0E4B01221A6000BFBD466D
:10232C0080BC7047900000208C000020980000209A
:10233C0094000020A00000209C000020A800002099
:10234C00A4000020AC00002030000020B4000020CD
:10235C00B000002080B485B000AF154B9B69144AC7
:10236C0043F001039361124B9B6903F00103BB60C3
:10237C00BB680F4BDB690E4A43F08053D3610C4BA7
:10238C00DB6903F080537B607B680A4B5B68FB6006
:10239C00FB6823F0E063FB60FB6843F08063FB6049
:1023AC00044AFB68536000BF1437BD4680BC7047BD
:1023BC00001002400000014080B584B000AF78608E
:1023CC007B681B68B3F1804F13D10C4BDB690B4A54
:1023DC0043F00103D361094BDB6903F00103FB609C
:1023EC00FB68002200211C2000F0A1F91C2000F049
:1023FC00BAF900BF1037BD4680BD00BF00100240C7
:10240C0080B400AFFEE780B400AFFEE780B400AF4D
:10241C00FEE780B400AFFEE780B400AFFEE780B407
:10242C0000AF00BFBD4680BC704780B400AF00BF9A
:10243C00BD4680BC704780B400AF00BFBD4680BCB9
:10244C00704780B500AF00F07FF800BF80BD000082
:10245C0080B500AF024800F0C3FF00BF80BD00BFD5
:10246C00B800002080B400AF00BFBD4680BC7047F0
:10247C00FFF7F8FF0B480C490C4A002302E0D45834
:10248C00C4500433C4188C42F9D3094A094C0023B4
:10249C0001E013600432A242FBD301F0EDFAFEF727
:1024AC0067FF70470000002040000020203B000820
:1024BC004000002004010020FEE7000080B500AFC2
:1024CC00084B1B68074A43F010031360032000F00D
:1024DC0023F90F2000F008F8FFF73CFF0023184603
:1024EC0080BD00BF0020024080B582B000AF786094
:1024FC00124B1A68124B1B7819464FF47A73B3FBC4
:10250C00F1F3B2FBF3F3184600F03BF90346002B52
:10251C0001D001230EE07B680F2B0AD800227968CA
:10252C004FF0FF3000F003F9064A7B68136000237C
:10253C0000E0012318460837BD4680BD340000205A
:10254C003C0000203800002080B400AF054B1B7805
:10255C001A46054B1B681344034A136000BFBD4663
:10256C0080BC70473C0000200001002080B400AF0C
:10257C00024B1B681846BD4680BC7047000100200A
:10258C0080B485B000AF78607B6803F00703FB6014
:10259C000C4BDB68BB60BA684FF6FF031340BB60A3
:1025AC00FB681A02BB68134343F0BF6343F4003368
:1025BC00BB60044ABB68D36000BF1437BD4680BC07
:1025CC00704700BF00ED00E080B400AF044BDB6847
:1025DC001B0A03F007031846BD4680BC704700BFBA
:1025EC0000ED00E080B483B000AF0346FB7197F9B7
:1025FC000730002B0BDBFB7903F01F02064997F920
:10260C0007305B09012000FA02F241F8232000BFD9
:10261C000C37BD4680BC704700E100E080B483B04D
:10262C0000AF03463960FB7197F90730002B0ADBCA
:10263C003B68DAB20C4997F907301201D2B20B445D
:10264C0083F800230AE03B68DAB20849FB7903F00F
:10265C000F03043B1201D2B20B441A7600BF0C37A5
:10266C00BD4680BC704700BF00E100E000ED00E01B
:10267C0080B489B000AFF860B9607A60FB6803F091
:10268C000703FB61FB69C3F10703042B28BF042379
:10269C00BB61FB690433062B02D9FB69033B00E0E9
:1026AC0000237B614FF0FF32BB6902FA03F3DA437C
:1026BC00BB681A407B699A404FF0FF317B6901FA85
:1026CC0003F3D9437B680B40134318462437BD46AC
:1026DC0080BC704780B582B000AF78607B68013BEE
:1026EC00B3F1807F01D301230FE00A4A7B68013BE1
:1026FC0053600F214FF0FF30FFF790FF054B002286
:10270C009A60044B07221A60002318460837BD460E
:10271C0080BD00BF10E000E080B582B000AF7860F3
:10272C007868FFF72DFF00BF0837BD4680BD80B528
:10273C0086B000AF0346B9607A60FB7300237B61FF
:10274C00FFF742FF78617A68B9687869FFF790FF04
:10275C00024697F90F3011461846FFF75FFF00BF8E
:10276C001837BD4680BD80B582B000AF0346FB7103
:10277C0097F907301846FFF735FF00BF0837BD46FD
:10278C0080BD80B582B000AF78607868FFF7A2FF9B
:10279C00034618460837BD4680BD000080B48BB098
:1027AC0000AF7860396000237B6200233B6248E114
:1027BC0001227B6A02FA03F3FB613B681B68FA692E
:1027CC001340BB61BA69FB699A4240F037813B68A0
:1027DC005B68A34A93425ED0A14A934275D8A14A42
:1027EC00934258D09F4A93426FD89F4A934252D0FB
:1027FC009D4A934269D89D4A93424CD09B4A93423E
:10280C0063D89B4A934246D0994A93425DD8122B87
:10281C002AD8122B59D801A252F823F0A328000869
:10282C007D2800088F280008D1280008D728000828
:10283C00D7280008D7280008D7280008D728000870
:10284C00D7280008D7280008D7280008D728000860
:10285C00D7280008D7280008D7280008D728000850
:10286C008528000899280008824A934213D02CE04E
:10287C003B68DB683B6229E03B68DB6804333B6206
:10288C0024E03B68DB6808333B621FE03B68DB6895
:10289C000C333B621AE03B689B68002B02D104238B
:1028AC003B6213E03B689B68012B05D108233B621C
:1028BC007B68FA691A6109E008233B627B68FA6954
:1028CC005A6103E000233B6200E000BFBB69FF2BB1
:1028DC0001D87B6801E07B6804337B61BB69FF2B0B
:1028EC0002D87B6A9B0002E07B6A083B9B003B6141
:1028FC007B691A680F213B6901FA03F3DB431A4029
:10290C00396A3B6901FA03F31A437B691A603B6825
:10291C005B6803F08053002B00F09080564B9B6952
:10292C00554A43F001039361534B9B6903F0010338
:10293C00BB60BB68514A7B6A9B08023352F8233058
:10294C00FB607B6A03F003039B000F2202FA03F384
:10295C00DB43FA681340FB607B68494A93420DD015
:10296C007B68484A934207D07B68474A934201D11F
:10297C00022304E0032302E0012300E000237A6A2F
:10298C0002F0030292009340FA681343FB603B4948
:10299C007B6A9B080233FA6841F823203B685B682A
:1029AC0003F48013002B06D0384B9A683749BB6967
:1029BC0013438B6006E0354B9A68BB69DB433349A4
:1029CC0013408B603B685B6803F40013002B06D04C
:1029DC002E4BDA682D49BB691343CB6006E02B4BB9
:1029EC00DA68BB69DB4329491340CB603B685B6801
:1029FC0003F40033002B06D0244B5A682349BB69DF
:102A0C0013434B6006E0214B5A68BB69DB431F49FB
:102A1C0013404B603B685B6803F48033002B06D09B
:102A2C001A4B1A681949BB6913430B6006E0174B24
:102A3C001A68BB69DB43154913400B607B6A013391
:102A4C007B623B681A687B6A22FA03F3002B7FF4E3
:102A5C00AFAE00BF00BF2C37BD4680BC704700BF77
:102A6C000000321000003110000022100000211074
:102A7C000000121000001110001002400000014074
:102A8C0000080140000C014000100140000401400E
:102A9C0080B485B000AF78600B467B807B689A6809
:102AAC007B881340002B02D00123FB7301E0002331
:102ABC00FB73FB7B18461437BD4680BC704780B453
:102ACC0083B000AF78600B467B8013467B707B78BD
:102ADC00002B03D07A887B681A6103E07B881A0488
:102AEC007B681A6100BF0C37BD4680BC7047000084
:102AFC0080B586B000AF78607B68002B01D10123D4
:102B0C006CE27B681B6803F00103002B00F08780EC
:102B1C00924B5B6803F00C03042B0CD08F4B5B685F
:102B2C0003F00C03082B12D18C4B5B6803F480333D
:102B3C00B3F5803F0BD1894B1B6803F40033002B9A
:102B4C006CD07B685B68002B68D1012346E27B6804
:102B5C005B68B3F5803F06D1804B1B687F4A43F41A
:102B6C00803313602EE07B685B68002B0CD17B4BB1
:102B7C001B687A4A23F480331360784B1B68774ABE
:102B8C0023F4802313601DE07B685B68B3F5A02FF2
:102B9C000CD1724B1B68714A43F4802313606F4B4A
:102BAC001B686E4A43F4803313600BE06B4B1B685D
:102BBC006A4A23F480331360684B1B68674A23F41A
:102BCC00802313607B685B68002B13D0FFF7CEFC6F
:102BDC00386108E0FFF7CAFC02463B69D31A642B44
:102BEC0001D90323FAE15D4B1B6803F40033002B7E
:102BFC00F0D014E0FFF7BAFC386108E0FFF7B6FC40
:102C0C0002463B69D31A642B01D90323E6E1534BEB
:102C1C001B6803F40033002BF0D100E000BF7B688D
:102C2C001B6803F00203002B63D04C4B5B6803F072
:102C3C000C03002B0BD0494B5B6803F00C03082BE7
:102C4C001CD1464B5B6803F48033002B16D1434BED
:102C5C001B6803F00203002B05D07B681B69012B5A
:102C6C0001D00123BAE13D4B1B6823F0F8027B68CD
:102C7C005B69DB00394913430B603AE07B681B69E5
:102C8C00002B20D0364B01221A60FFF76FFC386105
:102C9C0008E0FFF76BFC02463B69D31A022B01D903
:102CAC0003239BE12D4B1B6803F00203002BF0D098
:102CBC002A4B1B6823F0F8027B685B69DB00274911
:102CCC0013430B6015E0264B00221A60FFF74EFCF5
:102CDC00386108E0FFF74AFC02463B69D31A022B25
:102CEC0001D903237AE11D4B1B6803F00203002B6F
:102CFC00F0D17B681B6803F00803002B3AD07B688B
:102D0C009B69002B19D0174B01221A60FFF72EFC80
:102D1C00386108E0FFF72AFC02463B69D31A022B04
:102D2C0001D903235AE10D4B5B6A03F00203002B1C
:102D3C00F0D0012000F09AFA1CE00A4B00221A6035
:102D4C00FFF714FC38610FE0FFF710FC02463B69FB
:102D5C00D31A022B08D9032340E100BF0010024014
:102D6C0000004242800442429E4B5B6A03F0020325
:102D7C00002BE9D17B681B6803F00403002B00F0E7
:102D8C00A6800023FB75974BDB6903F08053002B67
:102D9C000DD1944BDB69934A43F08053D361914B33
:102DAC00DB6903F08053BB60BB680123FB758E4B62
:102DBC001B6803F48073002B18D18B4B1B688A4A59
:102DCC0043F480731360FFF7D1FB386108E0FFF721
:102DDC00CDFB02463B69D31A642B01D90323FDE0DA
:102DEC00814B1B6803F48073002BF0D07B68DB688D
:102DFC00012B06D17B4B1B6A7A4A43F00103136209
:102E0C002DE07B68DB68002B0CD1764B1B6A754A76
:102E1C0023F001031362734B1B6A724A23F0040301
:102E2C0013621CE07B68DB68052B0CD16D4B1B6AB5
:102E3C006C4A43F0040313626A4B1B6A694A43F001
:102E4C00010313620BE0674B1B6A664A23F0010314
:102E5C001362644B1B6A634A23F0040313627B689E
:102E6C00DB68002B15D0FFF781FB38610AE0FFF718
:102E7C007DFB02463B69D31A41F28832934201D959
:102E8C000323ABE0574B1B6A03F00203002BEED07D
:102E9C0014E0FFF76BFB38610AE0FFF767FB0246B3
:102EAC003B69D31A41F28832934201D9032395E04E
:102EBC004C4B1B6A03F00203002BEED1FB7D012B64
:102ECC0005D1484BDB69474A23F08053D3617B68BB
:102EDC00DB69002B00F08180424B5B6803F00C0334
:102EEC00082B61D07B68DB69022B46D13F4B00225B
:102EFC001A60FFF73BFB386108E0FFF737FB02462F
:102F0C003B69D31A022B01D9032367E0354B1B68AD
:102F1C0003F00073002BF0D17B681B6AB3F5803F84
:102F2C0008D1304B5B6823F400327B689B682D49D9
:102F3C0013434B602B4B5B6823F474127B68196A48
:102F4C007B685B6A0B43274913434B60274B012279
:102F5C001A60FFF70BFB386108E0FFF707FB02462E
:102F6C003B69D31A022B01D9032337E01D4B1B6895
:102F7C0003F00073002BF0D02FE01C4B00221A60E2
:102F8C00FFF7F4FA386108E0FFF7F0FA02463B6904
:102F9C00D31A022B01D9032320E0124B1B6803F038
:102FAC000073002BF0D118E07B68DB69012B01D199
:102FBC00012313E00B4B5B68FB60FB6803F480326E
:102FCC007B681B6A9A4206D1FB6803F470127B681B
:102FDC005B6A9A4201D0012300E00023184618379F
:102FEC00BD4680BD001002400070004060004242AF
:102FFC0080B584B000AF786039607B68002B01D15C
:10300C000123D0E06A4B1B6803F007033A689A422D
:10301C0010D9674B1B6823F0070265493B681343C3
:10302C000B60634B1B6803F007033A689A4201D0AC
:10303C000123B8E07B681B6803F00203002B20D04F
:10304C007B681B6803F00403002B05D0594B5B68AD
:10305C00584A43F4E06353607B681B6803F0080331
:10306C00002B05D0534B5B68524A43F460535360BA
:10307C00504B5B6823F0F0027B689B684D4913430F
:10308C004B607B681B6803F00103002B40D07B680E
:10309C005B68012B07D1474B1B6803F40033002BF3
:1030AC0015D101237FE07B685B68022B07D1414B74
:1030BC001B6803F00073002B09D1012373E03D4B17
:1030CC001B6803F00203002B01D101236BE0394B89
:1030DC005B6823F003027B685B68364913434B60E3
:1030EC00FFF744FAF8600AE0FFF740FA0246FB6883
:1030FC00D31A41F28832934201D9032353E02D4B6A
:10310C005B6803F00C027B685B689B009A42EBD116
:10311C00274B1B6803F007033A689A4210D2244BE2
:10312C001B6823F0070222493B6813430B60204BBA
:10313C001B6803F007033A689A4201D0012332E07E
:10314C007B681B6803F00403002B08D0194B5B68E9
:10315C0023F4E0627B68DB68164913434B607B68A1
:10316C001B6803F00803002B09D0124B5B6823F497
:10317C0060527B681B69DB000E4913434B6000F007
:10318C0021F802460B4B5B681B0903F00F030A493D
:10319C00CB5C22FA03F3094A1360094B1B681846EF
:1031AC00FFF7A2F9002318461037BD4680BD00BFBB
:1031BC000020024000100240F43A000834000020C5
:1031CC003800002080B487B000AF0023FB600023E0
:1031DC00BB6000237B6100237B6000233B611E4BA3
:1031EC005B68FB60FB6803F00C03042B02D0082B1C
:1031FC0003D027E0194B3B6127E0FB689B0C03F0E5
:10320C000F03174AD35C7B60FB6803F48033002BFD
:10321C0010D0114B5B685B0C03F00103114AD35CBB
:10322C00BB607B680D4A02FB03F2BB68B2FBF3F395
:10323C007B6104E07B680C4A02FB03F37B617B69D6
:10324C003B6102E0054B3B6100BF3B6918461C37F4
:10325C00BD4680BC704700BF0010024000127A00CF
:10326C00043B0008143B000800093D0080B485B005
:10327C0000AF78600A4B1B680A4AA2FB03235B0A67
:10328C007A6802FB03F3FB6000BFFB685A1EFA600E
:10329C00002BF9D100BF00BF1437BD4680BC70476E
:1032AC0034000020D34D621080B582B000AF78603E
:1032BC007B68002B01D1012341E07B6893F83D3002
:1032CC00DBB2002B06D17B68002283F83C207868A7
:1032DC00FFF772F87B68022283F83D207B681A683E
:1032EC007B6804331946104600F06EFA7B680122A5
:1032FC0083F846207B68012283F83E207B680122FC
:10330C0083F83F207B68012283F840207B680122F0
:10331C0083F841207B68012283F842207B680122DC
:10332C0083F843207B68012283F844207B680122C8
:10333C0083F845207B68012283F83D200023184642
:10334C000837BD4680BD000080B485B000AF786002
:10335C007B6893F83D30DBB2012B01D0012335E0C3
:10336C007B68022283F83D207B681B68DA687B68E7
:10337C001B6842F00102DA607B681B68164A9342B4
:10338C0009D07B681B68B3F1804F04D07B681B6845
:10339C00124A934211D17B681B689B6803F00703A8
:1033AC00FB60FB68062B10D07B681B681A687B6877
:1033BC001B6842F001021A6007E07B681B681A6800
:1033CC007B681B6842F001021A6000231846143710
:1033DC00BD4680BC704700BF002C0140000400407B
:1033EC0080B582B000AF78607B681B681B6903F006
:1033FC000203022B22D17B681B68DB6803F00203FB
:10340C00022B1BD17B681B686FF002021A617B6870
:10341C0001221A777B681B689B6903F00303002B5E
:10342C0003D0786800F0B4F905E0786800F0A7F9EB
:10343C00786800F0B6F97B6800221A777B681B6805
:10344C001B6903F00403042B22D17B681B68DB6827
:10345C0003F00403042B1BD17B681B686FF0040280
:10346C001A617B6802221A777B681B689B6903F4DC
:10347C004073002B03D0786800F08AF905E0786877
:10348C0000F07DF9786800F08CF97B6800221A77DF
:10349C007B681B681B6903F00803082B22D17B682F
:1034AC001B68DB6803F00803082B1BD17B681B68C7
:1034BC006FF008021A617B6804221A777B681B681C
:1034CC00DB6903F00303002B03D0786800F060F98C
:1034DC0005E0786800F053F9786800F062F97B68D1
:1034EC0000221A777B681B681B6903F01003102BF2
:1034FC0022D17B681B68DB6803F01003102B1BD1F7
:10350C007B681B686FF010021A617B6808221A77BF
:10351C007B681B68DB6903F44073002B03D078686D
:10352C0000F036F905E0786800F029F9786800F0C9
:10353C0038F97B6800221A777B681B681B6903F0DB
:10354C000103012B0ED17B681B68DB6803F00103C0
:10355C00012B07D17B681B686FF001021A61786838
:10356C00FEF72AF87B681B681B6903F08003802B2D
:10357C000ED17B681B68DB6803F08003802B07D1BE
:10358C007B681B686FF080021A61786800F06BFA38
:10359C007B681B681B6903F04003402B0ED17B68D2
:1035AC001B68DB6803F04003402B07D17B681B686A
:1035BC006FF040021A61786800F0FCF87B681B68B9
:1035CC001B6903F02003202B0ED17B681B68DB6882
:1035DC0003F02003202B07D17B681B686FF02002BF
:1035EC001A61786800F036FA00BF0837BD4680BD16
:1035FC0080B584B000AF786039600023FB737B68C2
:10360C0093F83C30012B01D10223B4E07B680122FA
:10361C0083F83C207B68022283F83D207B681B6882
:10362C009B68BB60BB6823F07703BB60BB6823F46B
:10363C007F43BB607B681B68BA689A603B681B68F9
:10364C00B3F5005F3ED0B3F5005F00F28780B3F5B1
:10365C00805F00F08680B3F5805F7FD8702B1AD026
:10366C00702B7BD8602B50D0602B77D8502B3CD054
:10367C00502B73D8402B58D0402B6FD8302B64D0A4
:10368C00302B6BD8202B60D0202B67D8002B5CD034
:10369C00102B5AD062E07B6818683B6899683B68CD
:1036AC005A683B68DB6800F05EF97B681B689B68B6
:1036BC00BB60BB6843F07703BB607B681B68BA6870
:1036CC009A604FE07B6818683B6899683B685A6859
:1036DC003B68DB6800F047F97B681B689A687B687D
:1036EC001B6842F480429A603CE07B6818683B6837
:1036FC0059683B68DB681A4600F0BEF87B681B68AB
:10370C005021184600F015F92CE07B6818683B68CE
:10371C0059683B68DB681A4600F0DCF87B681B686C
:10372C006021184600F005F91CE07B6818683B68BE
:10373C0059683B68DB681A4600F09EF87B681B688A
:10374C004021184600F0F5F80CE07B681A683B68DD
:10375C001B681946104600F0ECF803E00123FB73DC
:10376C0000E000BF7B68012283F83D207B680022CB
:10377C0083F83C20FB7B18461037BD4680BD80B4D7
:10378C0083B000AF786000BF0C37BD4680BC70477B
:10379C0080B483B000AF786000BF0C37BD4680BCEE
:1037AC00704780B483B000AF786000BF0C37BD4663
:1037BC0080BC704780B483B000AF786000BF0C371A
:1037CC00BD4680BC7047000080B485B000AF786007
:1037DC0039607B681B68FB607B68254A934207D085
:1037EC007B68B3F1804F03D07B68224A934208D1A7
:1037FC00FB6823F07003FB603B685B68FA6813435B
:10380C00FB607B681A4A934207D07B68B3F1804F08
:10381C0003D07B68174A934208D1FB6823F44073AA
:10382C00FB603B68DB68FA681343FB60FB6823F0C2
:10383C0080023B685B691343FB607B68FA681A6023
:10384C003B689A687B68DA623B681A687B689A62A4
:10385C007B68074A934203D13B681A697B681A63F9
:10386C007B6801225A6100BF1437BD4680BC70478B
:10387C00002C01400004004080B487B000AFF86019
:10388C00B9607A60FB681B6A7B61FB681B6A23F07A
:10389C000102FB681A62FB689B693B613B6923F080
:1038AC00F0033B617B681B013A6913433B617B6905
:1038BC0023F00A037B617A69BB6813437B61FB6865
:1038CC003A699A61FB687A691A6200BF1C37BD4677
:1038DC0080BC704780B487B000AFF860B9607A6084
:1038EC00FB681B6A7B61FB681B6A23F01002FB6898
:1038FC001A62FB689B693B613B6923F470433B6133
:10390C007B681B033A6913433B617B6923F0A0037B
:10391C007B61BB681B017A6913437B61FB683A6965
:10392C009A61FB687A691A6200BF1C37BD4680BC7D
:10393C00704780B485B000AF786039607B689B6855
:10394C00FB60FB6823F07003FB603A68FB68134371
:10395C0043F00703FB607B68FA689A6000BF14377A
:10396C00BD4680BC704780B487B000AFF860B960CA
:10397C007A603B60FB689B687B617B6923F47F43C7
:10398C007B613B681A027B681A43BB6813437A69F4
:10399C0013437B61FB687A699A6000BF1C37BD4694
:1039AC0080BC704780B485B000AF786039607B68AC
:1039BC0093F83C30012B01D1022341E07B680122BA
:1039CC0083F83C207B68022283F83D207B681B68CF
:1039DC005B68FB607B681B689B68BB60FB6823F0C3
:1039EC007003FB603B681B68FA681343FB607B68E1
:1039FC001B68FA685A607B681B68144A934209D0AA
:103A0C007B681B68B3F1804F04D07B681B68104A3D
:103A1C0093420CD1BB6823F08003BB603B685B68AE
:103A2C00BA681343BB607B681B68BA689A607B6892
:103A3C00012283F83D207B68002283F83C20002380
:103A4C0018461437BD4680BC704700BF002C01409F
:103A5C000004004080B483B000AF786000BF0C3726
:103A6C00BD4680BC704780B483B000AF786000BFA7
:103A7C000C37BD4680BC704770B500260C4D0D4C04
:103A8C00641BA410A64209D100F022F800260A4DAE
:103A9C000A4C641BA410A64205D170BD55F8043B1A
:103AAC0098470136EEE755F8043B98470136F2E7A4
:103ABC00183B0008183B0008183B00081C3B00088A
:103ACC0003460244934200D1704703F8011BF9E707
:103ADC00F8B500BFF8BC08BC9E467047F8B500BFEF
:083AEC00F8BC08BC9E467047BF
:103AF400000000000000000001020304060708099A
:103B040002030405060708090A0B0C0D0E0F10101A
:043B140001020000AA
:043B1800310100086F
:043B1C000D0100088F
:103B20000100000001000000010000000100000091
:103B30000100000001000000010000000100000081
:103B4000C80000000000A04000004040000000400D
:103B5000010000000024F40010000000010000003B
:040000050800247D4E
:00000001FF
