:020000040800F2
:1000000000280020010B0008910A0008970A000848
:100010009D0A0008A30A0008A90A000800000000C1
:10002000000000000000000000000000AF0A00080F
:10003000BB0A000800000000C70A0008D30A000835
:10004000490B0008490B0008490B0008490B000840
:10005000490B0008490B0008490B0008490B000830
:10006000490B0008490B0008490B0008490B000820
:10007000490B0008490B0008490B0008490B000810
:10008000490B0008490B0008490B0008490B000800
:10009000490B0008490B0008490B0008490B0008F0
:1000A000490B0008490B0008490B0008490B0008E0
:1000B000E10A0008490B000800000000490B000895
:1000C000490B00080000000000000000490B000878
:1000D00000000000490B0008490B00080000000068
:1000E000490B0008490B0008490B000800000000FC
:1000F0000000000000000000000000000000000000
:0C01000000000000000000005FF808F1A3
:10010C0010B5054C237833B9044B13B10448AFF345
:10011C0000800123237010BD3C0000200000000073
:10012C006021000808B5034B1BB103490348AFF32A
:10013C00008008BD00000000400000206021000885
:10014C0080B400AF034B01221A6000BFBD4680BCD7
:10015C00704700BF5800002080B400AF034B012251
:10016C001A6000BFBD4680BC704700BF5C00002019
:10017C0080B400AF064B1B68012B04D1044B00224A
:10018C001A60012300E000231846BD4680BC70476E
:10019C005C00002080B400AF064B1B68012B04D11F
:1001AC00044B00221A60012300E000231846BD46D0
:1001BC0080BC70475800002080B500AF224B1B68F4
:1001CC00224A1360224B1B681F4A13604FF40051E4
:1001DC00204800F09FFF03461A461D4B1A601B4B2C
:1001EC001A68194B1B689A422BD1174B1A68184B7B
:1001FC001B689A4225D1184B1A68154B1B689A42FA
:10020C000DD0134B1B68144A1360114B1B68002B49
:10021C0017D1FFF795FF114BC8221A6011E00F4B55
:10022C001B68013B0D4A13600C4B1B68002B08D15B
:10023C00074B1B68002B04D1FFF782FF074BC8222A
:10024C001A6000BF80BD00BF040000200000002029
:10025C0008000020000801400C00002020000020B5
:10026C0080B500AF2E4B1B682E4A13602E4B1B68BB
:10027C002B4A13604FF480412C4800F04BFF03468F
:10028C001A46294B1A60274B1A68254B1B689A4251
:10029C0043D1234B1A68244B1B689A423DD1244B03
:1002AC001A68214B1B689A4219D01F4B1B68204AB5
:1002BC0013601D4B1B68002B2FD1FFF74DFF1D4BFF
:1002CC001B6801331B4A13601A4B1B68642B02D149
:1002DC00184B00221A60184BC8221A601DE0164BEE
:1002EC001B68013B144A1360134B1B68002B14D181
:1002FC000D4B1B68002B10D1FFF72EFF0D4B1B680D
:10030C0001330C4A13600B4B1B68642B02D1094B55
:10031C0000221A60084BC8221A6000BF80BD00BFC3
:10032C0014000020100000201800002000080140DC
:10033C001C000020640000202000002080B500AFCD
:10034C00444B1B68013B032B7BD801A252F823F0D2
:10035C006D03000889030008CB0300080D04000896
:10036C0000F0BAFA3B4B02221A603B4B1B6864222A
:10037C0002FB03F3184600F0C5FA69E000F06AFAD4
:10038C00364B1B68012B0AD1324B03221A60344BBB
:10039C001B68642202FB03F3184600F0B3FAFFF764
:1003AC00F9FE0346012B4ED12E4B00221A60294B2D
:1003BC000E221A604FF47A7000F0A4FA43E000F0B9
:1003CC005FFA264B1B68012B0AD1224B04221A60C0
:1003DC00254B1B68642202FB03F3184600F092FACB
:1003EC00FFF7D8FE0346012B2FD11E4B00221A60BB
:1003FC00184B0F221A604FF47A7000F083FA24E045
:10040C0000F054FA154B1B68012B0AD1114B022238
:10041C001A60114B1B68642202FB03F3184600F0B0
:10042C0071FAFFF7B7FE0346012B10D10D4B0022DA
:10043C001A60084B10221A604FF47A7000F062FABE
:10044C0005E000BF04E000BF02E000BF00E000BF19
:10045C0000BF80BD60000020240000206800002048
:10046C0028000020640000202C00002080B500AF84
:10047C00584B1B68102B6FD0102B00F3A1800E2B48
:10048C0002D00F2B34D09BE000F0E4F9524B1B68E8
:10049C00012B0AD14F4B02221A60504B1B6864226D
:1004AC0002FB03F3184600F02DFAFFF773FE034628
:1004BC00012B09D14A4B00221A60464B0F221A60BD
:1004CC004FF4FA7000F01EFAFFF752FE0346012BB0
:1004DC0078D1434B1B68414A1360C82000F012FAD4
:1004EC003D4B1B68012B6DD13A4B02221A6069E01F
:1004FC0000F0C6F9384B1B68012B0AD1354B03228F
:10050C001A60384B1B68642202FB03F3184600F098
:10051C00F9F9FFF73FFE0346012B09D1304B0022BE
:10052C001A602C4B10221A604FF4FA7000F0EAF9A2
:10053C00FFF71EFE0346012B46D1294B1B68294AA7
:10054C001360C82000F0DEF9234B1B68012B3BD154
:10055C00204B03221A6037E000F0A8F91E4B1B68F1
:10056C00012B0AD11B4B04221A601F4B1B686422FF
:10057C0002FB03F3184600F0C5F9FFF70BFE034628
:10058C00012B09D1164B00221A60124B0E221A6055
:10059C004FF4FA7000F0B6F9FFF7EAFD0346012BB1
:1005AC0014D10F4B1B68104A1360C82000F0AAF935
:1005BC00094B1B68012B09D1064B04221A6005E07C
:1005CC0000BF04E000BF02E000BF00E000BF00BFBE
:1005DC0080BD00BF600000206800002024000020C7
:1005EC0064000020280000202C00002080B500AF03
:1005FC0000F0A6FA00F014F800F09AF800F04CF8AD
:10060C00054801F0E3F9054B01221A60FFF796FE4D
:10061C00FFF72CFFFAE700BF8800002060000020E5
:10062C0080B590B000AF07F11803282200211846BE
:10063C0001F088FD3B1D00221A605A609A60DA6056
:10064C001A610223BB610123BB621023FB620023EE
:10065C007B6307F11803184600F08CFD0346002B52
:10066C0001D000F0F1F80F237B600023BB60002366
:10067C00FB6000233B6100237B613B1D002118467E
:10068C0000F0F8FF0346002B01D000F0DDF800BFAE
:10069C004037BD4680BD000080B586B000AF07F185
:1006AC00080300221A605A609A60DA603B46002206
:1006BC001A605A601D4B4FF080421A601B4B41F67A
:1006CC003F725A60194B00229A60184B0922DA606B
:1006DC00164B00221A61154B00229A61134801F047
:1006EC0025F90346002B01D000F0AEF84FF48053EF
:1006FC00BB6007F1080319460C4801F0BBFA03462E
:10070C00002B01D000F0A0F800233B6000237B609D
:10071C003B461946054801F087FC0346002B01D0E7
:10072C0000F092F800BF1837BD4680BD880000204D
:10073C0080B588B000AF07F1100300221A605A6030
:10074C009A60DA60354B9B69344A43F0100393612D
:10075C00324B9B6903F01003FB60FB682F4B9B69CA
:10076C002E4A43F0040393612C4B9B6903F0040362
:10077C00BB60BB68294B9B69284A43F00803936113
:10078C00264B9B6903F008037B607B68002241F6D3
:10079C00F871234800F0D5FC00224EF607412148A1
:1007AC0000F0CFFC4FF400533B6100237B6101232D
:1007BC00BB6107F1100319461B4800F031FB41F6F1
:1007CC00F8733B6101237B610023BB610223FB6156
:1007DC0007F110031946124800F022FB4EF60743AE
:1007EC003B6101237B610023BB610223FB6107F1A9
:1007FC00100319460B4800F013FB4FF4C0433B6148
:10080C0000237B610123BB6107F1100319460448E7
:10081C0000F006FB00BF2037BD4680BD0010024033
:10082C0000080140000C01400010014080B582B06E
:10083C0000AF786000F07AF8FFF7BEFCFFF710FD10
:10084C0000BF0837BD4680BD80B400AF72B600BF94
:10085C00FEE7000080B500AF01222021074800F020
:10086C0070FC00228021054800F06BFC0022402126
:10087C00024800F066FC00BF80BD00BF00080140CC
:10088C0080B500AF00222021074800F05AFC01225D
:10089C008021054800F055FC00224021024800F060
:1008AC0050FC00BF80BD00BF0008014080B500AF08
:1008BC0000222021074800F044FC0022802105483A
:1008CC0000F03FFC01224021024800F03AFC00BF3E
:1008DC0080BD00BF0008014080B500AF0022202180
:1008EC00074800F02EFC00228021054800F029FC6E
:1008FC0000224021024800F024FC00BF80BD00BF54
:10090C000008014080B483B000AF7860054A7B6872
:10091C001360054B00221A6000BF0C37BD4680BC2B
:10092C00704700BF6C0000206800002080B400AF4E
:10093C00214B1B68002B0BDD1F4B1B68013B1E4A18
:10094C0013601D4B1B68002B02DC1C4B01221A6030
:10095C001B4B1B68002B0BDD194B1B68013B184A0A
:10096C001360174B1B68002B02DC164B01221A601C
:10097C00154B1B68002B0BDD134B1B68013B124AFC
:10098C001360114B1B68002B02DC104B01221A6008
:10099C000F4B1B68002B0BDD0D4B1B68013B0C4AEE
:1009AC0013600B4B1B68002B02DC0A4B01221A60F4
:1009BC0000BFBD4680BC70476C0000206800002062
:1009CC0074000020700000207C00002078000020C3
:1009DC00840000208000002080B485B000AF154B4F
:1009EC009B69144A43F001039361124B9B6903F01A
:1009FC000103BB60BB680F4BDB690E4A43F08053AD
:100A0C00D3610C4BDB6903F080537B607B680A4B32
:100A1C005B68FB60FB6823F0E063FB60FB6843F002
:100A2C008063FB60044AFB68536000BF1437BD460B
:100A3C0080BC7047001002400000014080B584B0BB
:100A4C0000AF78607B681B68B3F1804F13D10C4BFF
:100A5C00DB690B4A43F00103D361094BDB6903F0FB
:100A6C000103FB60FB68002200211C2000F0A1F9AF
:100A7C001C2000F0BAF900BF1037BD4680BD00BF86
:100A8C000010024080B400AFFEE780B400AFFEE778
:100A9C0080B400AFFEE780B400AFFEE780B400AFD7
:100AAC00FEE780B400AF00BFBD4680BC704780B489
:100ABC0000AF00BFBD4680BC704780B400AF00BF24
:100ACC00BD4680BC704780B500AF00F07FF800BF1A
:100ADC0080BD000080B500AF024800F0C3FF00BF2E
:100AEC0080BD00BF8800002080B400AF00BFBD46B1
:100AFC0080BC7047FFF7F8FF0B480C490C4A0023E9
:100B0C0002E0D458C4500433C4188C42F9D3094AB7
:100B1C00094C002301E013600432A242FBD301F024
:100B2C00EDFAFFF763FD7047000000203C00002049
:100B3C00A42100083C000020D4000020FEE70000A7
:100B4C0080B500AF084B1B68074A43F010031360D5
:100B5C00032000F023F90F2000F008F8FFF73CFF0A
:100B6C000023184680BD00BF0020024080B582B033
:100B7C0000AF7860124B1A68124B1B7819464FF471
:100B8C007A73B3FBF1F3B2FBF3F3184600F03BF9C5
:100B9C000346002B01D001230EE07B680F2B0AD8F3
:100BAC00002279684FF0FF3000F003F9064A7B68A9
:100BBC001360002300E0012318460837BD4680BDB2
:100BCC0030000020380000203400002080B400AF3A
:100BDC00054B1B781A46054B1B681344034A1360DC
:100BEC0000BFBD4680BC704738000020D0000020FC
:100BFC0080B400AF024B1B681846BD4680BC7047E2
:100C0C00D000002080B485B000AF78607B6803F022
:100C1C000703FB600C4BDB68BB60BA684FF6FF0345
:100C2C001340BB60FB681A02BB68134343F0BF63FD
:100C3C0043F40033BB60044ABB68D36000BF143775
:100C4C00BD4680BC704700BF00ED00E080B400AF33
:100C5C00044BDB681B0A03F007031846BD4680BC37
:100C6C00704700BF00ED00E080B483B000AF0346D6
:100C7C00FB7197F90730002B0BDBFB7903F01F029C
:100C8C00064997F907305B09012000FA02F241F896
:100C9C00232000BF0C37BD4680BC704700E100E04C
:100CAC0080B483B000AF03463960FB7197F907300D
:100CBC00002B0ADB3B68DAB20C4997F907301201BA
:100CCC00D2B20B4483F800230AE03B68DAB208493D
:100CDC00FB7903F00F03043B1201D2B20B441A76DA
:100CEC0000BF0C37BD4680BC704700BF00E100E080
:100CFC0000ED00E080B489B000AFF860B9607A60B4
:100D0C00FB6803F00703FB61FB69C3F10703042BCA
:100D1C0028BF0423BB61FB690433062B02D9FB6992
:100D2C00033B00E000237B614FF0FF32BB6902FA0A
:100D3C0003F3DA43BB681A407B699A404FF0FF31EA
:100D4C007B6901FA03F3D9437B680B4013431846C4
:100D5C002437BD4680BC704780B582B000AF786048
:100D6C007B68013BB3F1807F01D301230FE00A4A7A
:100D7C007B68013B53600F214FF0FF30FFF790FF72
:100D8C00054B00229A60044B07221A600023184678
:100D9C000837BD4680BD00BF10E000E080B582B0D2
:100DAC0000AF78607868FFF72DFF00BF0837BD46AD
:100DBC0080BD80B586B000AF0346B9607A60FB7326
:100DCC0000237B61FFF742FF78617A68B968786924
:100DDC00FFF790FF024697F90F3011461846FFF7C0
:100DEC005FFF00BF1837BD4680BD80B582B000AF35
:100DFC000346FB7197F907301846FFF735FF00BF24
:100E0C000837BD4680BD80B582B000AF7860786889
:100E1C00FFF7A2FF034618460837BD4680BD000009
:100E2C0080B48BB000AF7860396000237B62002304
:100E3C003B6248E101227B6A02FA03F3FB613B68E7
:100E4C001B68FA691340BB61BA69FB699A4240F0AE
:100E5C0037813B685B68A34A93425ED0A14A9342B8
:100E6C0075D8A14A934258D09F4A93426FD89F4A53
:100E7C00934252D09D4A934269D89D4A93424CD09A
:100E8C009B4A934263D89B4A934246D0994A9342D9
:100E9C005DD8122B2AD8122B59D801A252F823F064
:100EAC00270F0008010F0008130F0008550F00084A
:100EBC005B0F00085B0F00085B0F00085B0F00085E
:100ECC005B0F00085B0F00085B0F00085B0F00084E
:100EDC005B0F00085B0F00085B0F00085B0F00083E
:100EEC005B0F0008090F00081D0F0008824A93428F
:100EFC0013D02CE03B68DB683B6229E03B68DB6885
:100F0C0004333B6224E03B68DB6808333B621FE040
:100F1C003B68DB680C333B621AE03B689B68002B38
:100F2C0002D104233B6213E03B689B68012B05D183
:100F3C0008233B627B68FA691A6109E008233B626B
:100F4C007B68FA695A6103E000233B6200E000BF52
:100F5C00BB69FF2B01D87B6801E07B6804337B61A4
:100F6C00BB69FF2B02D87B6A9B0002E07B6A083BC3
:100F7C009B003B617B691A680F213B6901FA03F303
:100F8C00DB431A40396A3B6901FA03F31A437B6964
:100F9C001A603B685B6803F08053002B00F0908074
:100FAC00564B9B69554A43F001039361534B9B6924
:100FBC0003F00103BB60BB68514A7B6A9B08023398
:100FCC0052F82330FB607B6A03F003039B000F2273
:100FDC0002FA03F3DB43FA681340FB607B68494A6F
:100FEC0093420DD07B68484A934207D07B68474AAE
:100FFC00934201D1022304E0032302E0012300E029
:10100C0000237A6A02F0030292009340FA681343B9
:10101C00FB603B497B6A9B080233FA6841F823204A
:10102C003B685B6803F48013002B06D0384B9A683E
:10103C003749BB6913438B6006E0354B9A68BB6933
:10104C00DB43334913408B603B685B6803F400134C
:10105C00002B06D02E4BDA682D49BB691343CB60AD
:10106C0006E02B4BDA68BB69DB4329491340CB60A4
:10107C003B685B6803F40033002B06D0244B5A68A2
:10108C002349BB6913434B6006E0214B5A68BB698B
:10109C00DB431F4913404B603B685B6803F48033B0
:1010AC00002B06D01A4B1A681949BB6913430B6005
:1010BC0006E0174B1A68BB69DB43154913400B60FC
:1010CC007B6A01337B623B681A687B6A22FA03F302
:1010DC00002B7FF4AFAE00BF00BF2C37BD4680BCE9
:1010EC00704700BF000032100000311000002210C9
:1010FC00000021100000121000001110001002401E
:10110C000000014000080140000C014000100140AB
:10111C000004014080B485B000AF78600B467B8042
:10112C007B689A687B881340002B02D00123FB73E9
:10113C0001E00023FB73FB7B18461437BD4680BCD3
:10114C00704780B483B000AF78600B467B80134649
:10115C007B707B78002B03D07A887B681A6103E064
:10116C007B881A047B681A6100BF0C37BD4680BCB3
:10117C007047000080B586B000AF78607B68002BAC
:10118C0001D101236CE27B681B6803F00103002B87
:10119C0000F08780924B5B6803F00C03042B0CD09F
:1011AC008F4B5B6803F00C03082B12D18C4B5B68E4
:1011BC0003F48033B3F5803F0BD1894B1B6803F4E8
:1011CC000033002B6CD07B685B68002B68D101234B
:1011DC0046E27B685B68B3F5803F06D1804B1B68A9
:1011EC007F4A43F4803313602EE07B685B68002BEE
:1011FC000CD17B4B1B687A4A23F480331360784BF9
:10120C001B68774A23F4802313601DE07B685B68BE
:10121C00B3F5A02F0CD1724B1B68714A43F4802399
:10122C0013606F4B1B686E4A43F4803313600BE002
:10123C006B4B1B686A4A23F480331360684B1B6842
:10124C00674A23F4802313607B685B68002B13D000
:10125C00FFF7CEFC386108E0FFF7CAFC02463B6999
:10126C00D31A642B01D90323FAE15D4B1B6803F4F9
:10127C000033002BF0D014E0FFF7BAFC386108E023
:10128C00FFF7B6FC02463B69D31A642B01D9032342
:10129C00E6E1534B1B6803F40033002BF0D100E064
:1012AC0000BF7B681B6803F00203002B63D04C4B20
:1012BC005B6803F00C03002B0BD0494B5B6803F00D
:1012CC000C03082B1CD1464B5B6803F48033002BBA
:1012DC0016D1434B1B6803F00203002B05D07B682F
:1012EC001B69012B01D00123BAE13D4B1B6823F094
:1012FC00F8027B685B69DB00394913430B603AE009
:10130C007B681B69002B20D0364B01221A60FFF73B
:10131C006FFC386108E0FFF76BFC02463B69D31A9F
:10132C00022B01D903239BE12D4B1B6803F0020315
:10133C00002BF0D02A4B1B6823F0F8027B685B690A
:10134C00DB00274913430B6015E0264B00221A6083
:10135C00FFF74EFC386108E0FFF74AFC02463B6998
:10136C00D31A022B01D903237AE11D4B1B6803F01E
:10137C000203002BF0D17B681B6803F00803002BE1
:10138C003AD07B689B69002B19D0174B01221A604D
:10139C00FFF72EFC386108E0FFF72AFC02463B6998
:1013AC00D31A022B01D903235AE10D4B5B6A03F0CC
:1013BC000203002BF0D0012000F09AFA1CE00A4B3B
:1013CC0000221A60FFF714FC38610FE0FFF710FCE5
:1013DC0002463B69D31A022B08D9032340E100BF14
:1013EC000010024000004242800442429E4B5B6A65
:1013FC0003F00203002BE9D17B681B6803F00403A4
:10140C00002B00F0A6800023FB75974BDB6903F0E3
:10141C008053002B0DD1944BDB69934A43F08053DE
:10142C00D361914BDB6903F08053BB60BB68012334
:10143C00FB758E4B1B6803F48073002B18D18B4B00
:10144C001B688A4A43F480731360FFF7D1FB386141
:10145C0008E0FFF7CDFB02463B69D31A642B01D998
:10146C000323FDE0814B1B6803F48073002BF0D049
:10147C007B68DB68012B06D17B4B1B6A7A4A43F0F5
:10148C00010313622DE07B68DB68002B0CD1764BDB
:10149C001B6A754A23F001031362734B1B6A724A71
:1014AC0023F0040313621CE07B68DB68052B0CD172
:1014BC006D4B1B6A6C4A43F0040313626A4B1B6A44
:1014CC00694A43F0010313620BE0674B1B6A664ADF
:1014DC0023F001031362644B1B6A634A23F0040379
:1014EC0013627B68DB68002B15D0FFF781FB38613A
:1014FC000AE0FFF77DFB02463B69D31A41F28832C2
:10150C00934201D90323ABE0574B1B6A03F0020350
:10151C00002BEED014E0FFF76BFB38610AE0FFF70D
:10152C0067FB02463B69D31A41F28832934201D9D8
:10153C00032395E04C4B1B6A03F00203002BEED106
:10154C00FB7D012B05D1484BDB69474A23F08053C7
:10155C00D3617B68DB69002B00F08180424B5B68B8
:10156C0003F00C03082B61D07B68DB69022B46D19E
:10157C003F4B00221A60FFF73BFB386108E0FFF796
:10158C0037FB02463B69D31A022B01D9032367E0D0
:10159C00354B1B6803F00073002BF0D17B681B6A82
:1015AC00B3F5803F08D1304B5B6823F400327B6885
:1015BC009B682D4913434B602B4B5B6823F47412CF
:1015CC007B68196A7B685B6A0B43274913434B6042
:1015DC00274B01221A60FFF70BFB386108E0FFF77D
:1015EC0007FB02463B69D31A022B01D9032337E0D0
:1015FC001D4B1B6803F00073002BF0D02FE01C4B2D
:10160C0000221A60FFF7F4FA386108E0FFF7F0FAED
:10161C0002463B69D31A022B01D9032320E0124B5B
:10162C001B6803F00073002BF0D118E07B68DB69BA
:10163C00012B01D1012313E00B4B5B68FB60FB68B2
:10164C0003F480327B681B6A9A4206D1FB6803F470
:10165C0070127B685B6A9A4201D0012300E0002380
:10166C0018461837BD4680BD00100240007000407F
:10167C006000424280B584B000AF786039607B680E
:10168C00002B01D10123D0E06A4B1B6803F0070348
:10169C003A689A4210D9674B1B6823F007026549D8
:1016AC003B6813430B60634B1B6803F007033A68FA
:1016BC009A4201D00123B8E07B681B6803F0020357
:1016CC00002B20D07B681B6803F00403002B05D093
:1016DC00594B5B68584A43F4E06353607B681B6862
:1016EC0003F00803002B05D0534B5B68524A43F4BC
:1016FC0060535360504B5B6823F0F0027B689B682F
:10170C004D4913434B607B681B6803F00103002BAE
:10171C0040D07B685B68012B07D1474B1B6803F4F7
:10172C000033002B15D101237FE07B685B68022B13
:10173C0007D1414B1B6803F00073002B09D1012327
:10174C0073E03D4B1B6803F00203002B01D1012316
:10175C006BE0394B5B6823F003027B685B683649AE
:10176C0013434B60FFF744FAF8600AE0FFF740FAC6
:10177C000246FB68D31A41F28832934201D9032303
:10178C0053E02D4B5B6803F00C027B685B689B009D
:10179C009A42EBD1274B1B6803F007033A689A4235
:1017AC0010D2244B1B6823F0070222493B681343D9
:1017BC000B60204B1B6803F007033A689A4201D078
:1017CC00012332E07B681B6803F00403002B08D074
:1017DC00194B5B6823F4E0627B68DB6816491343A2
:1017EC004B607B681B6803F00803002B09D0124B7D
:1017FC005B6823F460527B681B69DB000E49134362
:10180C004B6000F021F802460B4B5B681B0903F0A0
:10181C000F030A49CB5C22FA03F3094A1360094B04
:10182C001B681846FFF7A2F9002318461037BD466F
:10183C0080BD00BF0020024000100240782100084B
:10184C00300000203400002080B487B000AF0023AB
:10185C00FB600023BB6000237B6100237B600023C3
:10186C003B611E4B5B68FB60FB6803F00C03042BB5
:10187C0002D0082B03D027E0194B3B6127E0FB6813
:10188C009B0C03F00F03174AD35C7B60FB6803F4DB
:10189C008033002B10D0114B5B685B0C03F0010301
:1018AC00114AD35CBB607B680D4A02FB03F2BB6838
:1018BC00B2FBF3F37B6104E07B680C4A02FB03F39D
:1018CC007B617B693B6102E0054B3B6100BF3B697F
:1018DC0018461C37BD4680BC704700BF0010024044
:1018EC0000127A00882100089821000800093D00A8
:1018FC0080B485B000AF78600A4B1B680A4AA2FB23
:10190C0003235B0A7A6802FB03F3FB6000BFFB68EE
:10191C005A1EFA60002BF9D100BF00BF1437BD4628
:10192C0080BC704730000020D34D621080B582B06F
:10193C0000AF78607B68002B01D1012341E07B680C
:10194C0093F83D30DBB2002B06D17B68002283F884
:10195C003C207868FFF772F87B68022283F83D2000
:10196C007B681A687B6804331946104600F06EFADF
:10197C007B68012283F846207B68012283F83E2095
:10198C007B68012283F83F207B68012283F840208A
:10199C007B68012283F841207B68012283F8422076
:1019AC007B68012283F843207B68012283F8442062
:1019BC007B68012283F845207B68012283F83D2057
:1019CC00002318460837BD4680BD000080B485B0A2
:1019DC0000AF78607B6893F83D30DBB2012B01D00F
:1019EC00012335E07B68022283F83D207B681B686D
:1019FC00DA687B681B6842F00102DA607B681B685E
:101A0C00164A934209D07B681B68B3F1804F04D00F
:101A1C007B681B68124A934211D17B681B689B68D8
:101A2C0003F00703FB60FB68062B10D07B681B6878
:101A3C001A687B681B6842F001021A6007E07B6839
:101A4C001B681A687B681B6842F001021A6000234D
:101A5C0018461437BD4680BC704700BF002C0140AF
:101A6C000004004080B582B000AF78607B681B68D2
:101A7C001B6903F00203022B22D17B681B68DB6815
:101A8C0003F00203022B1BD17B681B686FF0020270
:101A9C001A617B6801221A777B681B689B6903F0CB
:101AAC000303002B03D0786800F0B4F905E07868E4
:101ABC0000F0A7F9786800F0B6F97B6800221A7775
:101ACC007B681B681B6903F00403042B22D17B6821
:101ADC001B68DB6803F00403042B1BD17B681B68B9
:101AEC006FF004021A617B6802221A777B681B680C
:101AFC009B6903F44073002B03D0786800F08AF9DB
:101B0C0005E0786800F07DF9786800F08CF97B6866
:101B1C0000221A777B681B681B6903F00803082BEB
:101B2C0022D17B681B68DB6803F00803082B1BD1F0
:101B3C007B681B686FF008021A617B6804221A77B5
:101B4C007B681B68DB6903F00303002B03D0786808
:101B5C0000F060F905E0786800F053F9786800F05F
:101B6C0062F97B6800221A777B681B681B6903F09B
:101B7C001003102B22D17B681B68DB6803F0100369
:101B8C00102B1BD17B681B686FF010021A617B68ED
:101B9C0008221A777B681B68DB6903F44073002BFF
:101BAC0003D0786800F036F905E0786800F029F980
:101BBC00786800F038F97B6800221A777B681B681C
:101BCC001B6903F00103012B0ED17B681B68DB68DA
:101BDC0003F00103012B07D17B681B686FF0010236
:101BEC001A617868FEF722FE7B681B681B6903F09C
:101BFC008003802B0ED17B681B68DB6803F08003AD
:101C0C00802B07D17B681B686FF080021A617868A3
:101C1C0000F06BFA7B681B681B6903F04003402BD8
:101C2C000ED17B681B68DB6803F04003402B07D1A7
:101C3C007B681B686FF040021A61786800F0FCF852
:101C4C007B681B681B6903F02003202B0ED17B687B
:101C5C001B68DB6803F02003202B07D17B681B6813
:101C6C006FF020021A61786800F036FA00BF08376E
:101C7C00BD4680BD80B584B000AF7860396000236C
:101C8C00FB737B6893F83C30012B01D10223B4E049
:101C9C007B68012283F83C207B68022283F83D207C
:101CAC007B681B689B68BB60BB6823F07703BB60D9
:101CBC00BB6823F47F43BB607B681B68BA689A607F
:101CCC003B681B68B3F5005F3ED0B3F5005F00F2D4
:101CDC008780B3F5805F00F08680B3F5805F7FD896
:101CEC00702B1AD0702B7BD8602B50D0602B77D8F0
:101CFC00502B3CD0502B73D8402B58D0402B6FD846
:101D0C00302B64D0302B6BD8202B60D0202B67D895
:101D1C00002B5CD0102B5AD062E07B6818683B68B3
:101D2C0099683B685A683B68DB6800F05EF97B6831
:101D3C001B689B68BB60BB6843F07703BB607B6828
:101D4C001B68BA689A604FE07B6818683B689968B2
:101D5C003B685A683B68DB6800F047F97B681B6896
:101D6C009A687B681B6842F480429A603CE07B680E
:101D7C0018683B6859683B68DB681A4600F0BEF887
:101D8C007B681B685021184600F015F92CE07B6825
:101D9C0018683B6859683B68DB681A4600F0DCF849
:101DAC007B681B686021184600F005F91CE07B6815
:101DBC0018683B6859683B68DB681A4600F09EF867
:101DCC007B681B684021184600F0F5F80CE07B6836
:101DDC001A683B681B681946104600F0ECF803E0E3
:101DEC000123FB7300E000BF7B68012283F83D20D8
:101DFC007B68002283F83C20FB7B18461037BD46DD
:101E0C0080BD80B483B000AF786000BF0C37BD4696
:101E1C0080BC704780B483B000AF786000BF0C37D3
:101E2C00BD4680BC704780B483B000AF786000BF03
:101E3C000C37BD4680BC704780B483B000AF78606F
:101E4C0000BF0C37BD4680BC7047000080B485B025
:101E5C0000AF786039607B681B68FB607B68254A43
:101E6C00934207D07B68B3F1804F03D07B68224A42
:101E7C00934208D1FB6823F07003FB603B685B68FE
:101E8C00FA681343FB607B681A4A934207D07B685D
:101E9C00B3F1804F03D07B68174A934208D1FB689B
:101EAC0023F44073FB603B68DB68FA681343FB6008
:101EBC00FB6823F080023B685B691343FB607B6823
:101ECC00FA681A603B689A687B68DA623B681A6841
:101EDC007B689A627B68074A934203D13B681A6914
:101EEC007B681A637B6801225A6100BF1437BD46B8
:101EFC0080BC7047002C01400004004080B487B0C7
:101F0C0000AFF860B9607A60FB681B6A7B61FB68A4
:101F1C001B6A23F00102FB681A62FB689B693B6138
:101F2C003B6923F0F0033B617B681B013A69134367
:101F3C003B617B6923F00A037B617A69BB681343BD
:101F4C007B61FB683A699A61FB687A691A6200BF27
:101F5C001C37BD4680BC704780B487B000AFF860BA
:101F6C00B9607A60FB681B6A7B61FB681B6A23F0B3
:101F7C001002FB681A62FB689B693B613B6923F4A6
:101F8C0070433B617B681B033A6913433B617B697C
:101F9C0023F0A0037B61BB681B017A6913437B614F
:101FAC00FB683A699A61FB687A691A6200BF1C3750
:101FBC00BD4680BC704780B485B000AF7860396096
:101FCC007B689B68FB60FB6823F07003FB603A68DE
:101FDC00FB68134343F00703FB607B68FA689A6065
:101FEC0000BF1437BD4680BC704780B487B000AFCB
:101FFC00F860B9607A603B60FB689B687B617B69C9
:10200C0023F47F437B613B681A027B681A43BB68ED
:10201C0013437A6913437B61FB687A699A6000BF4A
:10202C001C37BD4680BC704780B485B000AF78606B
:10203C0039607B6893F83C30012B01D1022341E0DD
:10204C007B68012283F83C207B68022283F83D20C8
:10205C007B681B685B68FB607B681B689B68BB606C
:10206C00FB6823F07003FB603B681B68FA68134342
:10207C00FB607B681B68FA685A607B681B68144AB3
:10208C00934209D07B681B68B3F1804F04D07B6806
:10209C001B68104A93420CD1BB6823F08003BB60D1
:1020AC003B685B68BA681343BB607B681B68BA68A3
:1020BC009A607B68012283F83D207B68002283F8BC
:1020CC003C20002318461437BD4680BC704700BF27
:1020DC00002C01400004004080B483B000AF786055
:1020EC0000BF0C37BD4680BC704780B483B000AFD6
:1020FC00786000BF0C37BD4680BC704770B50026B9
:10210C000C4D0D4C641BA410A64209D100F022F812
:10211C0000260A4D0A4C641BA410A64205D170BDC2
:10212C0055F8043B98470136EEE755F8043B9847C1
:10213C000136F2E79C2100089C2100089C21000834
:10214C00A021000803460244934200D1704703F8D3
:10215C00011BF9E7F8B500BFF8BC08BC9E467047F8
:0C216C00F8B500BFF8BC08BC9E467047E8
:10217800000000000000000001020304060708092F
:1021880002030405060708090A0B0C0D0E0F1010B0
:042198000102000040
:04219C003101000805
:0421A0000D01000825
:1021A4000100000001000000010000000100000027
:1021B4000100000001000000010000000100000017
:1021C400C800000005000000030000000200000039
:0C21D4000024F4001000000001000000D6
:0400000508000B01E3
:00000001FF
