:020000040800F2
:1000000000280020E91A0008791A00087F1A000861
:10001000851A00088B1A0008911A000800000000D9
:10002000000000000000000000000000971A000817
:10003000A31A000800000000AF1A0008BB1A00084D
:10004000311B0008311B0008311B0008311B000860
:10005000311B0008311B0008311B0008311B000850
:10006000311B0008311B0008311B0008311B000840
:10007000311B0008311B0008311B0008311B000830
:10008000311B0008311B0008311B0008311B000820
:10009000311B0008311B0008311B0008311B000810
:1000A000311B0008311B0008311B0008311B000800
:1000B000C91A0008311B000800000000311B0008AD
:1000C000311B00080000000000000000311B000888
:1000D00000000000311B0008311B00080000000078
:1000E000311B0008311B0008311B00080000000014
:1000F0000000000000000000000000000000000000
:0C01000000000000000000005FF808F1A3
:10010C0010B5054C237833B9044B13B10448AFF345
:10011C0000800123237010BD3C0000200000000073
:10012C004831000808B5034B1BB103490348AFF332
:10013C00008008BD0000000040000020483100088D
:10014C0080F0004002E000BF81F0004142001FBF80
:10015C005FEA410392EA030F7FEA226C7FEA236C89
:10016C006AD04FEA1262D2EB1363C1BFD21841407E
:10017C0048404140B8BF5B42192B88BF704710F014
:10018C00004F40F4000020F07F4018BF404211F0B7
:10019C00004F41F4000121F07F4118BF494292EA1F
:1001AC00030F3FD0A2F1010241FA03FC10EB0C004B
:1001BC00C3F1200301FA03F100F0004302D54942D8
:1001CC0060EB4000B0F5000F13D3B0F1807F06D385
:1001DC0040084FEA310102F10102FE2A51D2B1F17D
:1001EC00004F40EBC25008BF20F0010040EA030072
:1001FC007047490040EB0000013A28BFB0F5000FF2
:10020C00EDD2B0FA80FCACF1080CB2EB0C0200FAA7
:10021C000CF0AABF00EBC25052421843BCBFD040F6
:10022C001843704792F0000F81F4000106BF80F470
:10023C0000000132013BB5E74FEA41037FEA226C33
:10024C0018BF7FEA236C21D092EA030F04D092F0FE
:10025C00000F08BF0846704790EA010F1CBF002032
:10026C00704712F07F4F04D1400028BF40F000408F
:10027C00704712F100723CBF00F50000704700F0AF
:10028C00004343F0FE4040F4000070477FEA2262D6
:10029C0016BF08467FEA23630146420206BF5FEAA7
:1002AC00412390EA010F40F4800070474FF00003A7
:1002BC0004E000BF10F0004348BF40425FEA000C6E
:1002CC0008BF704743F0964301464FF000001CE016
:1002DC0050EA010208BF70474FF000030AE000BF6C
:1002EC0050EA010208BF704711F0004302D54042AA
:1002FC0061EB41015FEA010C02BF8446014600201C
:10030C0043F0B64308BFA3F18053A3F50003BCFA36
:10031C008CF2083AA3EBC25310DB01FA02FC6344E3
:10032C0000FA02FCC2F12002BCF1004F20FA02F2EA
:10033C0043EB020008BF20F00100704702F12002DD
:10034C0001FA02FCC2F1200250EA4C0021FA02F23E
:10035C0043EB020008BF20EADC7070474FF0FF0C43
:10036C001CEAD0521EBF1CEAD15392EA0C0F93EA3E
:10037C000C0F6FD01A4480EA010C400218BF5FEAE0
:10038C0041211ED04FF0006343EA501043EA511153
:10039C00A0FB01310CF00040B1F5000F3EBF49004D
:1003AC0041EAD3715B0040EA010062F17F02FD2A51
:1003BC001DD8B3F1004F40EBC25008BF20F0010034
:1003CC00704790F0000F0CF0004C08BF49024CEA4B
:1003DC00502040EA51207F3AC2BFD2F1FF0340EADD
:1003EC00C250704740F400004FF00003013A5DDC4E
:1003FC0012F1190FDCBF00F000407047C2F100028F
:10040C00410021FA02F1C2F1200200FA02FC5FEA7B
:10041C00310040F1000053EA4C0308BF20EADC70C5
:10042C00704792F0000F00F0004C02BF400010F437
:10043C00000F013AF9D040EA0C0093F0000F01F0E4
:10044C00004C02BF490011F4000F013BF9D041EA06
:10045C000C018FE70CEAD15392EA0C0F18BF93EA08
:10046C000C0F0AD030F0004C18BF31F0004CD8D132
:10047C0080EA010000F00040704790F0000F17BFB9
:10048C0090F0004F084691F0000F91F0004F14D0FF
:10049C0092EA0C0F01D142020FD193EA0C0F03D157
:1004AC004B0218BF084608D180EA010000F000405A
:1004BC0040F0FE4040F40000704740F0FE4040F435
:1004CC00400070474FF0FF0C1CEAD0521EBF1CEAD4
:1004DC00D15392EA0C0F93EA0C0F69D0A2EB0302F2
:1004EC0080EA010C49024FEA402037D04FF080538C
:1004FC0043EA111143EA10130CF000408B4238BF51
:10050C005B0042F17D024FF4000C8B4224BF5B1A5E
:10051C0040EA0C00B3EB510F24BFA3EB510340EAAC
:10052C005C00B3EB910F24BFA3EB910340EA9C005A
:10053C00B3EBD10F24BFA3EBD10340EADC001B01CA
:10054C0018BF5FEA1C1CE0D1FD2A3FF650AF8B426E
:10055C0040EBC25008BF20F0010070470CF0004C7B
:10056C004CEA50207F32C2BFD2F1FF0340EAC250A6
:10057C00704740F400004FF00003013A37E792F067
:10058C00000F00F0004C02BF400010F4000F013AC5
:10059C00F9D040EA0C0093F0000F01F0004C02BFC0
:1005AC00490011F4000F013BF9D041EA0C0195E729
:1005BC000CEAD15392EA0C0F08D142027FF47DAFC2
:1005CC0093EA0C0F7FF470AF084676E793EA0C0FB2
:1005DC0004D14B023FF44CAF08466EE730F0004CB0
:1005EC0018BF31F0004CCAD130F000427FF45CAF40
:1005FC0031F000437FF43CAF5FE700BF4FF0FF3CAE
:10060C0006E000BF4FF0010C02E000BF4FF0010C00
:10061C004DF804CD4FEA40024FEA41037FEA226CC9
:10062C0018BF7FEA236C11D001B052EA530C18BFEB
:10063C0090EA010F58BFB2EB030088BFC81738BF50
:10064C006FEAE17018BF40F0010070477FEA226C3E
:10065C0002D15FEA402C05D17FEA236CE4D15FEA3A
:10066C00412CE1D05DF8040B704700BF844608466E
:10067C006146FFE70FB5FFF7C9FF002848BF10F12F
:10068C00000F0FBD4DF808EDFFF7F4FF0CBF012074
:10069C0000205DF808FB00BF4DF808EDFFF7EAFFFE
:1006AC0034BF012000205DF808FB00BF4DF808EDB9
:1006BC00FFF7E0FF94BF012000205DF808FB00BFAE
:1006CC004DF808EDFFF7D2FF94BF012000205DF834
:1006DC0008FB00BF4DF808EDFFF7C8FF34BF012041
:1006EC0000205DF808FB00BF4FEA4002B2F1FE4F5C
:1006FC000FD34FF09E03B3EB12620DD94FEA0023D8
:10070C0043F0004310F0004F23FA02F018BF4042B0
:10071C0070474FF00000704712F1610F01D1420297
:10072C0005D110F0004008BF6FF0004070474FF04B
:10073C000000704780B400AF034B01221A6000BF69
:10074C00BD4680BC704700BF5800002080B400AF8D
:10075C00034B01221A6000BFBD4680BC704700BF2E
:10076C005C00002080B400AF064B1B68012B04D149
:10077C00044B00221A60012300E000231846BD46FA
:10078C0080BC70475C00002080B400AF064B1B6837
:10079C00012B04D1044B00221A60012300E000233A
:1007AC001846BD4680BC70475800002080B500AF8D
:1007BC00224B1B68224A1360224B1B681F4A136092
:1007CC004FF40051204801F099FC03461A461D4B8A
:1007DC001A601B4B1A68194B1B689A422BD1174B8A
:1007EC001A68184B1B689A4225D1184B1A68154B7E
:1007FC001B689A420DD0134B1B68144A1360114BA3
:10080C001B68002B17D1FFF795FF114BC8221A60FC
:10081C0011E00F4B1B68013B0D4A13600C4B1B681E
:10082C00002B08D1074B1B68002B04D1FFF782FF6C
:10083C00074BC8221A6000BF80BD00BF0400002017
:10084C000000002008000020000801400C000020DF
:10085C002000002080B500AF2E4B1B682E4A136081
:10086C002E4B1B682B4A13604FF480412C4801F02F
:10087C0045FC03461A46294B1A60274B1A68254B30
:10088C001B689A4243D1234B1A68244B1B689A422B
:10089C003DD1244B1A68214B1B689A4219D01F4B2F
:1008AC001B68204A13601D4B1B68002B2FD1FFF7D0
:1008BC004DFF1D4B1B6801331B4A13601A4B1B6801
:1008CC00642B02D1184B00221A60184BC8221A60F4
:1008DC001DE0164B1B68013B144A1360134B1B683D
:1008EC00002B14D10D4B1B68002B10D1FFF72EFFE2
:1008FC000D4B1B6801330C4A13600B4B1B68642BAC
:10090C0002D1094B00221A60084BC8221A6000BFA2
:10091C0080BD00BF14000020100000201800002033
:10092C00000801401C000020640000202000002072
:10093C0080B500AF704B1B68013B032B00F2D380DA
:10094C0001A252F823F000BF65090008AD090008A8
:10095C00270A00087D0A000800F076FF664B022289
:10096C001A60664B1B6866491846FFF7F7FC03468E
:10097C001846FFF7B9FE0346184600F07BFF614BA3
:10098C001B685F491846FFF7E9FC03461846FFF75A
:10099C00ABFE0346184600F081FF00F079FEA9E09B
:1009AC0000F01EFE584B1B68012B0FD100F086FE89
:1009BC00564B1B6852491846FFF7D0FC03461846A5
:1009CC00FFF792FE0346184600F068FF504B1B6879
:1009DC00012B12D1484B03221A604A4B1B68484921
:1009EC001846FFF7BBFC03461846FFF77DFE03468F
:1009FC00184600F03FFF00F08FF8FFF7C5FE0346E6
:100A0C00012B72D1434B00221A603B4B0E221A6011
:100A1C004FF47A7000F02EFF67E000F0F7FD00F065
:100A2C0021FE3B4B1B68012B12D1334B04221A6065
:100A3C00364B1B6832491846FFF790FC03461846A4
:100A4C00FFF752FE0346184600F014FF00F064F85E
:100A5C00FFF79AFE0346012B49D12E4B00221A6058
:100A6C00254B0F221A604FF47A7000F003FF3EE022
:100A7C0000F0E2FD00F0F6FD254B1B68012B22D1A6
:100A8C001D4B02221A601D4B1B681D491846FFF7AF
:100A9C0065FC03461846FFF727FE0346184600F090
:100AAC00E9FE184B1B6816491846FFF757FC03461E
:100ABC001846FFF719FE0346184600F0EFFE00F04B
:100ACC00E7FD00F029F8FFF75FFE0346012B10D17C
:100ADC00104B00221A60084B10221A604FF47A70E7
:100AEC0000F0C8FE05E000BF04E000BF02E000BF5C
:100AFC0000E000BF00BF80BD60000020240000208B
:100B0C000000C84228000020800000202C0000209B
:100B1C00780000206400002080B400AF074B1B68F5
:100B2C00074A1360074B1B68074A1360074B1B6887
:100B3C00074A136000BFBD4680BC704724000020EC
:100B4C006C00002028000020700000202C000020E9
:100B5C007400002098B500AFAB4B1B68013B032B16
:100B6C0000F2488101A252F823F000BF890B000863
:100B7C009B0B0008690C0008350D0008A34B0122E3
:100B8C001A60A34B01221A60FFF7C6FF39E19F4B95
:100B9C001B68012B1BD19F4B1B68002B17D19D4B46
:100BAC001C689D4B1B689D491846FFF78BFC034640
:100BBC001846FFF799FD03461946204600F060FBE6
:100BCC00944B01221A60322000F07CFE2FE08F4BF8
:100BDC001B68012B2BD18F4B1B68012B27D18D4B05
:100BEC001C688D4B1B681846FFF77EFD01468C4B2D
:100BFC0083FB01239A10CB17D21A13469B00134484
:100C0C005B00CA1A1146204600F03AFB824B1B6867
:100C1C004FF07E511846FFF797FA03461A467E4B63
:100C2C001A607C4B00221A60322000F04BFE784B8D
:100C3C001B68012B40F0E080774B1B684FF00001E4
:100C4C001846FFF729FD0346002B03D0724B4FF0DB
:100C5C0000021A60642000F049FECDE06B4B1B686B
:100C6C00012B1BD16B4B1B68002B17D1694B1C68DC
:100C7C006C4B1B6869491846FFF724FC0346184661
:100C8C00FFF732FD03461946204600F0F9FA614B96
:100C9C0001221A60322000F015FE2FE05B4B1B681E
:100CAC00012B2BD15B4B1B68012B27D1594B1C689B
:100CBC005C4B1B681846FFF717FD0146584B83FB2E
:100CCC0001239A10CB17D21A13469B0013445B00D6
:100CDC00CA1A1146204600F0D3FA524B1B684FF04B
:100CEC007E511846FFF730FA03461A464D4B1A60F0
:100CFC00484B00221A60322000F0E4FD444B1B6884
:100D0C00012B7BD1474B1B684FF000011846FFF7B6
:100D1C00C3FC0346002B03D0424B4FF000021A6079
:100D2C00642000F0E3FD69E0384B1B68012B1BD1FC
:100D3C00384B1B68002B17D1364B1C683A4B1B6881
:100D4C0036491846FFF7BEFB03461846FFF7CCFCA6
:100D5C0003461946204600F093FA2E4B01221A60E6
:100D6C00322000F0AFFD2FE0284B1B68012B2BD15C
:100D7C00284B1B68012B27D1264B1C682A4B1B6860
:100D8C001846FFF7B1FC0146254B83FB01239A1053
:100D9C00CB17D21A13469B0013445B00CA1A114698
:100DAC00204600F06DFA204B1B684FF07E51184620
:100DBC00FFF7CAF903461A461B4B1A60154B002263
:100DCC001A60322000F07EFD114B1B68012B17D1ED
:100DDC00154B1B684FF000011846FFF75DFC0346EE
:100DEC00002B03D0104B4FF000021A60642000F06F
:100DFC007DFD05E000BF04E000BF02E000BF00E0A5
:100E0C0000BF00BF98BD00BF60000020880000201C
:100E1C0090000020680000206C00002000002041A1
:100E2C0067666666700000207400002080B500AF15
:100E3C00714B1B68102B00F09280102B00F3D380A9
:100E4C000E2B02D00F2B46D0CDE000F0C9FB00F0EA
:100E5C0009FC6A4B1B68012B12D1674B02221A60EA
:100E6C00FFF75AFE664B1B6866491846FFF776FA81
:100E7C0003461846FFF738FC0346184600F0FAFC08
:100E8C00FFF782FC0346012B09D15F4B00221A604D
:100E9C00594B0F221A604FF4FA7000F0EBFCFFF77D
:100EAC0061FC0346012B40F0A080574B1B68184691
:100EBC0000F01AFCC82000F0DDFC504B1B68012B25
:100ECC0040F093804C4B02221A60FFF725FE4E4BEC
:100EDC0000221A6089E000F099FB00F0D9FB474B27
:100EEC001B68012B12D1444B03221A60FFF714FE2E
:100EFC00464B1B6843491846FFF730FA0346184621
:100F0C00FFF7F2FB0346184600F0B4FCFFF73CFC7D
:100F1C000346012B09D13C4B00221A60364B1022A0
:100F2C001A604FF4FA7000F0A5FCFFF71BFC0346A7
:100F3C00012B5CD1344B1B68184600F04BFCC820CD
:100F4C0000F098FC2D4B1B68012B50D12A4B03222F
:100F5C001A60FFF7E1FD2C4B00221A6047E000F00D
:100F6C006BFB00F0ABFB254B1B68012B12D1224B0A
:100F7C0004221A60FFF7D0FD254B1B682149184647
:100F8C00FFF7ECF903461846FFF7AEFB034618468D
:100F9C0000F070FCFFF7F8FB0346012B09D11A4B4C
:100FAC0000221A60144B0E221A604FF4FA7000F0F3
:100FBC0061FCFFF7D7FB0346012B1AD1124B1B68C0
:100FCC00184600F0CBFBC82000F054FC0B4B1B6800
:100FDC00012B0ED1084B04221A60FFF79DFD0A4B22
:100FEC0000221A6005E000BF04E000BF02E000BF71
:100FFC0000E000BF00BF80BD600000207800002032
:10100C00240000200000C8426400002028000020BA
:10101C002C00002080B500AF00F086FD00F016F823
:10102C0000F09CF800F04EF8064801F0C3FC064BAB
:10103C0001221A60FFF78EFDFFF77AFCFFF7F6FE30
:10104C00F8E700BF980000206000002080B590B049
:10105C0000AF07F1180328220021184602F066F8A9
:10106C003B1D00221A605A609A60DA601A610223F2
:10107C00BB610123BB621023FB6200237B6307F17E
:10108C001803184601F06AF80346002B01D000F053
:10109C00F1F80F237B600023BB600023FB6000236F
:1010AC003B6100237B613B1D0021184601F0D6FA01
:1010BC000346002B01D000F0DDF800BF4037BD46E1
:1010CC0080BD000080B586B000AF07F10803002298
:1010DC001A605A609A60DA603B4600221A605A60C5
:1010EC001D4B4FF080421A601B4B41F63F725A6009
:1010FC00194B00229A60184B0922DA60164B002219
:10110C001A61154B00229A61134801F003FC034647
:10111C00002B01D000F0AEF84FF48053BB6007F108
:10112C00080319460C4801F099FD0346002B01D029
:10113C0000F0A0F800233B6000237B603B4619467F
:10114C00054801F065FF0346002B01D000F092F832
:10115C0000BF1837BD4680BD9800002080B588B010
:10116C0000AF07F1100300221A605A609A60DA602F
:10117C00354B9B69344A43F010039361324B9B69A6
:10118C0003F01003FB60FB682F4B9B692E4A43F066
:10119C00040393612C4B9B6903F00403BB60BB6895
:1011AC00294B9B69284A43F008039361264B9B69A2
:1011BC0003F008037B607B68002241F6F87123483A
:1011CC0000F0B3FF00224FF67F61214800F0ADFF25
:1011DC004FF400533B6100237B610123BB6107F19A
:1011EC00100319461B4800F00FFE41F6F8733B61E3
:1011FC0001237B610023BB610223FB6107F1100318
:10120C001946124800F000FE4FF67F633B61012344
:10121C007B610023BB610223FB6107F110031946BC
:10122C000B4800F0F1FD4FF4C0433B6100237B61A0
:10123C000123BB6107F110031946044800F0E4FDDB
:10124C0000BF2037BD4680BD0010024000080140A1
:10125C00000C01400010014080B582B000AF7860F6
:10126C0000F058FBFFF7A2FAFFF7F4FA00BF0837BB
:10127C00BD4680BD80B400AF72B600BFFEE7000073
:10128C0080B582B000AF786039607B68002B0BD1E1
:10129C0000224FF40071D04800F047FF01224FF4B8
:1012AC000061CD4800F041FF7B68012B0BD101227E
:1012BC004FF40071C84800F038FF00224FF4006171
:1012CC00C54800F032FF3B68092B00F27F8101A278
:1012DC0052F823F009130008511300089913000861
:1012EC00E11300082914000871140008B91400084F
:1012FC00011500084915000891150008002201216C
:10130C00B64800F012FF00220221B44800F00DFF95
:10131C0000220421B14800F008FF00220821AF4848
:10132C0000F003FF00221021AC4800F0FEFE00226A
:10133C002021AA4800F0F9FE01224021A74800F024
:10134C00F4FE44E101220121A44800F0EEFE00224B
:10135C000221A24800F0E9FE002204219F4800F07F
:10136C00E4FE012208219D4800F0DFFE012210213D
:10137C009A4800F0DAFE01222021984800F0D5FEB0
:10138C0001224021954800F0D0FE20E100220121ED
:10139C00924800F0CAFE00220221904800F0C5FEDF
:1013AC00012204218D4800F0C0FE002208218B4848
:1013BC0000F0BBFE00221021884800F0B6FE01228E
:1013CC002021864800F0B1FE00224021834800F025
:1013DC00ACFEFCE000220121804800F0A6FE0022B9
:1013EC0002217E4800F0A1FE002204217B4800F07F
:1013FC009CFE00220821794800F097FE0122102162
:10140C00764800F092FE01222021744800F08DFEF7
:10141C0000224021714800F088FED8E00122012111
:10142C006E4800F082FE002202216C4800F07DFE26
:10143C0000220421694800F078FE01220821674847
:10144C0000F073FE01221021644800F06EFE0022B1
:10145C002021624800F069FE002240215F4800F024
:10146C0064FEB4E0002201215C4800F05EFE012223
:10147C0002215A4800F059FE00220421574800F07E
:10148C0054FE00220821554800F04FFE0122102185
:10149C00524800F04AFE00222021504800F045FE40
:1014AC00002240214D4800F040FE90E00022012136
:1014BC004A4800F03AFE01220221484800F035FE6D
:1014CC0000220421454800F030FE00220821434848
:1014DC0000F02BFE00221021404800F026FE0022D6
:1014EC0020213E4800F021FE002240213B4800F024
:1014FC001CFE6CE000220121384800F016FE002290
:10150C000221364800F011FE00220421334800F07D
:10151C000CFE01220821314800F007FE01221021A7
:10152C002E4800F002FE012220212C4800F0FDFD87
:10153C0001224021294800F0F8FD48E00022012159
:10154C00264800F0F2FD00220221244800F0EDFDB7
:10155C0000220421214800F0E8FD002208211F4848
:10156C0000F0E3FD002210211C4800F0DEFD0022FB
:10157C0020211A4800F0D9FD00224021174800F024
:10158C00D4FD24E000220121144800F0CEFD0022FD
:10159C000221124800F0C9FD002204210F4800F07E
:1015AC00C4FD002208210D4800F0BFFD01221021CE
:1015BC000A4800F0BAFD00222021084800F0B5FDD1
:1015CC0000224021054800F0B0FD00E000BF00BF44
:1015DC000837BD4680BD00BF00080140000C01402B
:1015EC0080B500AF01222021074800F09EFD0022AB
:1015FC008021054800F099FD00224021024800F0AE
:10160C0094FD00BF80BD00BF0008014080B500AF55
:10161C0000222021074800F088FD01228021054886
:10162C0000F083FD00224021024800F07EFD00BF47
:10163C0080BD00BF0008014080B500AF0022202112
:10164C00074800F072FD00228021054800F06DFD76
:10165C0001224021024800F068FD00BF80BD00BFA0
:10166C000008014080B500AF01220821074800F0B6
:10167C005CFD00224FF48071044800F056FD0022FE
:10168C001021024800F051FD00BF80BD0008014050
:10169C0080B500AF00220821074800F046FD01226A
:1016AC004FF48071044800F040FD002210210248E4
:1016BC0000F03BFD00BF80BD0008014080B500AFCD
:1016CC0000220821074800F030FD00224FF4807101
:1016DC00044800F02AFD01221021024800F025FDEB
:1016EC0000BF80BD0008014080B582B000AF7860BB
:1016FC007868FEF7DFFD034613491846FEF7E2FE55
:10170C00034619461846FEF721FD03461A460F4BB1
:10171C001A607868FEF7CEFD03460B491846FEF7B3
:10172C00D1FE03460A491846FEF718FE03461A4630
:10173C00084B1A607868FEF7BDFD0346064A136035
:10174C0000BF0837BD4680BD0000A0402C00002023
:10175C0000004040280000202400002080B582B00A
:10176C0000AF78607868FEF7A5FD03464FF0804126
:10177C001846FEF7A7FE034611491846FEF7EEFD84
:10178C0003461A460F4B1A607868FEF793FD034622
:10179C004FF080411846FEF795FE03460A4918465D
:1017AC00FEF7DCFD03461A46084B1A607868FEF714
:1017BC0081FD0346064A136000BF0837BD4680BD55
:1017CC000000A04024000020000040402800002021
:1017DC002C00002080B582B000AF78607868FEF7EE
:1017EC0069FD034613491846FEF76CFE0346124981
:1017FC001846FEF7B3FD03461A46104B1A6078687C
:10180C00FEF758FD03460B491846FEF75BFE0346F0
:10181C0019461846FEF79AFC03461A46084B1A60FE
:10182C007868FEF747FD0346064A136000BF083789
:10183C00BD4680BD000040400000A04024000020B8
:10184C002C0000202800002080B500AF00222021B1
:10185C00074800F06AFC00228021054800F065FC76
:10186C0000224021024800F060FC00BF80BD00BF98
:10187C000008014080B483B000AF7860054A7B68F3
:10188C001360054B00221A6000BF0C37BD4680BCAC
:10189C00704700BF7C0000207800002080B483B02B
:1018AC0000AF7860054A7B681360054B00221A6014
:1018BC0000BF0C37BD4680BC704700BF84000020C1
:1018CC008000002080B483B000AF7860054A7B684C
:1018DC001360054B00221A6000BF0C37BD4680BC5C
:1018EC00704700BF8C0000208800002080B483B0BB
:1018FC0000AF7860054A7B681360054B00221A60C4
:10190C0000BF0C37BD4680BC704700BF9400002060
:10191C009000002080B400AF214B1B68002B0BDD26
:10192C001F4B1B68013B1E4A13601D4B1B68002B91
:10193C0002DC1C4B01221A601B4B1B68002B0BDDBD
:10194C00194B1B68013B184A1360174B1B68002B83
:10195C0002DC164B01221A60154B1B68002B0BDDA9
:10196C00134B1B68013B124A1360114B1B68002B75
:10197C0002DC104B01221A600F4B1B68002B0BDD95
:10198C000D4B1B68013B0C4A13600B4B1B68002B67
:10199C0002DC0A4B01221A6000BFBD4680BC7047B6
:1019AC007C000020780000208400002080000020B3
:1019BC008C00002088000020940000209000002063
:1019CC0080B485B000AF154B9B69144A43F00103FA
:1019DC009361124B9B6903F00103BB60BB680F4B17
:1019EC00DB690E4A43F08053D3610C4BDB6903F087
:1019FC0080537B607B680A4B5B68FB60FB6823F061
:101A0C00E063FB60FB6843F08063FB60044AFB68A7
:101A1C00536000BF1437BD4680BC704700100240B5
:101A2C000000014080B584B000AF78607B681B6813
:101A3C00B3F1804F13D10C4BDB690B4A43F001031C
:101A4C00D361094BDB6903F00103FB60FB680022E7
:101A5C0000211C2000F0A1F91C2000F0BAF900BFF5
:101A6C001037BD4680BD00BF0010024080B400AFEF
:101A7C00FEE780B400AFFEE780B400AFFEE780B4B1
:101A8C0000AFFEE780B400AFFEE780B400AF00BF4C
:101A9C00BD4680BC704780B400AF00BFBD4680BC63
:101AAC00704780B400AF00BFBD4680BC704780B5A6
:101ABC0000AF00F07FF800BF80BD000080B500AF24
:101ACC00024800F0C3FF00BF80BD00BF980000209B
:101ADC0080B400AF00BFBD4680BC7047FFF7F8FF75
:101AEC000B480C490C4A002302E0D458C450043370
:101AFC00C4188C42F9D3094A094C002301E0136045
:101B0C000432A242FBD301F0EDFAFFF783FA7047DF
:101B1C00000000203C0000208C3100083C0000201C
:101B2C00E4000020FEE7000080B500AF084B1B6806
:101B3C00074A43F010031360032000F023F90F2031
:101B4C0000F008F8FFF73CFF0023184680BD00BFEB
:101B5C000020024080B582B000AF7860124B1A684A
:101B6C00124B1B7819464FF47A73B3FBF1F3B2FBAB
:101B7C00F3F3184600F03BF90346002B01D0012388
:101B8C000EE07B680F2B0AD8002279684FF0FF30EB
:101B9C0000F003F9064A7B681360002300E0012380
:101BAC0018460837BD4680BD3000002038000020A4
:101BBC003400002080B400AF054B1B781A46054B4F
:101BCC001B681344034A136000BFBD4680BC7047BA
:101BDC0038000020E000002080B400AF024B1B68EE
:101BEC001846BD4680BC7047E000002080B485B02C
:101BFC0000AF78607B6803F00703FB600C4BDB687D
:101C0C00BB60BA684FF6FF031340BB60FB681A0257
:101C1C00BB68134343F0BF6343F40033BB60044A17
:101C2C00BB68D36000BF1437BD4680BC704700BF93
:101C3C0000ED00E080B400AF044BDB681B0A03F03E
:101C4C0007031846BD4680BC704700BF00ED00E09E
:101C5C0080B483B000AF0346FB7197F90730002BBB
:101C6C000BDBFB7903F01F02064997F907305B0980
:101C7C00012000FA02F241F8232000BF0C37BD46C8
:101C8C0080BC704700E100E080B483B000AF034635
:101C9C003960FB7197F90730002B0ADB3B68DAB22D
:101CAC000C4997F907301201D2B20B4483F8002388
:101CBC000AE03B68DAB20849FB7903F00F03043BF6
:101CCC001201D2B20B441A7600BF0C37BD4680BC51
:101CDC00704700BF00E100E000ED00E080B489B087
:101CEC0000AFF860B9607A60FB6803F00703FB6132
:101CFC00FB69C3F10703042B28BF0423BB61FB69F9
:101D0C000433062B02D9FB69033B00E000237B6103
:101D1C004FF0FF32BB6902FA03F3DA43BB681A4097
:101D2C007B699A404FF0FF317B6901FA03F3D94389
:101D3C007B680B40134318462437BD4680BC704764
:101D4C0080B582B000AF78607B68013BB3F1807FD7
:101D5C0001D301230FE00A4A7B68013B53600F213A
:101D6C004FF0FF30FFF790FF054B00229A60044BB9
:101D7C0007221A60002318460837BD4680BD00BFF5
:101D8C0010E000E080B582B000AF78607868FFF7B3
:101D9C002DFF00BF0837BD4680BD80B586B000AFB3
:101DAC000346B9607A60FB7300237B61FFF742FF47
:101DBC0078617A68B9687869FFF790FF024697F9FD
:101DCC000F3011461846FFF75FFF00BF1837BD46AE
:101DDC0080BD80B582B000AF0346FB7197F9073028
:101DEC001846FFF735FF00BF0837BD4680BD80B5EC
:101DFC0082B000AF78607868FFF7A2FF0346184600
:101E0C000837BD4680BD000080B48BB000AF786051
:101E1C00396000237B6200233B6248E101227B6A2C
:101E2C0002FA03F3FB613B681B68FA691340BB6160
:101E3C00BA69FB699A4240F037813B685B68A34AF8
:101E4C0093425ED0A14A934275D8A14A934258D08E
:101E5C009F4A93426FD89F4A934252D09D4A9342D5
:101E6C0069D89D4A93424CD09B4A934263D89B4A73
:101E7C00934246D0994A93425DD8122B2AD8122B02
:101E8C0059D801A252F823F00F1F0008E91E0008D0
:101E9C00FB1E00083D1F0008431F0008431F0008DD
:101EAC00431F0008431F0008431F0008431F00087E
:101EBC00431F0008431F0008431F0008431F00086E
:101ECC00431F0008431F0008431F0008F11E0008B1
:101EDC00051F0008824A934213D02CE03B68DB6854
:101EEC003B6229E03B68DB6804333B6224E03B68DF
:101EFC00DB6808333B621FE03B68DB680C333B62FA
:101F0C001AE03B689B68002B02D104233B6213E070
:101F1C003B689B68012B05D108233B627B68FA69FF
:101F2C001A6109E008233B627B68FA695A6103E095
:101F3C0000233B6200E000BFBB69FF2B01D87B682C
:101F4C0001E07B6804337B61BB69FF2B02D87B6AA1
:101F5C009B0002E07B6A083B9B003B617B691A6833
:101F6C000F213B6901FA03F3DB431A40396A3B69E1
:101F7C0001FA03F31A437B691A603B685B6803F050
:101F8C008053002B00F09080564B9B69554A43F0D0
:101F9C0001039361534B9B6903F00103BB60BB6866
:101FAC00514A7B6A9B08023352F82330FB607B6AF0
:101FBC0003F003039B000F2202FA03F3DB43FA68DE
:101FCC001340FB607B68494A93420DD07B68484ABA
:101FDC00934207D07B68474A934201D1022304E025
:101FEC00032302E0012300E000237A6A02F00302DB
:101FFC0092009340FA681343FB603B497B6A9B0851
:10200C000233FA6841F823203B685B6803F48013C1
:10201C00002B06D0384B9A683749BB6913438B6049
:10202C0006E0354B9A68BB69DB43334913408B6040
:10203C003B685B6803F40013002B06D02E4BDA6868
:10204C002D49BB691343CB6006E02B4BDA68BB69A7
:10205C00DB4329491340CB603B685B6803F40033D6
:10206C00002B06D0244B5A682349BB6913434B60A1
:10207C0006E0214B5A68BB69DB431F4913404B6098
:10208C003B685B6803F48033002B06D01A4B1A684C
:10209C001949BB6913430B6006E0174B1A68BB69FF
:1020AC00DB43154913400B607B6A01337B623B6851
:1020BC001A687B6A22FA03F3002B7FF4AFAE00BFE1
:1020CC0000BF2C37BD4680BC704700BF00003210EB
:1020DC00000031100000221000002110000012102E
:1020EC0000001110001002400000014000080140E7
:1020FC00000C0140001001400004014080B485B088
:10210C0000AF78600B467B807B689A687B881340B5
:10211C00002B02D00123FB7301E00023FB73FB7B3C
:10212C0018461437BD4680BC704780B483B000AFEE
:10213C0078600B467B8013467B707B78002B03D03A
:10214C007A887B681A6103E07B881A047B681A61C1
:10215C0000BF0C37BD4680BC7047000080B586B010
:10216C0000AF78607B68002B01D101236CE27B68A7
:10217C001B6803F00103002B00F08780924B5B6817
:10218C0003F00C03042B0CD08F4B5B6803F00C0397
:10219C00082B12D18C4B5B6803F48033B3F5803F72
:1021AC000BD1894B1B6803F40033002B6CD07B687C
:1021BC005B68002B68D1012346E27B685B68B3F552
:1021CC00803F06D1804B1B687F4A43F480331360F9
:1021DC002EE07B685B68002B0CD17B4B1B687A4A2A
:1021EC0023F480331360784B1B68774A23F48023E5
:1021FC0013601DE07B685B68B3F5A02F0CD1724BAC
:10220C001B68714A43F4802313606F4B1B686E4A42
:10221C0043F4803313600BE06B4B1B686A4A23F466
:10222C0080331360684B1B68674A23F48023136068
:10223C007B685B68002B13D0FFF7CEFC386108E09D
:10224C00FFF7CAFC02463B69D31A642B01D903235E
:10225C00FAE15D4B1B6803F40033002BF0D014E063
:10226C00FFF7BAFC386108E0FFF7B6FC02463B69A1
:10227C00D31A642B01D90323E6E1534B1B6803F4F7
:10228C000033002BF0D100E000BF7B681B6803F02B
:10229C000203002B63D04C4B5B6803F00C03002B48
:1022AC000BD0494B5B6803F00C03082B1CD1464B3D
:1022BC005B6803F48033002B16D1434B1B6803F08F
:1022CC000203002B05D07B681B69012B01D0012375
:1022DC00BAE13D4B1B6823F0F8027B685B69DB00BD
:1022EC00394913430B603AE07B681B69002B20D003
:1022FC00364B01221A60FFF76FFC386108E0FFF7DC
:10230C006BFC02463B69D31A022B01D903239BE1D8
:10231C002D4B1B6803F00203002BF0D02A4B1B68DB
:10232C0023F0F8027B685B69DB00274913430B60E1
:10233C0015E0264B00221A60FFF74EFC386108E0CE
:10234C00FFF74AFC02463B69D31A022B01D903233F
:10235C007AE11D4B1B6803F00203002BF0D17B6864
:10236C001B6803F00803002B3AD07B689B69002B99
:10237C0019D0174B01221A60FFF72EFC386108E0C8
:10238C00FFF72AFC02463B69D31A022B01D903231F
:10239C005AE10D4B5B6A03F00203002BF0D00120D5
:1023AC0000F09AFA1CE00A4B00221A60FFF714FCAA
:1023BC0038610FE0FFF710FC02463B69D31A022B81
:1023CC0008D9032340E100BF001002400000424244
:1023DC00800442429E4B5B6A03F00203002BE9D15E
:1023EC007B681B6803F00403002B00F0A68000231D
:1023FC00FB75974BDB6903F08053002B0DD1944B8D
:10240C00DB69934A43F08053D361914BDB6903F052
:10241C008053BB60BB680123FB758E4B1B6803F4B8
:10242C008073002B18D18B4B1B688A4A43F4807342
:10243C001360FFF7D1FB386108E0FFF7CDFB0246D4
:10244C003B69D31A642B01D90323FDE0814B1B6834
:10245C0003F48073002BF0D07B68DB68012B06D172
:10246C007B4B1B6A7A4A43F0010313622DE07B68B5
:10247C00DB68002B0CD1764B1B6A754A23F00103E9
:10248C001362734B1B6A724A23F0040313621CE041
:10249C007B68DB68052B0CD16D4B1B6A6C4A43F0D7
:1024AC00040313626A4B1B6A694A43F0010313620B
:1024BC000BE0674B1B6A664A23F001031362644B03
:1024CC001B6A634A23F0040313627B68DB68002BEE
:1024DC0015D0FFF781FB38610AE0FFF77DFB024660
:1024EC003B69D31A41F28832934201D90323ABE002
:1024FC00574B1B6A03F00203002BEED014E0FFF7DE
:10250C006BFB38610AE0FFF767FB02463B69D31AA5
:10251C0041F28832934201D9032395E04C4B1B6A5C
:10252C0003F00203002BEED1FB7D012B05D1484BB0
:10253C00DB69474A23F08053D3617B68DB69002B4E
:10254C0000F08180424B5B6803F00C03082B61D0D8
:10255C007B68DB69022B46D13F4B00221A60FFF7E8
:10256C003BFB386108E0FFF737FB02463B69D31AA7
:10257C00022B01D9032367E0354B1B6803F0007372
:10258C00002BF0D17B681B6AB3F5803F08D1304B30
:10259C005B6823F400327B689B682D4913434B60C6
:1025AC002B4B5B6823F474127B68196A7B685B6A3B
:1025BC000B43274913434B60274B01221A60FFF74B
:1025CC000BFB386108E0FFF707FB02463B69D31AA7
:1025DC00022B01D9032337E01D4B1B6803F000735A
:1025EC00002BF0D02FE01C4B00221A60FFF7F4FAFE
:1025FC00386108E0FFF7F0FA02463B69D31A022B68
:10260C0001D9032320E0124B1B6803F00073002B4D
:10261C00F0D118E07B68DB69012B01D1012313E0B9
:10262C000B4B5B68FB60FB6803F480327B681B6AB6
:10263C009A4206D1FB6803F470127B685B6A9A427B
:10264C0001D0012300E0002318461837BD4680BD99
:10265C0000100240007000406000424280B584B01F
:10266C0000AF786039607B68002B01D10123D0E08A
:10267C006A4B1B6803F007033A689A4210D9674B00
:10268C001B6823F0070265493B6813430B60634BDF
:10269C001B6803F007033A689A4201D00123B8E0A3
:1026AC007B681B6803F00203002B20D07B681B683F
:1026BC0003F00403002B05D0594B5B68584A43F4D4
:1026CC00E06353607B681B6803F00803002B05D0A4
:1026DC00534B5B68524A43F460535360504B5B68F6
:1026EC0023F0F0027B689B684D4913434B607B6879
:1026FC001B6803F00103002B40D07B685B68012B47
:10270C0007D1474B1B6803F40033002B15D1012371
:10271C007FE07B685B68022B07D1414B1B6803F0A1
:10272C000073002B09D1012373E03D4B1B6803F0B0
:10273C000203002B01D101236BE0394B5B6823F0C2
:10274C0003027B685B68364913434B60FFF744FA1E
:10275C00F8600AE0FFF740FA0246FB68D31A41F230
:10276C008832934201D9032353E02D4B5B6803F06D
:10277C000C027B685B689B009A42EBD1274B1B6871
:10278C0003F007033A689A4210D2244B1B6823F0DB
:10279C00070222493B6813430B60204B1B6803F074
:1027AC0007033A689A4201D0012332E07B681B6828
:1027BC0003F00403002B08D0194B5B6823F4E06290
:1027CC007B68DB68164913434B607B681B6803F01E
:1027DC000803002B09D0124B5B6823F460527B6812
:1027EC001B69DB000E4913434B6000F021F80246D5
:1027FC000B4B5B681B0903F00F030A49CB5C22FAF5
:10280C0003F3094A1360094B1B681846FFF7A2F93A
:10281C00002318461037BD4680BD00BF0020024083
:10282C00001002406031000830000020340000200D
:10283C0080B487B000AF0023FB600023BB60002393
:10284C007B6100237B6000233B611E4B5B68FB605C
:10285C00FB6803F00C03042B02D0082B03D027E0F9
:10286C00194B3B6127E0FB689B0C03F00F03174AE5
:10287C00D35C7B60FB6803F48033002B10D0114BCE
:10288C005B685B0C03F00103114AD35CBB607B6893
:10289C000D4A02FB03F2BB68B2FBF3F37B6104E06D
:1028AC007B680C4A02FB03F37B617B693B6102E0B2
:1028BC00054B3B6100BF3B6918461C37BD4680BCCD
:1028CC00704700BF0010024000127A0070310008FF
:1028DC008031000800093D0080B485B000AF7860FD
:1028EC000A4B1B680A4AA2FB03235B0A7A6802FBA9
:1028FC0003F3FB6000BFFB685A1EFA60002BF9D192
:10290C0000BF00BF1437BD4680BC704730000020AC
:10291C00D34D621080B582B000AF78607B68002B1D
:10292C0001D1012341E07B6893F83D30DBB2002BF1
:10293C0006D17B68002283F83C207868FFF772F898
:10294C007B68022283F83D207B681A687B6804331D
:10295C001946104600F06EFA7B68012283F8462077
:10296C007B68012283F83E207B68012283F83F209C
:10297C007B68012283F840207B68012283F8412088
:10298C007B68012283F842207B68012283F8432074
:10299C007B68012283F844207B68012283F8452060
:1029AC007B68012283F83D20002318460837BD467A
:1029BC0080BD000080B485B000AF78607B6893F870
:1029CC003D30DBB2012B01D0012335E07B680222C4
:1029DC0083F83D207B681B68DA687B681B6842F0D3
:1029EC000102DA607B681B68164A934209D07B6847
:1029FC001B68B3F1804F04D07B681B68124A93426A
:102A0C0011D17B681B689B6803F00703FB60FB68B4
:102A1C00062B10D07B681B681A687B681B6842F019
:102A2C0001021A6007E07B681B681A687B681B68E8
:102A3C0042F001021A60002318461437BD4680BCD0
:102A4C00704700BF002C01400004004080B582B0EC
:102A5C0000AF78607B681B681B6903F00203022BD4
:102A6C0022D17B681B68DB6803F00203022B1BD1AD
:102A7C007B681B686FF002021A617B6801221A776F
:102A8C007B681B689B6903F00303002B03D07868F9
:102A9C0000F0B4F905E0786800F0A7F9786800F068
:102AAC00B6F97B6800221A777B681B681B6903F0F8
:102ABC000403042B22D17B681B68DB6803F004033E
:102ACC00042B1BD17B681B686FF004021A617B68B6
:102ADC0002221A777B681B689B6903F44073002BF6
:102AEC0003D0786800F08AF905E0786800F07DF989
:102AFC00786800F08CF97B6800221A777B681B6879
:102B0C001B6903F00803082B22D17B681B68DB6868
:102B1C0003F00803082B1BD17B681B686FF00802BD
:102B2C001A617B6804221A777B681B68DB6903F0E7
:102B3C000303002B03D0786800F060F905E0786897
:102B4C0000F053F9786800F062F97B6800221A777C
:102B5C007B681B681B6903F01003102B22D17B6868
:102B6C001B68DB6803F01003102B1BD17B681B6800
:102B7C006FF010021A617B6808221A777B681B6859
:102B8C00DB6903F44073002B03D0786800F036F94E
:102B9C0005E0786800F029F9786800F038F97B686E
:102BAC0000221A777B681B681B6903F00103012B59
:102BBC000ED17B681B68DB6803F00103012B07D186
:102BCC007B681B686FF001021A617868FEF744FBA2
:102BDC007B681B681B6903F08003802B0ED17B681C
:102BEC001B68DB6803F08003802B07D17B681B68B4
:102BFC006FF080021A61786800F06BFA7B681B68D2
:102C0C001B6903F04003402B0ED17B681B68DB680B
:102C1C0003F04003402B07D17B681B686FF0400228
:102C2C001A61786800F0FCF87B681B681B6903F07C
:102C3C002003202B0ED17B681B68DB6803F020037C
:102C4C00202B07D17B681B686FF020021A61786813
:102C5C0000F036FA00BF0837BD4680BD80B584B0A1
:102C6C0000AF786039600023FB737B6893F83C30CD
:102C7C00012B01D10223B4E07B68012283F83C20B4
:102C8C007B68022283F83D207B681B689B68BB60D5
:102C9C00BB6823F07703BB60BB6823F47F43BB6046
:102CAC007B681B68BA689A603B681B68B3F5005F69
:102CBC003ED0B3F5005F00F28780B3F5805F00F083
:102CCC008680B3F5805F7FD8702B1AD0702B7BD8A1
:102CDC00602B50D0602B77D8502B3CD0502B73D816
:102CEC00402B58D0402B6FD8302B64D0302B6BD866
:102CFC00202B60D0202B67D8002B5CD0102B5AD007
:102D0C0062E07B6818683B6899683B685A683B6866
:102D1C00DB6800F05EF97B681B689B68BB60BB6876
:102D2C0043F07703BB607B681B68BA689A604FE01E
:102D3C007B6818683B6899683B685A683B68DB6835
:102D4C0000F047F97B681B689A687B681B6842F443
:102D5C0080429A603CE07B6818683B6859683B6825
:102D6C00DB681A4600F0BEF87B681B6850211846D9
:102D7C0000F015F92CE07B6818683B6859683B68D3
:102D8C00DB681A4600F0DCF87B681B68602118468B
:102D9C0000F005F91CE07B6818683B6859683B68D3
:102DAC00DB681A4600F09EF87B681B6840211846C9
:102DBC0000F0F5F80CE07B681A683B681B68194654
:102DCC00104600F0ECF803E00123FB7300E000BFB9
:102DDC007B68012283F83D207B68002283F83C202D
:102DEC00FB7B18461037BD4680BD80B483B000AF66
:102DFC00786000BF0C37BD4680BC704780B483B090
:102E0C0000AF786000BF0C37BD4680BC704780B403
:102E1C0083B000AF786000BF0C37BD4680BC7047F4
:102E2C0080B483B000AF786000BF0C37BD4680BC67
:102E3C007047000080B485B000AF786039607B6863
:102E4C001B68FB607B68254A934207D07B68B3F113
:102E5C00804F03D07B68224A934208D1FB6823F051
:102E6C007003FB603B685B68FA681343FB607B682C
:102E7C001A4A934207D07B68B3F1804F03D07B682A
:102E8C00174A934208D1FB6823F44073FB603B68FC
:102E9C00DB68FA681343FB60FB6823F080023B6835
:102EAC005B691343FB607B68FA681A603B689A683D
:102EBC007B68DA623B681A687B689A627B68074AAF
:102ECC00934203D13B681A697B681A637B680122C1
:102EDC005A6100BF1437BD4680BC7047002C0140BE
:102EEC000004004080B487B000AFF860B9607A602D
:102EFC00FB681B6A7B61FB681B6A23F00102FB68A1
:102F0C001A62FB689B693B613B6923F0F0033B61F0
:102F1C007B681B013A6913433B617B6923F00A030D
:102F2C007B617A69BB6813437B61FB683A699A6180
:102F3C00FB687A691A6200BF1C37BD4680BC7047BB
:102F4C0080B487B000AFF860B9607A60FB681B6A28
:102F5C007B61FB681B6A23F01002FB681A62FB683A
:102F6C009B693B613B6923F470433B617B681B03AA
:102F7C003A6913433B617B6923F0A0037B61BB6817
:102F8C001B017A6913437B61FB683A699A61FB68A0
:102F9C007A691A6200BF1C37BD4680BC704780B48A
:102FAC0085B000AF786039607B689B68FB60FB681C
:102FBC0023F07003FB603A68FB68134343F007038C
:102FCC00FB607B68FA689A6000BF1437BD4680BC12
:102FDC00704780B487B000AFF860B9607A603B602E
:102FEC00FB689B687B617B6923F47F437B613B6857
:102FFC001A027B681A43BB6813437A6913437B61DB
:10300C00FB687A699A6000BF1C37BD4680BC70476C
:10301C0080B485B000AF786039607B6893F83C3041
:10302C00012B01D1022341E07B68012283F83C2073
:10303C007B68022283F83D207B681B685B68FB6021
:10304C007B681B689B68BB60FB6823F07003FB60AC
:10305C003B681B68FA681343FB607B681B68FA6863
:10306C005A607B681B68144A934209D07B681B68C2
:10307C00B3F1804F04D07B681B68104A93420CD18B
:10308C00BB6823F08003BB603B685B68BA68134382
:10309C00BB607B681B68BA689A607B68012283F806
:1030AC003D207B68002283F83C200023184614370F
:1030BC00BD4680BC704700BF002C0140000400409E
:1030CC0080B483B000AF786000BF0C37BD4680BCC5
:1030DC00704780B483B000AF786000BF0C37BD463A
:1030EC0080BC704770B500260C4D0D4C641BA410B1
:1030FC00A64209D100F022F800260A4D0A4C641BA6
:10310C00A410A64205D170BD55F8043B9847013672
:10311C00EEE755F8043B98470136F2E78431000896
:10312C0084310008843100088831000803460244C9
:10313C00934200D1704703F8011BF9E7F8B500BFC3
:10314C00F8BC08BC9E467047F8B500BFF8BC08BC7C
:04315C009E467047D4
:103160000000000000000000010203040607080937
:1031700002030405060708090A0B0C0D0E0F1010B8
:043180000102000048
:04318400310100080D
:043188000D0100082D
:10318C00010000000100000001000000010000002F
:10319C00010000000100000001000000010000001F
:1031AC00C80000000000A0400000404000000040AB
:0C31BC000024F4001000000001000000DE
:0400000508001AE9EC
:00000001FF
